{
	"data": {
		"bytecode": {
			"linkReferences": {},
			"object": "60806040526000600860156101000a81548160ff021916908360028111156200002d576200002c620009cb565b5b02179055507f74f4666169faccda89a45d47ab1997a62f24c3cd534a01539db8f0e40d3eb8b160001b600a557f4726e4102af77216b09ccd94f40daa10531c87c4d60bba7f3b3faf5ff9f19b3c60001b600b553480156200008d57600080fd5b506040518060400160405280600a81526020017f43727970746f556e6a69000000000000000000000000000000000000000000008152506040518060400160405280600581526020017f43554e4a4900000000000000000000000000000000000000000000000000000081525081600290805190602001906200011292919062000729565b5080600390805190602001906200012b92919062000729565b506200013c6200019860201b60201c565b60008190555050506200016462000158620001a160201b60201c565b620001a960201b60201c565b6000600860146101000a81548160ff021916908315150217905550620001923360066200026f60201b60201c565b62000a59565b60006001905090565b600033905090565b6000600860009054906101000a900473ffffffffffffffffffffffffffffffffffffffff16905081600860006101000a81548173ffffffffffffffffffffffffffffffffffffffff021916908373ffffffffffffffffffffffffffffffffffffffff1602179055508173ffffffffffffffffffffffffffffffffffffffff168173ffffffffffffffffffffffffffffffffffffffff167f8be0079c531659141344cd1fd0a4f28419497f9722a3daafe3b4186f6b6457e060405160405180910390a35050565b620002918282604051806020016040528060008152506200029560201b60201c565b5050565b620002a783836200034660201b60201c565b60008373ffffffffffffffffffffffffffffffffffffffff163b146200034157600080549050600083820390505b620002f060008683806001019450866200052f60201b60201c565b62000327576040517fd1a57ed600000000000000000000000000000000000000000000000000000000815260040160405180910390fd5b818110620002d55781600054146200033e57600080fd5b50505b505050565b600080549050600082141562000388576040517fb562e8dd00000000000000000000000000000000000000000000000000000000815260040160405180910390fd5b6200039d6000848385620006a160201b60201c565b600160406001901b178202600560008573ffffffffffffffffffffffffffffffffffffffff1673ffffffffffffffffffffffffffffffffffffffff168152602001908152602001600020600082825401925050819055506200042c836200040e6000866000620006a760201b60201c565b6200041f85620006d760201b60201c565b17620006e760201b60201c565b6004600083815260200190815260200160002081905550600080838301905073ffffffffffffffffffffffffffffffffffffffff85169150828260007fddf252ad1be2c89b69c2b068fc378daa952ba7f163c4a11628f55a4df523b3ef600080a4600183015b818114620004cf57808360007fddf252ad1be2c89b69c2b068fc378daa952ba7f163c4a11628f55a4df523b3ef600080a460018101905062000492565b5060008214156200050c576040517f2e07630000000000000000000000000000000000000000000000000000000000815260040160405180910390fd5b8060008190555050506200052a60008483856200071260201b60201c565b505050565b60008373ffffffffffffffffffffffffffffffffffffffff1663150b7a026200055d6200071860201b60201c565b8786866040518563ffffffff1660e01b815260040162000581949392919062000885565b602060405180830381600087803b1580156200059c57600080fd5b505af1925050508015620005d057506040513d601f19601f82011682018060405250810190620005cd9190620007f0565b60015b6200064e573d806000811462000603576040519150601f19603f3d011682016040523d82523d6000602084013e62000608565b606091505b5060008151141562000646576040517fd1a57ed600000000000000000000000000000000000000000000000000000000815260040160405180910390fd5b805181602001fd5b63150b7a0260e01b7bffffffffffffffffffffffffffffffffffffffffffffffffffffffff1916817bffffffffffffffffffffffffffffffffffffffffffffffffffffffff191614915050949350505050565b50505050565b60008060e883901c905060e8620006c68686846200072060201b60201c565b62ffffff16901b9150509392505050565b60006001821460e11b9050919050565b600073ffffffffffffffffffffffffffffffffffffffff83169250814260a01b178317905092915050565b50505050565b600033905090565b60009392505050565b828054620007379062000995565b90600052602060002090601f0160209004810192826200075b5760008555620007a7565b82601f106200077657805160ff1916838001178555620007a7565b82800160010185558215620007a7579182015b82811115620007a657825182559160200191906001019062000789565b5b509050620007b69190620007ba565b5090565b5b80821115620007d5576000816000905550600101620007bb565b5090565b600081519050620007ea8162000a3f565b92915050565b60006020828403121562000809576200080862000a29565b5b60006200081984828501620007d9565b91505092915050565b6200082d81620008f5565b82525050565b60006200084082620008d9565b6200084c8185620008e4565b93506200085e8185602086016200095f565b620008698162000a2e565b840191505092915050565b6200087f8162000955565b82525050565b60006080820190506200089c600083018762000822565b620008ab602083018662000822565b620008ba604083018562000874565b8181036060830152620008ce818462000833565b905095945050505050565b600081519050919050565b600082825260208201905092915050565b6000620009028262000935565b9050919050565b60007fffffffff0000000000000000000000000000000000000000000000000000000082169050919050565b600073ffffffffffffffffffffffffffffffffffffffff82169050919050565b6000819050919050565b60005b838110156200097f57808201518184015260208101905062000962565b838111156200098f576000848401525b50505050565b60006002820490506001821680620009ae57607f821691505b60208210811415620009c557620009c4620009fa565b5b50919050565b7f4e487b7100000000000000000000000000000000000000000000000000000000600052602160045260246000fd5b7f4e487b7100000000000000000000000000000000000000000000000000000000600052602260045260246000fd5b600080fd5b6000601f19601f8301169050919050565b62000a4a8162000909565b811462000a5657600080fd5b50565b6139ea8062000a696000396000f3fe6080604052600436106102085760003560e01c806370a0823111610118578063c30bf318116100a0578063e985e9c51161006f578063e985e9c51461074c578063f2fde38b14610789578063f365dda8146107b2578063f5aa406d146107db578063f5fb0123146108045761023f565b8063c30bf3181461068b578063c3151fed146106a7578063c87b56dd146106d2578063d1b6dd301461070f5761023f565b80638f5534be116100e75780638f5534be146105c957806395d89b41146105f25780639d9e7a991461061d578063a22cb46514610646578063b88d4fde1461066f5761023f565b806370a082311461051f578063715018a61461055c57806388b4b7d6146105735780638da5cb5b1461059e5761023f565b806327fda1a11161019b57806342842e0e1161016a57806342842e0e1461045657806355f804b3146104725780635c975abb1461049b578063614211e9146104c65780636352211e146104e25761023f565b806327fda1a1146103c05780632a1d6190146103eb57806331c07bbf146104165780633ccfd60b1461043f5761023f565b806317881cbf116101d757806317881cbf1461033257806318160ddd1461035d57806323b872dd1461038857806323cf0a22146103a45761023f565b806301ffc9a71461027157806306fdde03146102ae578063081812fc146102d9578063095ea7b3146103165761023f565b3661023f576040517fd623472500000000000000000000000000000000000000000000000000000000815260040160405180910390fd5b6040517fd623472500000000000000000000000000000000000000000000000000000000815260040160405180910390fd5b34801561027d57600080fd5b5061029860048036038101906102939190612ae1565b61082f565b6040516102a59190612ffc565b60405180910390f35b3480156102ba57600080fd5b506102c36108c1565b6040516102d0919061304d565b60405180910390f35b3480156102e557600080fd5b5061030060048036038101906102fb9190612bde565b610953565b60405161030d9190612f1a565b60405180910390f35b610330600480360381019061032b91906129cf565b6109d2565b005b34801561033e57600080fd5b50610347610b16565b6040516103549190613032565b60405180910390f35b34801561036957600080fd5b50610372610b29565b60405161037f91906131ca565b60405180910390f35b6103a2600480360381019061039d91906128b9565b610b40565b005b6103be60048036038101906103b99190612bb1565b610e65565b005b3480156103cc57600080fd5b506103d5611036565b6040516103e291906131ca565b60405180910390f35b3480156103f757600080fd5b50610400611041565b60405161040d9190613017565b60405180910390f35b34801561042257600080fd5b5061043d60048036038101906104389190612b3b565b611047565b005b34801561044b57600080fd5b5061045461107c565b005b610470600480360381019061046b91906128b9565b6110d4565b005b34801561047e57600080fd5b5061049960048036038101906104949190612b68565b6110f4565b005b3480156104a757600080fd5b506104b0611116565b6040516104bd9190612ffc565b60405180910390f35b6104e060048036038101906104db9190612c0b565b61112d565b005b3480156104ee57600080fd5b5061050960048036038101906105049190612bde565b6112eb565b6040516105169190612f1a565b60405180910390f35b34801561052b57600080fd5b50610546600480360381019061054191906127dd565b6112fd565b60405161055391906131ca565b60405180910390f35b34801561056857600080fd5b506105716113b6565b005b34801561057f57600080fd5b506105886113ca565b6040516105959190613017565b60405180910390f35b3480156105aa57600080fd5b506105b36113d0565b6040516105c09190612f1a565b60405180910390f35b3480156105d557600080fd5b506105f060048036038101906105eb9190612a0f565b6113fa565b005b3480156105fe57600080fd5b5061060761159f565b604051610614919061304d565b60405180910390f35b34801561062957600080fd5b50610644600480360381019061063f9190612ab4565b611631565b005b34801561065257600080fd5b5061066d6004803603810190610668919061298f565b611643565b005b6106896004803603810190610684919061290c565b61174e565b005b6106a560048036038101906106a09190612a58565b6117c1565b005b3480156106b357600080fd5b506106bc611953565b6040516106c991906131ca565b60405180910390f35b3480156106de57600080fd5b506106f960048036038101906106f49190612bde565b61195e565b604051610706919061304d565b60405180910390f35b34801561071b57600080fd5b50610736600480360381019061073191906127dd565b6119fd565b6040516107439190612ffc565b60405180910390f35b34801561075857600080fd5b50610773600480360381019061076e919061280a565b611a1d565b6040516107809190612ffc565b60405180910390f35b34801561079557600080fd5b506107b060048036038101906107ab91906127dd565b611ab1565b005b3480156107be57600080fd5b506107d960048036038101906107d4919061284a565b611b35565b005b3480156107e757600080fd5b5061080260048036038101906107fd9190612ab4565b611b7f565b005b34801561081057600080fd5b50610819611b91565b60405161082691906131af565b60405180910390f35b60006301ffc9a760e01b827bffffffffffffffffffffffffffffffffffffffffffffffffffffffff1916148061088a57506380ac58cd60e01b827bffffffffffffffffffffffffffffffffffffffffffffffffffffffff1916145b806108ba5750635b5e139f60e01b827bffffffffffffffffffffffffffffffffffffffffffffffffffffffff1916145b9050919050565b6060600280546108d0906134ff565b80601f01602080910402602001604051908101604052809291908181526020018280546108fc906134ff565b80156109495780601f1061091e57610100808354040283529160200191610949565b820191906000526020600020905b81548152906001019060200180831161092c57829003601f168201915b5050505050905090565b600061095e82611b97565b610994576040517fcf4700e400000000000000000000000000000000000000000000000000000000815260040160405180910390fd5b6006600083815260200190815260200160002060000160009054906101000a900473ffffffffffffffffffffffffffffffffffffffff169050919050565b60006109dd826112eb565b90508073ffffffffffffffffffffffffffffffffffffffff166109fe611bf6565b73ffffffffffffffffffffffffffffffffffffffff1614610a6157610a2a81610a25611bf6565b611a1d565b610a60576040517fcfb3b94200000000000000000000000000000000000000000000000000000000815260040160405180910390fd5b5b826006600084815260200190815260200160002060000160006101000a81548173ffffffffffffffffffffffffffffffffffffffff021916908373ffffffffffffffffffffffffffffffffffffffff160217905550818373ffffffffffffffffffffffffffffffffffffffff168273ffffffffffffffffffffffffffffffffffffffff167f8c5be1e5ebec7d5bd14f71427d1e84f3dd0314c0f7b2291e5b200ac8c7c3b92560405160405180910390a4505050565b600860159054906101000a900460ff1681565b6000610b33611bfe565b6001546000540303905090565b6000610b4b82611c07565b90508373ffffffffffffffffffffffffffffffffffffffff168173ffffffffffffffffffffffffffffffffffffffff1614610bb2576040517fa114810000000000000000000000000000000000000000000000000000000000815260040160405180910390fd5b600080610bbe84611cd5565b91509150610bd48187610bcf611bf6565b611cfc565b610c2057610be986610be4611bf6565b611a1d565b610c1f576040517f59c896be00000000000000000000000000000000000000000000000000000000815260040160405180910390fd5b5b600073ffffffffffffffffffffffffffffffffffffffff168573ffffffffffffffffffffffffffffffffffffffff161415610c87576040517fea553b3400000000000000000000000000000000000000000000000000000000815260040160405180910390fd5b610c948686866001611d40565b8015610c9f57600082555b600560008773ffffffffffffffffffffffffffffffffffffffff1673ffffffffffffffffffffffffffffffffffffffff168152602001908152602001600020600081546001900391905081905550600560008673ffffffffffffffffffffffffffffffffffffffff1673ffffffffffffffffffffffffffffffffffffffff1681526020019081526020016000206000815460010191905081905550610d6d85610d49888887611d46565b7c020000000000000000000000000000000000000000000000000000000017611d6e565b600460008681526020019081526020016000208190555060007c020000000000000000000000000000000000000000000000000000000084161415610df5576000600185019050600060046000838152602001908152602001600020541415610df3576000548114610df2578360046000838152602001908152602001600020819055505b5b505b838573ffffffffffffffffffffffffffffffffffffffff168773ffffffffffffffffffffffffffffffffffffffff167fddf252ad1be2c89b69c2b068fc378daa952ba7f163c4a11628f55a4df523b3ef60405160405180910390a4610e5d8686866001611d99565b505050505050565b6002806002811115610e7a57610e7961362d565b5b600860159054906101000a900460ff166002811115610e9c57610e9b61362d565b5b14610edc576040517f08c379a0000000000000000000000000000000000000000000000000000000008152600401610ed39061316f565b60405180910390fd5b8161ffff16611e6161ffff16610ef0610b29565b10610f30576040517f08c379a0000000000000000000000000000000000000000000000000000000008152600401610f27906130ef565b60405180910390fd5b611e6161ffff1681610f40610b29565b610f4a9190613307565b1115610f8b576040517f08c379a0000000000000000000000000000000000000000000000000000000008152600401610f829061310f565b60405180910390fd5b600066b1a2bc2ec500008461ffff16610fa4919061338e565b905080341015610fe9576040517f08c379a0000000000000000000000000000000000000000000000000000000008152600401610fe09061314f565b60405180910390fd5b610ff7338561ffff16611d9f565b7fffb7c4f70972afcd047a01a8f7a1dacb3bc21748b5beeedd676c53205d728b253385604051611028929190612faa565b60405180910390a150505050565b6658d15e1762800081565b600b5481565b61104f611dbd565b80600860156101000a81548160ff021916908360028111156110745761107361362d565b5b021790555050565b611084611dbd565b61108c6113d0565b73ffffffffffffffffffffffffffffffffffffffff166108fc479081150290604051600060405180830381858888f193505050501580156110d1573d6000803e3d6000fd5b50565b6110ef8383836040518060200160405280600081525061174e565b505050565b6110fc611dbd565b8060099080519060200190611112929190612476565b5050565b6000600860149054906101000a900460ff16905090565b60028060028111156111425761114161362d565b5b600860159054906101000a900460ff1660028111156111645761116361362d565b5b146111a4576040517f08c379a000000000000000000000000000000000000000000000000000000000815260040161119b9061316f565b60405180910390fd5b60006111af836112fd565b116111ef576040517f08c379a00000000000000000000000000000000000000000000000000000000081526004016111e6906130af565b60405180910390fd5b60006064605f8566b1a2bc2ec50000611208919061338e565b611212919061338e565b61121c919061335d565b90506000606460058666b1a2bc2ec50000611237919061338e565b611241919061338e565b61124b919061335d565b90508134101561125a57600080fd5b6112643386611d9f565b7fffb7c4f70972afcd047a01a8f7a1dacb3bc21748b5beeedd676c53205d728b253386604051611295929190612fd3565b60405180910390a18373ffffffffffffffffffffffffffffffffffffffff166108fc829081150290604051600060405180830381858888f193505050501580156112e3573d6000803e3d6000fd5b505050505050565b60006112f682611c07565b9050919050565b60008073ffffffffffffffffffffffffffffffffffffffff168273ffffffffffffffffffffffffffffffffffffffff161415611365576040517f8f4eb60400000000000000000000000000000000000000000000000000000000815260040160405180910390fd5b67ffffffffffffffff600560008473ffffffffffffffffffffffffffffffffffffffff1673ffffffffffffffffffffffffffffffffffffffff16815260200190815260200160002054169050919050565b6113be611dbd565b6113c86000611e3b565b565b600a5481565b6000600860009054906101000a900473ffffffffffffffffffffffffffffffffffffffff16905090565b60003360405160200161140d9190612edb565b60405160208183030381529060405280519060200120905061143282600a5483611f01565b611471576040517f08c379a0000000000000000000000000000000000000000000000000000000008152600401611468906130cf565b60405180910390fd5b600c60003373ffffffffffffffffffffffffffffffffffffffff1673ffffffffffffffffffffffffffffffffffffffff16815260200190815260200160002060009054906101000a900460ff16156114fe576040517f08c379a00000000000000000000000000000000000000000000000000000000081526004016114f59061318f565b60405180910390fd5b611509336001611d9f565b6001600c60003373ffffffffffffffffffffffffffffffffffffffff1673ffffffffffffffffffffffffffffffffffffffff16815260200190815260200160002060006101000a81548160ff0219169083151502179055507fffb7c4f70972afcd047a01a8f7a1dacb3bc21748b5beeedd676c53205d728b25336001604051611593929190612f81565b60405180910390a15050565b6060600380546115ae906134ff565b80601f01602080910402602001604051908101604052809291908181526020018280546115da906134ff565b80156116275780601f106115fc57610100808354040283529160200191611627565b820191906000526020600020905b81548152906001019060200180831161160a57829003601f168201915b5050505050905090565b611639611dbd565b80600a8190555050565b8060076000611650611bf6565b73ffffffffffffffffffffffffffffffffffffffff1673ffffffffffffffffffffffffffffffffffffffff16815260200190815260200160002060008473ffffffffffffffffffffffffffffffffffffffff1673ffffffffffffffffffffffffffffffffffffffff16815260200190815260200160002060006101000a81548160ff0219169083151502179055508173ffffffffffffffffffffffffffffffffffffffff166116fd611bf6565b73ffffffffffffffffffffffffffffffffffffffff167f17307eab39ab6107e8899845ad3d59bd9653f200f220920489ca2b5937696c31836040516117429190612ffc565b60405180910390a35050565b611759848484610b40565b60008373ffffffffffffffffffffffffffffffffffffffff163b146117bb5761178484848484611f18565b6117ba576040517fd1a57ed600000000000000000000000000000000000000000000000000000000815260040160405180910390fd5b5b50505050565b60018060028111156117d6576117d561362d565b5b600860159054906101000a900460ff1660028111156117f8576117f761362d565b5b14611838576040517f08c379a000000000000000000000000000000000000000000000000000000000815260040161182f9061316f565b60405180910390fd5b60003360405160200161184b9190612edb565b60405160208183030381529060405280519060200120905061187084600b5483611f01565b6118af576040517f08c379a00000000000000000000000000000000000000000000000000000000081526004016118a69061306f565b60405180910390fd5b60006658d15e17628000846118c4919061338e565b905080341015611909576040517f08c379a00000000000000000000000000000000000000000000000000000000081526004016119009061314f565b60405180910390fd5b6119133385611d9f565b7fffb7c4f70972afcd047a01a8f7a1dacb3bc21748b5beeedd676c53205d728b253385604051611944929190612fd3565b60405180910390a15050505050565b66b1a2bc2ec5000081565b606061196982611b97565b61199f576040517fa14c4b5000000000000000000000000000000000000000000000000000000000815260040160405180910390fd5b60006119a9612078565b90506000815114156119ca57604051806020016040528060008152506119f5565b806119d48461210a565b6040516020016119e5929190612ef6565b6040516020818303038152906040525b915050919050565b600c6020528060005260406000206000915054906101000a900460ff1681565b6000600760008473ffffffffffffffffffffffffffffffffffffffff1673ffffffffffffffffffffffffffffffffffffffff16815260200190815260200160002060008373ffffffffffffffffffffffffffffffffffffffff1673ffffffffffffffffffffffffffffffffffffffff16815260200190815260200160002060009054906101000a900460ff16905092915050565b611ab9611dbd565b600073ffffffffffffffffffffffffffffffffffffffff168173ffffffffffffffffffffffffffffffffffffffff161415611b29576040517f08c379a0000000000000000000000000000000000000000000000000000000008152600401611b209061308f565b60405180910390fd5b611b3281611e3b565b50565b60005b8151811015611b7957611b668484848481518110611b5957611b5861368b565b5b60200260200101516110d4565b8080611b7190613562565b915050611b38565b50505050565b611b87611dbd565b80600b8190555050565b611e6181565b600081611ba2611bfe565b11158015611bb1575060005482105b8015611bef575060007c0100000000000000000000000000000000000000000000000000000000600460008581526020019081526020016000205416145b9050919050565b600033905090565b60006001905090565b60008082905080611c16611bfe565b11611c9e57600054811015611c9d5760006004600083815260200190815260200160002054905060007c010000000000000000000000000000000000000000000000000000000082161415611c9b575b6000811415611c91576004600083600190039350838152602001908152602001600020549050611c66565b8092505050611cd0565b505b5b6040517fdf2d9b4200000000000000000000000000000000000000000000000000000000815260040160405180910390fd5b919050565b60008060006006600085815260200190815260200160002090508092508254915050915091565b600073ffffffffffffffffffffffffffffffffffffffff8316925073ffffffffffffffffffffffffffffffffffffffff821691508382148383141790509392505050565b50505050565b60008060e883901c905060e8611d5d868684612163565b62ffffff16901b9150509392505050565b600073ffffffffffffffffffffffffffffffffffffffff83169250814260a01b178317905092915050565b50505050565b611db982826040518060200160405280600081525061216c565b5050565b611dc5612209565b73ffffffffffffffffffffffffffffffffffffffff16611de36113d0565b73ffffffffffffffffffffffffffffffffffffffff1614611e39576040517f08c379a0000000000000000000000000000000000000000000000000000000008152600401611e309061312f565b60405180910390fd5b565b6000600860009054906101000a900473ffffffffffffffffffffffffffffffffffffffff16905081600860006101000a81548173ffffffffffffffffffffffffffffffffffffffff021916908373ffffffffffffffffffffffffffffffffffffffff1602179055508173ffffffffffffffffffffffffffffffffffffffff168173ffffffffffffffffffffffffffffffffffffffff167f8be0079c531659141344cd1fd0a4f28419497f9722a3daafe3b4186f6b6457e060405160405180910390a35050565b600082611f0e8584612211565b1490509392505050565b60008373ffffffffffffffffffffffffffffffffffffffff1663150b7a02611f3e611bf6565b8786866040518563ffffffff1660e01b8152600401611f609493929190612f35565b602060405180830381600087803b158015611f7a57600080fd5b505af1925050508015611fab57506040513d601f19601f82011682018060405250810190611fa89190612b0e565b60015b612025573d8060008114611fdb576040519150601f19603f3d011682016040523d82523d6000602084013e611fe0565b606091505b5060008151141561201d576040517fd1a57ed600000000000000000000000000000000000000000000000000000000815260040160405180910390fd5b805181602001fd5b63150b7a0260e01b7bffffffffffffffffffffffffffffffffffffffffffffffffffffffff1916817bffffffffffffffffffffffffffffffffffffffffffffffffffffffff191614915050949350505050565b606060098054612087906134ff565b80601f01602080910402602001604051908101604052809291908181526020018280546120b3906134ff565b80156121005780601f106120d557610100808354040283529160200191612100565b820191906000526020600020905b8154815290600101906020018083116120e357829003601f168201915b5050505050905090565b606060a060405101806040526020810391506000825281835b60011561214e57600184039350600a81066030018453600a81049050806121495761214e565b612123565b50828103602084039350808452505050919050565b60009392505050565b6121768383612267565b60008373ffffffffffffffffffffffffffffffffffffffff163b1461220457600080549050600083820390505b6121b66000868380600101945086611f18565b6121ec576040517fd1a57ed600000000000000000000000000000000000000000000000000000000815260040160405180910390fd5b8181106121a357816000541461220157600080fd5b50505b505050565b600033905090565b60008082905060005b845181101561225c576122478286838151811061223a5761223961368b565b5b6020026020010151612424565b9150808061225490613562565b91505061221a565b508091505092915050565b60008054905060008214156122a8576040517fb562e8dd00000000000000000000000000000000000000000000000000000000815260040160405180910390fd5b6122b56000848385611d40565b600160406001901b178202600560008573ffffffffffffffffffffffffffffffffffffffff1673ffffffffffffffffffffffffffffffffffffffff1681526020019081526020016000206000828254019250508190555061232c8361231d6000866000611d46565b6123268561244f565b17611d6e565b6004600083815260200190815260200160002081905550600080838301905073ffffffffffffffffffffffffffffffffffffffff85169150828260007fddf252ad1be2c89b69c2b068fc378daa952ba7f163c4a11628f55a4df523b3ef600080a4600183015b8181146123cd57808360007fddf252ad1be2c89b69c2b068fc378daa952ba7f163c4a11628f55a4df523b3ef600080a4600181019050612392565b506000821415612409576040517f2e07630000000000000000000000000000000000000000000000000000000000815260040160405180910390fd5b80600081905550505061241f6000848385611d99565b505050565b600081831061243c57612437828461245f565b612447565b612446838361245f565b5b905092915050565b60006001821460e11b9050919050565b600082600052816020526040600020905092915050565b828054612482906134ff565b90600052602060002090601f0160209004810192826124a457600085556124eb565b82601f106124bd57805160ff19168380011785556124eb565b828001600101855582156124eb579182015b828111156124ea5782518255916020019190600101906124cf565b5b5090506124f891906124fc565b5090565b5b808211156125155760008160009055506001016124fd565b5090565b600061252c6125278461320a565b6131e5565b9050808382526020820190508285602086028201111561254f5761254e6136ee565b5b60005b8581101561257f57816125658882612703565b845260208401935060208301925050600181019050612552565b5050509392505050565b600061259c61259784613236565b6131e5565b905080838252602082019050828560208602820111156125bf576125be6136ee565b5b60005b858110156125ef57816125d588826127c8565b8452602084019350602083019250506001810190506125c2565b5050509392505050565b600061260c61260784613262565b6131e5565b905082815260208101848484011115612628576126276136f3565b5b6126338482856134bd565b509392505050565b600061264e61264984613293565b6131e5565b90508281526020810184848401111561266a576126696136f3565b5b6126758482856134bd565b509392505050565b60008135905061268c8161391a565b92915050565b600082601f8301126126a7576126a66136e9565b5b81356126b7848260208601612519565b91505092915050565b600082601f8301126126d5576126d46136e9565b5b81356126e5848260208601612589565b91505092915050565b6000813590506126fd81613931565b92915050565b60008135905061271281613948565b92915050565b6000813590506127278161395f565b92915050565b60008151905061273c8161395f565b92915050565b600082601f830112612757576127566136e9565b5b81356127678482602086016125f9565b91505092915050565b60008135905061277f81613976565b92915050565b600082601f83011261279a576127996136e9565b5b81356127aa84826020860161263b565b91505092915050565b6000813590506127c281613986565b92915050565b6000813590506127d78161399d565b92915050565b6000602082840312156127f3576127f26136fd565b5b60006128018482850161267d565b91505092915050565b60008060408385031215612821576128206136fd565b5b600061282f8582860161267d565b92505060206128408582860161267d565b9150509250929050565b600080600060608486031215612863576128626136fd565b5b60006128718682870161267d565b93505060206128828682870161267d565b925050604084013567ffffffffffffffff8111156128a3576128a26136f8565b5b6128af868287016126c0565b9150509250925092565b6000806000606084860312156128d2576128d16136fd565b5b60006128e08682870161267d565b93505060206128f18682870161267d565b9250506040612902868287016127c8565b9150509250925092565b60008060008060808587031215612926576129256136fd565b5b60006129348782880161267d565b94505060206129458782880161267d565b9350506040612956878288016127c8565b925050606085013567ffffffffffffffff811115612977576129766136f8565b5b61298387828801612742565b91505092959194509250565b600080604083850312156129a6576129a56136fd565b5b60006129b48582860161267d565b92505060206129c5858286016126ee565b9150509250929050565b600080604083850312156129e6576129e56136fd565b5b60006129f48582860161267d565b9250506020612a05858286016127c8565b9150509250929050565b600060208284031215612a2557612a246136fd565b5b600082013567ffffffffffffffff811115612a4357612a426136f8565b5b612a4f84828501612692565b91505092915050565b60008060408385031215612a6f57612a6e6136fd565b5b600083013567ffffffffffffffff811115612a8d57612a8c6136f8565b5b612a9985828601612692565b9250506020612aaa858286016127c8565b9150509250929050565b600060208284031215612aca57612ac96136fd565b5b6000612ad884828501612703565b91505092915050565b600060208284031215612af757612af66136fd565b5b6000612b0584828501612718565b91505092915050565b600060208284031215612b2457612b236136fd565b5b6000612b328482850161272d565b91505092915050565b600060208284031215612b5157612b506136fd565b5b6000612b5f84828501612770565b91505092915050565b600060208284031215612b7e57612b7d6136fd565b5b600082013567ffffffffffffffff811115612b9c57612b9b6136f8565b5b612ba884828501612785565b91505092915050565b600060208284031215612bc757612bc66136fd565b5b6000612bd5848285016127b3565b91505092915050565b600060208284031215612bf457612bf36136fd565b5b6000612c02848285016127c8565b91505092915050565b60008060408385031215612c2257612c216136fd565b5b6000612c30858286016127c8565b9250506020612c418582860161267d565b9150509250929050565b612c54816133e8565b82525050565b612c6b612c66826133e8565b6135ab565b82525050565b612c7a816133fa565b82525050565b612c8981613406565b82525050565b6000612c9a826132c4565b612ca481856132da565b9350612cb48185602086016134cc565b612cbd81613702565b840191505092915050565b612cd181613487565b82525050565b612ce081613499565b82525050565b6000612cf1826132cf565b612cfb81856132eb565b9350612d0b8185602086016134cc565b612d1481613702565b840191505092915050565b6000612d2a826132cf565b612d3481856132fc565b9350612d448185602086016134cc565b80840191505092915050565b6000612d5d6010836132eb565b9150612d6882613720565b602082019050919050565b6000612d806026836132eb565b9150612d8b82613749565b604082019050919050565b6000612da36024836132eb565b9150612dae82613798565b604082019050919050565b6000612dc6600e836132eb565b9150612dd1826137e7565b602082019050919050565b6000612de96014836132eb565b9150612df482613810565b602082019050919050565b6000612e0c6017836132eb565b9150612e1782613839565b602082019050919050565b6000612e2f6020836132eb565b9150612e3a82613862565b602082019050919050565b6000612e526012836132eb565b9150612e5d8261388b565b602082019050919050565b6000612e756016836132eb565b9150612e80826138b4565b602082019050919050565b6000612e98600f836132eb565b9150612ea3826138dd565b602082019050919050565b612eb78161344f565b82525050565b612ec6816134ab565b82525050565b612ed58161347d565b82525050565b6000612ee78284612c5a565b60148201915081905092915050565b6000612f028285612d1f565b9150612f0e8284612d1f565b91508190509392505050565b6000602082019050612f2f6000830184612c4b565b92915050565b6000608082019050612f4a6000830187612c4b565b612f576020830186612c4b565b612f646040830185612ecc565b8181036060830152612f768184612c8f565b905095945050505050565b6000604082019050612f966000830185612c4b565b612fa36020830184612cd7565b9392505050565b6000604082019050612fbf6000830185612c4b565b612fcc6020830184612ebd565b9392505050565b6000604082019050612fe86000830185612c4b565b612ff56020830184612ecc565b9392505050565b60006020820190506130116000830184612c71565b92915050565b600060208201905061302c6000830184612c80565b92915050565b60006020820190506130476000830184612cc8565b92915050565b600060208201905081810360008301526130678184612ce6565b905092915050565b6000602082019050818103600083015261308881612d50565b9050919050565b600060208201905081810360008301526130a881612d73565b9050919050565b600060208201905081810360008301526130c881612d96565b9050919050565b600060208201905081810360008301526130e881612db9565b9050919050565b6000602082019050818103600083015261310881612ddc565b9050919050565b6000602082019050818103600083015261312881612dff565b9050919050565b6000602082019050818103600083015261314881612e22565b9050919050565b6000602082019050818103600083015261316881612e45565b9050919050565b6000602082019050818103600083015261318881612e68565b9050919050565b600060208201905081810360008301526131a881612e8b565b9050919050565b60006020820190506131c46000830184612eae565b92915050565b60006020820190506131df6000830184612ecc565b92915050565b60006131ef613200565b90506131fb8282613531565b919050565b6000604051905090565b600067ffffffffffffffff821115613225576132246136ba565b5b602082029050602081019050919050565b600067ffffffffffffffff821115613251576132506136ba565b5b602082029050602081019050919050565b600067ffffffffffffffff82111561327d5761327c6136ba565b5b61328682613702565b9050602081019050919050565b600067ffffffffffffffff8211156132ae576132ad6136ba565b5b6132b782613702565b9050602081019050919050565b600081519050919050565b600081519050919050565b600082825260208201905092915050565b600082825260208201905092915050565b600081905092915050565b60006133128261347d565b915061331d8361347d565b9250827fffffffffffffffffffffffffffffffffffffffffffffffffffffffffffffffff03821115613352576133516135cf565b5b828201905092915050565b60006133688261347d565b91506133738361347d565b925082613383576133826135fe565b5b828204905092915050565b60006133998261347d565b91506133a48361347d565b9250817fffffffffffffffffffffffffffffffffffffffffffffffffffffffffffffffff04831182151516156133dd576133dc6135cf565b5b828202905092915050565b60006133f38261345d565b9050919050565b60008115159050919050565b6000819050919050565b60007fffffffff0000000000000000000000000000000000000000000000000000000082169050919050565b600081905061344a82613906565b919050565b600061ffff82169050919050565b600073ffffffffffffffffffffffffffffffffffffffff82169050919050565b6000819050919050565b60006134928261343c565b9050919050565b60006134a48261347d565b9050919050565b60006134b68261344f565b9050919050565b82818337600083830152505050565b60005b838110156134ea5780820151818401526020810190506134cf565b838111156134f9576000848401525b50505050565b6000600282049050600182168061351757607f821691505b6020821081141561352b5761352a61365c565b5b50919050565b61353a82613702565b810181811067ffffffffffffffff82111715613559576135586136ba565b5b80604052505050565b600061356d8261347d565b91507fffffffffffffffffffffffffffffffffffffffffffffffffffffffffffffffff8214156135a05761359f6135cf565b5b600182019050919050565b60006135b6826135bd565b9050919050565b60006135c882613713565b9050919050565b7f4e487b7100000000000000000000000000000000000000000000000000000000600052601160045260246000fd5b7f4e487b7100000000000000000000000000000000000000000000000000000000600052601260045260246000fd5b7f4e487b7100000000000000000000000000000000000000000000000000000000600052602160045260246000fd5b7f4e487b7100000000000000000000000000000000000000000000000000000000600052602260045260246000fd5b7f4e487b7100000000000000000000000000000000000000000000000000000000600052603260045260246000fd5b7f4e487b7100000000000000000000000000000000000000000000000000000000600052604160045260246000fd5b600080fd5b600080fd5b600080fd5b600080fd5b600080fd5b6000601f19601f8301169050919050565b60008160601b9050919050565b7f4e6f7420696e2057686974656c69737400000000000000000000000000000000600082015250565b7f4f776e61626c653a206e6577206f776e657220697320746865207a65726f206160008201527f6464726573730000000000000000000000000000000000000000000000000000602082015250565b7f5468697320726566657272616c20686173206e6f7420686f6c6420556e6a692060008201527f7965742100000000000000000000000000000000000000000000000000000000602082015250565b7f4e6f7420696e2041697264726f70000000000000000000000000000000000000600082015250565b7f4e465420416c726561647920736f6c64206f7574000000000000000000000000600082015250565b7f43616e6e6f74206d696e74206f76657220737570706c79000000000000000000600082015250565b7f4f776e61626c653a2063616c6c6572206973206e6f7420746865206f776e6572600082015250565b7f496e73756666696369656e742076616c75650000000000000000000000000000600082015250565b7f4e6f7420636f7272656374206d696e7420706861736500000000000000000000600082015250565b7f416c726561647920436c61696d65640000000000000000000000000000000000600082015250565b600381106139175761391661362d565b5b50565b613923816133e8565b811461392e57600080fd5b50565b61393a816133fa565b811461394557600080fd5b50565b61395181613406565b811461395c57600080fd5b50565b61396881613410565b811461397357600080fd5b50565b6003811061398357600080fd5b50565b61398f8161344f565b811461399a57600080fd5b50565b6139a68161347d565b81146139b157600080fd5b5056fea2646970667358221220d35453aa87fa82fc06166b58c53c5b6a0199a7c4c181dfffac4efe2ce5a4646b64736f6c63430008070033",
			"opcodes": "PUSH1 0x80 PUSH1 0x40 MSTORE PUSH1 0x0 PUSH1 0x8 PUSH1 0x15 PUSH2 0x100 EXP DUP2 SLOAD DUP2 PUSH1 0xFF MUL NOT AND SWAP1 DUP4 PUSH1 0x2 DUP2 GT ISZERO PUSH3 0x2D JUMPI PUSH3 0x2C PUSH3 0x9CB JUMP JUMPDEST JUMPDEST MUL OR SWAP1 SSTORE POP PUSH32 0x74F4666169FACCDA89A45D47AB1997A62F24C3CD534A01539DB8F0E40D3EB8B1 PUSH1 0x0 SHL PUSH1 0xA SSTORE PUSH32 0x4726E4102AF77216B09CCD94F40DAA10531C87C4D60BBA7F3B3FAF5FF9F19B3C PUSH1 0x0 SHL PUSH1 0xB SSTORE CALLVALUE DUP1 ISZERO PUSH3 0x8D JUMPI PUSH1 0x0 DUP1 REVERT JUMPDEST POP PUSH1 0x40 MLOAD DUP1 PUSH1 0x40 ADD PUSH1 0x40 MSTORE DUP1 PUSH1 0xA DUP2 MSTORE PUSH1 0x20 ADD PUSH32 0x43727970746F556E6A6900000000000000000000000000000000000000000000 DUP2 MSTORE POP PUSH1 0x40 MLOAD DUP1 PUSH1 0x40 ADD PUSH1 0x40 MSTORE DUP1 PUSH1 0x5 DUP2 MSTORE PUSH1 0x20 ADD PUSH32 0x43554E4A49000000000000000000000000000000000000000000000000000000 DUP2 MSTORE POP DUP2 PUSH1 0x2 SWAP1 DUP1 MLOAD SWAP1 PUSH1 0x20 ADD SWAP1 PUSH3 0x112 SWAP3 SWAP2 SWAP1 PUSH3 0x729 JUMP JUMPDEST POP DUP1 PUSH1 0x3 SWAP1 DUP1 MLOAD SWAP1 PUSH1 0x20 ADD SWAP1 PUSH3 0x12B SWAP3 SWAP2 SWAP1 PUSH3 0x729 JUMP JUMPDEST POP PUSH3 0x13C PUSH3 0x198 PUSH1 0x20 SHL PUSH1 0x20 SHR JUMP JUMPDEST PUSH1 0x0 DUP2 SWAP1 SSTORE POP POP POP PUSH3 0x164 PUSH3 0x158 PUSH3 0x1A1 PUSH1 0x20 SHL PUSH1 0x20 SHR JUMP JUMPDEST PUSH3 0x1A9 PUSH1 0x20 SHL PUSH1 0x20 SHR JUMP JUMPDEST PUSH1 0x0 PUSH1 0x8 PUSH1 0x14 PUSH2 0x100 EXP DUP2 SLOAD DUP2 PUSH1 0xFF MUL NOT AND SWAP1 DUP4 ISZERO ISZERO MUL OR SWAP1 SSTORE POP PUSH3 0x192 CALLER PUSH1 0x6 PUSH3 0x26F PUSH1 0x20 SHL PUSH1 0x20 SHR JUMP JUMPDEST PUSH3 0xA59 JUMP JUMPDEST PUSH1 0x0 PUSH1 0x1 SWAP1 POP SWAP1 JUMP JUMPDEST PUSH1 0x0 CALLER SWAP1 POP SWAP1 JUMP JUMPDEST PUSH1 0x0 PUSH1 0x8 PUSH1 0x0 SWAP1 SLOAD SWAP1 PUSH2 0x100 EXP SWAP1 DIV PUSH20 0xFFFFFFFFFFFFFFFFFFFFFFFFFFFFFFFFFFFFFFFF AND SWAP1 POP DUP2 PUSH1 0x8 PUSH1 0x0 PUSH2 0x100 EXP DUP2 SLOAD DUP2 PUSH20 0xFFFFFFFFFFFFFFFFFFFFFFFFFFFFFFFFFFFFFFFF MUL NOT AND SWAP1 DUP4 PUSH20 0xFFFFFFFFFFFFFFFFFFFFFFFFFFFFFFFFFFFFFFFF AND MUL OR SWAP1 SSTORE POP DUP2 PUSH20 0xFFFFFFFFFFFFFFFFFFFFFFFFFFFFFFFFFFFFFFFF AND DUP2 PUSH20 0xFFFFFFFFFFFFFFFFFFFFFFFFFFFFFFFFFFFFFFFF AND PUSH32 0x8BE0079C531659141344CD1FD0A4F28419497F9722A3DAAFE3B4186F6B6457E0 PUSH1 0x40 MLOAD PUSH1 0x40 MLOAD DUP1 SWAP2 SUB SWAP1 LOG3 POP POP JUMP JUMPDEST PUSH3 0x291 DUP3 DUP3 PUSH1 0x40 MLOAD DUP1 PUSH1 0x20 ADD PUSH1 0x40 MSTORE DUP1 PUSH1 0x0 DUP2 MSTORE POP PUSH3 0x295 PUSH1 0x20 SHL PUSH1 0x20 SHR JUMP JUMPDEST POP POP JUMP JUMPDEST PUSH3 0x2A7 DUP4 DUP4 PUSH3 0x346 PUSH1 0x20 SHL PUSH1 0x20 SHR JUMP JUMPDEST PUSH1 0x0 DUP4 PUSH20 0xFFFFFFFFFFFFFFFFFFFFFFFFFFFFFFFFFFFFFFFF AND EXTCODESIZE EQ PUSH3 0x341 JUMPI PUSH1 0x0 DUP1 SLOAD SWAP1 POP PUSH1 0x0 DUP4 DUP3 SUB SWAP1 POP JUMPDEST PUSH3 0x2F0 PUSH1 0x0 DUP7 DUP4 DUP1 PUSH1 0x1 ADD SWAP5 POP DUP7 PUSH3 0x52F PUSH1 0x20 SHL PUSH1 0x20 SHR JUMP JUMPDEST PUSH3 0x327 JUMPI PUSH1 0x40 MLOAD PUSH32 0xD1A57ED600000000000000000000000000000000000000000000000000000000 DUP2 MSTORE PUSH1 0x4 ADD PUSH1 0x40 MLOAD DUP1 SWAP2 SUB SWAP1 REVERT JUMPDEST DUP2 DUP2 LT PUSH3 0x2D5 JUMPI DUP2 PUSH1 0x0 SLOAD EQ PUSH3 0x33E JUMPI PUSH1 0x0 DUP1 REVERT JUMPDEST POP POP JUMPDEST POP POP POP JUMP JUMPDEST PUSH1 0x0 DUP1 SLOAD SWAP1 POP PUSH1 0x0 DUP3 EQ ISZERO PUSH3 0x388 JUMPI PUSH1 0x40 MLOAD PUSH32 0xB562E8DD00000000000000000000000000000000000000000000000000000000 DUP2 MSTORE PUSH1 0x4 ADD PUSH1 0x40 MLOAD DUP1 SWAP2 SUB SWAP1 REVERT JUMPDEST PUSH3 0x39D PUSH1 0x0 DUP5 DUP4 DUP6 PUSH3 0x6A1 PUSH1 0x20 SHL PUSH1 0x20 SHR JUMP JUMPDEST PUSH1 0x1 PUSH1 0x40 PUSH1 0x1 SWAP1 SHL OR DUP3 MUL PUSH1 0x5 PUSH1 0x0 DUP6 PUSH20 0xFFFFFFFFFFFFFFFFFFFFFFFFFFFFFFFFFFFFFFFF AND PUSH20 0xFFFFFFFFFFFFFFFFFFFFFFFFFFFFFFFFFFFFFFFF AND DUP2 MSTORE PUSH1 0x20 ADD SWAP1 DUP2 MSTORE PUSH1 0x20 ADD PUSH1 0x0 KECCAK256 PUSH1 0x0 DUP3 DUP3 SLOAD ADD SWAP3 POP POP DUP2 SWAP1 SSTORE POP PUSH3 0x42C DUP4 PUSH3 0x40E PUSH1 0x0 DUP7 PUSH1 0x0 PUSH3 0x6A7 PUSH1 0x20 SHL PUSH1 0x20 SHR JUMP JUMPDEST PUSH3 0x41F DUP6 PUSH3 0x6D7 PUSH1 0x20 SHL PUSH1 0x20 SHR JUMP JUMPDEST OR PUSH3 0x6E7 PUSH1 0x20 SHL PUSH1 0x20 SHR JUMP JUMPDEST PUSH1 0x4 PUSH1 0x0 DUP4 DUP2 MSTORE PUSH1 0x20 ADD SWAP1 DUP2 MSTORE PUSH1 0x20 ADD PUSH1 0x0 KECCAK256 DUP2 SWAP1 SSTORE POP PUSH1 0x0 DUP1 DUP4 DUP4 ADD SWAP1 POP PUSH20 0xFFFFFFFFFFFFFFFFFFFFFFFFFFFFFFFFFFFFFFFF DUP6 AND SWAP2 POP DUP3 DUP3 PUSH1 0x0 PUSH32 0xDDF252AD1BE2C89B69C2B068FC378DAA952BA7F163C4A11628F55A4DF523B3EF PUSH1 0x0 DUP1 LOG4 PUSH1 0x1 DUP4 ADD JUMPDEST DUP2 DUP2 EQ PUSH3 0x4CF JUMPI DUP1 DUP4 PUSH1 0x0 PUSH32 0xDDF252AD1BE2C89B69C2B068FC378DAA952BA7F163C4A11628F55A4DF523B3EF PUSH1 0x0 DUP1 LOG4 PUSH1 0x1 DUP2 ADD SWAP1 POP PUSH3 0x492 JUMP JUMPDEST POP PUSH1 0x0 DUP3 EQ ISZERO PUSH3 0x50C JUMPI PUSH1 0x40 MLOAD PUSH32 0x2E07630000000000000000000000000000000000000000000000000000000000 DUP2 MSTORE PUSH1 0x4 ADD PUSH1 0x40 MLOAD DUP1 SWAP2 SUB SWAP1 REVERT JUMPDEST DUP1 PUSH1 0x0 DUP2 SWAP1 SSTORE POP POP POP PUSH3 0x52A PUSH1 0x0 DUP5 DUP4 DUP6 PUSH3 0x712 PUSH1 0x20 SHL PUSH1 0x20 SHR JUMP JUMPDEST POP POP POP JUMP JUMPDEST PUSH1 0x0 DUP4 PUSH20 0xFFFFFFFFFFFFFFFFFFFFFFFFFFFFFFFFFFFFFFFF AND PUSH4 0x150B7A02 PUSH3 0x55D PUSH3 0x718 PUSH1 0x20 SHL PUSH1 0x20 SHR JUMP JUMPDEST DUP8 DUP7 DUP7 PUSH1 0x40 MLOAD DUP6 PUSH4 0xFFFFFFFF AND PUSH1 0xE0 SHL DUP2 MSTORE PUSH1 0x4 ADD PUSH3 0x581 SWAP5 SWAP4 SWAP3 SWAP2 SWAP1 PUSH3 0x885 JUMP JUMPDEST PUSH1 0x20 PUSH1 0x40 MLOAD DUP1 DUP4 SUB DUP2 PUSH1 0x0 DUP8 DUP1 EXTCODESIZE ISZERO DUP1 ISZERO PUSH3 0x59C JUMPI PUSH1 0x0 DUP1 REVERT JUMPDEST POP GAS CALL SWAP3 POP POP POP DUP1 ISZERO PUSH3 0x5D0 JUMPI POP PUSH1 0x40 MLOAD RETURNDATASIZE PUSH1 0x1F NOT PUSH1 0x1F DUP3 ADD AND DUP3 ADD DUP1 PUSH1 0x40 MSTORE POP DUP2 ADD SWAP1 PUSH3 0x5CD SWAP2 SWAP1 PUSH3 0x7F0 JUMP JUMPDEST PUSH1 0x1 JUMPDEST PUSH3 0x64E JUMPI RETURNDATASIZE DUP1 PUSH1 0x0 DUP2 EQ PUSH3 0x603 JUMPI PUSH1 0x40 MLOAD SWAP2 POP PUSH1 0x1F NOT PUSH1 0x3F RETURNDATASIZE ADD AND DUP3 ADD PUSH1 0x40 MSTORE RETURNDATASIZE DUP3 MSTORE RETURNDATASIZE PUSH1 0x0 PUSH1 0x20 DUP5 ADD RETURNDATACOPY PUSH3 0x608 JUMP JUMPDEST PUSH1 0x60 SWAP2 POP JUMPDEST POP PUSH1 0x0 DUP2 MLOAD EQ ISZERO PUSH3 0x646 JUMPI PUSH1 0x40 MLOAD PUSH32 0xD1A57ED600000000000000000000000000000000000000000000000000000000 DUP2 MSTORE PUSH1 0x4 ADD PUSH1 0x40 MLOAD DUP1 SWAP2 SUB SWAP1 REVERT JUMPDEST DUP1 MLOAD DUP2 PUSH1 0x20 ADD REVERT JUMPDEST PUSH4 0x150B7A02 PUSH1 0xE0 SHL PUSH28 0xFFFFFFFFFFFFFFFFFFFFFFFFFFFFFFFFFFFFFFFFFFFFFFFFFFFFFFFF NOT AND DUP2 PUSH28 0xFFFFFFFFFFFFFFFFFFFFFFFFFFFFFFFFFFFFFFFFFFFFFFFFFFFFFFFF NOT AND EQ SWAP2 POP POP SWAP5 SWAP4 POP POP POP POP JUMP JUMPDEST POP POP POP POP JUMP JUMPDEST PUSH1 0x0 DUP1 PUSH1 0xE8 DUP4 SWAP1 SHR SWAP1 POP PUSH1 0xE8 PUSH3 0x6C6 DUP7 DUP7 DUP5 PUSH3 0x720 PUSH1 0x20 SHL PUSH1 0x20 SHR JUMP JUMPDEST PUSH3 0xFFFFFF AND SWAP1 SHL SWAP2 POP POP SWAP4 SWAP3 POP POP POP JUMP JUMPDEST PUSH1 0x0 PUSH1 0x1 DUP3 EQ PUSH1 0xE1 SHL SWAP1 POP SWAP2 SWAP1 POP JUMP JUMPDEST PUSH1 0x0 PUSH20 0xFFFFFFFFFFFFFFFFFFFFFFFFFFFFFFFFFFFFFFFF DUP4 AND SWAP3 POP DUP2 TIMESTAMP PUSH1 0xA0 SHL OR DUP4 OR SWAP1 POP SWAP3 SWAP2 POP POP JUMP JUMPDEST POP POP POP POP JUMP JUMPDEST PUSH1 0x0 CALLER SWAP1 POP SWAP1 JUMP JUMPDEST PUSH1 0x0 SWAP4 SWAP3 POP POP POP JUMP JUMPDEST DUP3 DUP1 SLOAD PUSH3 0x737 SWAP1 PUSH3 0x995 JUMP JUMPDEST SWAP1 PUSH1 0x0 MSTORE PUSH1 0x20 PUSH1 0x0 KECCAK256 SWAP1 PUSH1 0x1F ADD PUSH1 0x20 SWAP1 DIV DUP2 ADD SWAP3 DUP3 PUSH3 0x75B JUMPI PUSH1 0x0 DUP6 SSTORE PUSH3 0x7A7 JUMP JUMPDEST DUP3 PUSH1 0x1F LT PUSH3 0x776 JUMPI DUP1 MLOAD PUSH1 0xFF NOT AND DUP4 DUP1 ADD OR DUP6 SSTORE PUSH3 0x7A7 JUMP JUMPDEST DUP3 DUP1 ADD PUSH1 0x1 ADD DUP6 SSTORE DUP3 ISZERO PUSH3 0x7A7 JUMPI SWAP2 DUP3 ADD JUMPDEST DUP3 DUP2 GT ISZERO PUSH3 0x7A6 JUMPI DUP3 MLOAD DUP3 SSTORE SWAP2 PUSH1 0x20 ADD SWAP2 SWAP1 PUSH1 0x1 ADD SWAP1 PUSH3 0x789 JUMP JUMPDEST JUMPDEST POP SWAP1 POP PUSH3 0x7B6 SWAP2 SWAP1 PUSH3 0x7BA JUMP JUMPDEST POP SWAP1 JUMP JUMPDEST JUMPDEST DUP1 DUP3 GT ISZERO PUSH3 0x7D5 JUMPI PUSH1 0x0 DUP2 PUSH1 0x0 SWAP1 SSTORE POP PUSH1 0x1 ADD PUSH3 0x7BB JUMP JUMPDEST POP SWAP1 JUMP JUMPDEST PUSH1 0x0 DUP2 MLOAD SWAP1 POP PUSH3 0x7EA DUP2 PUSH3 0xA3F JUMP JUMPDEST SWAP3 SWAP2 POP POP JUMP JUMPDEST PUSH1 0x0 PUSH1 0x20 DUP3 DUP5 SUB SLT ISZERO PUSH3 0x809 JUMPI PUSH3 0x808 PUSH3 0xA29 JUMP JUMPDEST JUMPDEST PUSH1 0x0 PUSH3 0x819 DUP5 DUP3 DUP6 ADD PUSH3 0x7D9 JUMP JUMPDEST SWAP2 POP POP SWAP3 SWAP2 POP POP JUMP JUMPDEST PUSH3 0x82D DUP2 PUSH3 0x8F5 JUMP JUMPDEST DUP3 MSTORE POP POP JUMP JUMPDEST PUSH1 0x0 PUSH3 0x840 DUP3 PUSH3 0x8D9 JUMP JUMPDEST PUSH3 0x84C DUP2 DUP6 PUSH3 0x8E4 JUMP JUMPDEST SWAP4 POP PUSH3 0x85E DUP2 DUP6 PUSH1 0x20 DUP7 ADD PUSH3 0x95F JUMP JUMPDEST PUSH3 0x869 DUP2 PUSH3 0xA2E JUMP JUMPDEST DUP5 ADD SWAP2 POP POP SWAP3 SWAP2 POP POP JUMP JUMPDEST PUSH3 0x87F DUP2 PUSH3 0x955 JUMP JUMPDEST DUP3 MSTORE POP POP JUMP JUMPDEST PUSH1 0x0 PUSH1 0x80 DUP3 ADD SWAP1 POP PUSH3 0x89C PUSH1 0x0 DUP4 ADD DUP8 PUSH3 0x822 JUMP JUMPDEST PUSH3 0x8AB PUSH1 0x20 DUP4 ADD DUP7 PUSH3 0x822 JUMP JUMPDEST PUSH3 0x8BA PUSH1 0x40 DUP4 ADD DUP6 PUSH3 0x874 JUMP JUMPDEST DUP2 DUP2 SUB PUSH1 0x60 DUP4 ADD MSTORE PUSH3 0x8CE DUP2 DUP5 PUSH3 0x833 JUMP JUMPDEST SWAP1 POP SWAP6 SWAP5 POP POP POP POP POP JUMP JUMPDEST PUSH1 0x0 DUP2 MLOAD SWAP1 POP SWAP2 SWAP1 POP JUMP JUMPDEST PUSH1 0x0 DUP3 DUP3 MSTORE PUSH1 0x20 DUP3 ADD SWAP1 POP SWAP3 SWAP2 POP POP JUMP JUMPDEST PUSH1 0x0 PUSH3 0x902 DUP3 PUSH3 0x935 JUMP JUMPDEST SWAP1 POP SWAP2 SWAP1 POP JUMP JUMPDEST PUSH1 0x0 PUSH32 0xFFFFFFFF00000000000000000000000000000000000000000000000000000000 DUP3 AND SWAP1 POP SWAP2 SWAP1 POP JUMP JUMPDEST PUSH1 0x0 PUSH20 0xFFFFFFFFFFFFFFFFFFFFFFFFFFFFFFFFFFFFFFFF DUP3 AND SWAP1 POP SWAP2 SWAP1 POP JUMP JUMPDEST PUSH1 0x0 DUP2 SWAP1 POP SWAP2 SWAP1 POP JUMP JUMPDEST PUSH1 0x0 JUMPDEST DUP4 DUP2 LT ISZERO PUSH3 0x97F JUMPI DUP1 DUP3 ADD MLOAD DUP2 DUP5 ADD MSTORE PUSH1 0x20 DUP2 ADD SWAP1 POP PUSH3 0x962 JUMP JUMPDEST DUP4 DUP2 GT ISZERO PUSH3 0x98F JUMPI PUSH1 0x0 DUP5 DUP5 ADD MSTORE JUMPDEST POP POP POP POP JUMP JUMPDEST PUSH1 0x0 PUSH1 0x2 DUP3 DIV SWAP1 POP PUSH1 0x1 DUP3 AND DUP1 PUSH3 0x9AE JUMPI PUSH1 0x7F DUP3 AND SWAP2 POP JUMPDEST PUSH1 0x20 DUP3 LT DUP2 EQ ISZERO PUSH3 0x9C5 JUMPI PUSH3 0x9C4 PUSH3 0x9FA JUMP JUMPDEST JUMPDEST POP SWAP2 SWAP1 POP JUMP JUMPDEST PUSH32 0x4E487B7100000000000000000000000000000000000000000000000000000000 PUSH1 0x0 MSTORE PUSH1 0x21 PUSH1 0x4 MSTORE PUSH1 0x24 PUSH1 0x0 REVERT JUMPDEST PUSH32 0x4E487B7100000000000000000000000000000000000000000000000000000000 PUSH1 0x0 MSTORE PUSH1 0x22 PUSH1 0x4 MSTORE PUSH1 0x24 PUSH1 0x0 REVERT JUMPDEST PUSH1 0x0 DUP1 REVERT JUMPDEST PUSH1 0x0 PUSH1 0x1F NOT PUSH1 0x1F DUP4 ADD AND SWAP1 POP SWAP2 SWAP1 POP JUMP JUMPDEST PUSH3 0xA4A DUP2 PUSH3 0x909 JUMP JUMPDEST DUP2 EQ PUSH3 0xA56 JUMPI PUSH1 0x0 DUP1 REVERT JUMPDEST POP JUMP JUMPDEST PUSH2 0x39EA DUP1 PUSH3 0xA69 PUSH1 0x0 CODECOPY PUSH1 0x0 RETURN INVALID PUSH1 0x80 PUSH1 0x40 MSTORE PUSH1 0x4 CALLDATASIZE LT PUSH2 0x208 JUMPI PUSH1 0x0 CALLDATALOAD PUSH1 0xE0 SHR DUP1 PUSH4 0x70A08231 GT PUSH2 0x118 JUMPI DUP1 PUSH4 0xC30BF318 GT PUSH2 0xA0 JUMPI DUP1 PUSH4 0xE985E9C5 GT PUSH2 0x6F JUMPI DUP1 PUSH4 0xE985E9C5 EQ PUSH2 0x74C JUMPI DUP1 PUSH4 0xF2FDE38B EQ PUSH2 0x789 JUMPI DUP1 PUSH4 0xF365DDA8 EQ PUSH2 0x7B2 JUMPI DUP1 PUSH4 0xF5AA406D EQ PUSH2 0x7DB JUMPI DUP1 PUSH4 0xF5FB0123 EQ PUSH2 0x804 JUMPI PUSH2 0x23F JUMP JUMPDEST DUP1 PUSH4 0xC30BF318 EQ PUSH2 0x68B JUMPI DUP1 PUSH4 0xC3151FED EQ PUSH2 0x6A7 JUMPI DUP1 PUSH4 0xC87B56DD EQ PUSH2 0x6D2 JUMPI DUP1 PUSH4 0xD1B6DD30 EQ PUSH2 0x70F JUMPI PUSH2 0x23F JUMP JUMPDEST DUP1 PUSH4 0x8F5534BE GT PUSH2 0xE7 JUMPI DUP1 PUSH4 0x8F5534BE EQ PUSH2 0x5C9 JUMPI DUP1 PUSH4 0x95D89B41 EQ PUSH2 0x5F2 JUMPI DUP1 PUSH4 0x9D9E7A99 EQ PUSH2 0x61D JUMPI DUP1 PUSH4 0xA22CB465 EQ PUSH2 0x646 JUMPI DUP1 PUSH4 0xB88D4FDE EQ PUSH2 0x66F JUMPI PUSH2 0x23F JUMP JUMPDEST DUP1 PUSH4 0x70A08231 EQ PUSH2 0x51F JUMPI DUP1 PUSH4 0x715018A6 EQ PUSH2 0x55C JUMPI DUP1 PUSH4 0x88B4B7D6 EQ PUSH2 0x573 JUMPI DUP1 PUSH4 0x8DA5CB5B EQ PUSH2 0x59E JUMPI PUSH2 0x23F JUMP JUMPDEST DUP1 PUSH4 0x27FDA1A1 GT PUSH2 0x19B JUMPI DUP1 PUSH4 0x42842E0E GT PUSH2 0x16A JUMPI DUP1 PUSH4 0x42842E0E EQ PUSH2 0x456 JUMPI DUP1 PUSH4 0x55F804B3 EQ PUSH2 0x472 JUMPI DUP1 PUSH4 0x5C975ABB EQ PUSH2 0x49B JUMPI DUP1 PUSH4 0x614211E9 EQ PUSH2 0x4C6 JUMPI DUP1 PUSH4 0x6352211E EQ PUSH2 0x4E2 JUMPI PUSH2 0x23F JUMP JUMPDEST DUP1 PUSH4 0x27FDA1A1 EQ PUSH2 0x3C0 JUMPI DUP1 PUSH4 0x2A1D6190 EQ PUSH2 0x3EB JUMPI DUP1 PUSH4 0x31C07BBF EQ PUSH2 0x416 JUMPI DUP1 PUSH4 0x3CCFD60B EQ PUSH2 0x43F JUMPI PUSH2 0x23F JUMP JUMPDEST DUP1 PUSH4 0x17881CBF GT PUSH2 0x1D7 JUMPI DUP1 PUSH4 0x17881CBF EQ PUSH2 0x332 JUMPI DUP1 PUSH4 0x18160DDD EQ PUSH2 0x35D JUMPI DUP1 PUSH4 0x23B872DD EQ PUSH2 0x388 JUMPI DUP1 PUSH4 0x23CF0A22 EQ PUSH2 0x3A4 JUMPI PUSH2 0x23F JUMP JUMPDEST DUP1 PUSH4 0x1FFC9A7 EQ PUSH2 0x271 JUMPI DUP1 PUSH4 0x6FDDE03 EQ PUSH2 0x2AE JUMPI DUP1 PUSH4 0x81812FC EQ PUSH2 0x2D9 JUMPI DUP1 PUSH4 0x95EA7B3 EQ PUSH2 0x316 JUMPI PUSH2 0x23F JUMP JUMPDEST CALLDATASIZE PUSH2 0x23F JUMPI PUSH1 0x40 MLOAD PUSH32 0xD623472500000000000000000000000000000000000000000000000000000000 DUP2 MSTORE PUSH1 0x4 ADD PUSH1 0x40 MLOAD DUP1 SWAP2 SUB SWAP1 REVERT JUMPDEST PUSH1 0x40 MLOAD PUSH32 0xD623472500000000000000000000000000000000000000000000000000000000 DUP2 MSTORE PUSH1 0x4 ADD PUSH1 0x40 MLOAD DUP1 SWAP2 SUB SWAP1 REVERT JUMPDEST CALLVALUE DUP1 ISZERO PUSH2 0x27D JUMPI PUSH1 0x0 DUP1 REVERT JUMPDEST POP PUSH2 0x298 PUSH1 0x4 DUP1 CALLDATASIZE SUB DUP2 ADD SWAP1 PUSH2 0x293 SWAP2 SWAP1 PUSH2 0x2AE1 JUMP JUMPDEST PUSH2 0x82F JUMP JUMPDEST PUSH1 0x40 MLOAD PUSH2 0x2A5 SWAP2 SWAP1 PUSH2 0x2FFC JUMP JUMPDEST PUSH1 0x40 MLOAD DUP1 SWAP2 SUB SWAP1 RETURN JUMPDEST CALLVALUE DUP1 ISZERO PUSH2 0x2BA JUMPI PUSH1 0x0 DUP1 REVERT JUMPDEST POP PUSH2 0x2C3 PUSH2 0x8C1 JUMP JUMPDEST PUSH1 0x40 MLOAD PUSH2 0x2D0 SWAP2 SWAP1 PUSH2 0x304D JUMP JUMPDEST PUSH1 0x40 MLOAD DUP1 SWAP2 SUB SWAP1 RETURN JUMPDEST CALLVALUE DUP1 ISZERO PUSH2 0x2E5 JUMPI PUSH1 0x0 DUP1 REVERT JUMPDEST POP PUSH2 0x300 PUSH1 0x4 DUP1 CALLDATASIZE SUB DUP2 ADD SWAP1 PUSH2 0x2FB SWAP2 SWAP1 PUSH2 0x2BDE JUMP JUMPDEST PUSH2 0x953 JUMP JUMPDEST PUSH1 0x40 MLOAD PUSH2 0x30D SWAP2 SWAP1 PUSH2 0x2F1A JUMP JUMPDEST PUSH1 0x40 MLOAD DUP1 SWAP2 SUB SWAP1 RETURN JUMPDEST PUSH2 0x330 PUSH1 0x4 DUP1 CALLDATASIZE SUB DUP2 ADD SWAP1 PUSH2 0x32B SWAP2 SWAP1 PUSH2 0x29CF JUMP JUMPDEST PUSH2 0x9D2 JUMP JUMPDEST STOP JUMPDEST CALLVALUE DUP1 ISZERO PUSH2 0x33E JUMPI PUSH1 0x0 DUP1 REVERT JUMPDEST POP PUSH2 0x347 PUSH2 0xB16 JUMP JUMPDEST PUSH1 0x40 MLOAD PUSH2 0x354 SWAP2 SWAP1 PUSH2 0x3032 JUMP JUMPDEST PUSH1 0x40 MLOAD DUP1 SWAP2 SUB SWAP1 RETURN JUMPDEST CALLVALUE DUP1 ISZERO PUSH2 0x369 JUMPI PUSH1 0x0 DUP1 REVERT JUMPDEST POP PUSH2 0x372 PUSH2 0xB29 JUMP JUMPDEST PUSH1 0x40 MLOAD PUSH2 0x37F SWAP2 SWAP1 PUSH2 0x31CA JUMP JUMPDEST PUSH1 0x40 MLOAD DUP1 SWAP2 SUB SWAP1 RETURN JUMPDEST PUSH2 0x3A2 PUSH1 0x4 DUP1 CALLDATASIZE SUB DUP2 ADD SWAP1 PUSH2 0x39D SWAP2 SWAP1 PUSH2 0x28B9 JUMP JUMPDEST PUSH2 0xB40 JUMP JUMPDEST STOP JUMPDEST PUSH2 0x3BE PUSH1 0x4 DUP1 CALLDATASIZE SUB DUP2 ADD SWAP1 PUSH2 0x3B9 SWAP2 SWAP1 PUSH2 0x2BB1 JUMP JUMPDEST PUSH2 0xE65 JUMP JUMPDEST STOP JUMPDEST CALLVALUE DUP1 ISZERO PUSH2 0x3CC JUMPI PUSH1 0x0 DUP1 REVERT JUMPDEST POP PUSH2 0x3D5 PUSH2 0x1036 JUMP JUMPDEST PUSH1 0x40 MLOAD PUSH2 0x3E2 SWAP2 SWAP1 PUSH2 0x31CA JUMP JUMPDEST PUSH1 0x40 MLOAD DUP1 SWAP2 SUB SWAP1 RETURN JUMPDEST CALLVALUE DUP1 ISZERO PUSH2 0x3F7 JUMPI PUSH1 0x0 DUP1 REVERT JUMPDEST POP PUSH2 0x400 PUSH2 0x1041 JUMP JUMPDEST PUSH1 0x40 MLOAD PUSH2 0x40D SWAP2 SWAP1 PUSH2 0x3017 JUMP JUMPDEST PUSH1 0x40 MLOAD DUP1 SWAP2 SUB SWAP1 RETURN JUMPDEST CALLVALUE DUP1 ISZERO PUSH2 0x422 JUMPI PUSH1 0x0 DUP1 REVERT JUMPDEST POP PUSH2 0x43D PUSH1 0x4 DUP1 CALLDATASIZE SUB DUP2 ADD SWAP1 PUSH2 0x438 SWAP2 SWAP1 PUSH2 0x2B3B JUMP JUMPDEST PUSH2 0x1047 JUMP JUMPDEST STOP JUMPDEST CALLVALUE DUP1 ISZERO PUSH2 0x44B JUMPI PUSH1 0x0 DUP1 REVERT JUMPDEST POP PUSH2 0x454 PUSH2 0x107C JUMP JUMPDEST STOP JUMPDEST PUSH2 0x470 PUSH1 0x4 DUP1 CALLDATASIZE SUB DUP2 ADD SWAP1 PUSH2 0x46B SWAP2 SWAP1 PUSH2 0x28B9 JUMP JUMPDEST PUSH2 0x10D4 JUMP JUMPDEST STOP JUMPDEST CALLVALUE DUP1 ISZERO PUSH2 0x47E JUMPI PUSH1 0x0 DUP1 REVERT JUMPDEST POP PUSH2 0x499 PUSH1 0x4 DUP1 CALLDATASIZE SUB DUP2 ADD SWAP1 PUSH2 0x494 SWAP2 SWAP1 PUSH2 0x2B68 JUMP JUMPDEST PUSH2 0x10F4 JUMP JUMPDEST STOP JUMPDEST CALLVALUE DUP1 ISZERO PUSH2 0x4A7 JUMPI PUSH1 0x0 DUP1 REVERT JUMPDEST POP PUSH2 0x4B0 PUSH2 0x1116 JUMP JUMPDEST PUSH1 0x40 MLOAD PUSH2 0x4BD SWAP2 SWAP1 PUSH2 0x2FFC JUMP JUMPDEST PUSH1 0x40 MLOAD DUP1 SWAP2 SUB SWAP1 RETURN JUMPDEST PUSH2 0x4E0 PUSH1 0x4 DUP1 CALLDATASIZE SUB DUP2 ADD SWAP1 PUSH2 0x4DB SWAP2 SWAP1 PUSH2 0x2C0B JUMP JUMPDEST PUSH2 0x112D JUMP JUMPDEST STOP JUMPDEST CALLVALUE DUP1 ISZERO PUSH2 0x4EE JUMPI PUSH1 0x0 DUP1 REVERT JUMPDEST POP PUSH2 0x509 PUSH1 0x4 DUP1 CALLDATASIZE SUB DUP2 ADD SWAP1 PUSH2 0x504 SWAP2 SWAP1 PUSH2 0x2BDE JUMP JUMPDEST PUSH2 0x12EB JUMP JUMPDEST PUSH1 0x40 MLOAD PUSH2 0x516 SWAP2 SWAP1 PUSH2 0x2F1A JUMP JUMPDEST PUSH1 0x40 MLOAD DUP1 SWAP2 SUB SWAP1 RETURN JUMPDEST CALLVALUE DUP1 ISZERO PUSH2 0x52B JUMPI PUSH1 0x0 DUP1 REVERT JUMPDEST POP PUSH2 0x546 PUSH1 0x4 DUP1 CALLDATASIZE SUB DUP2 ADD SWAP1 PUSH2 0x541 SWAP2 SWAP1 PUSH2 0x27DD JUMP JUMPDEST PUSH2 0x12FD JUMP JUMPDEST PUSH1 0x40 MLOAD PUSH2 0x553 SWAP2 SWAP1 PUSH2 0x31CA JUMP JUMPDEST PUSH1 0x40 MLOAD DUP1 SWAP2 SUB SWAP1 RETURN JUMPDEST CALLVALUE DUP1 ISZERO PUSH2 0x568 JUMPI PUSH1 0x0 DUP1 REVERT JUMPDEST POP PUSH2 0x571 PUSH2 0x13B6 JUMP JUMPDEST STOP JUMPDEST CALLVALUE DUP1 ISZERO PUSH2 0x57F JUMPI PUSH1 0x0 DUP1 REVERT JUMPDEST POP PUSH2 0x588 PUSH2 0x13CA JUMP JUMPDEST PUSH1 0x40 MLOAD PUSH2 0x595 SWAP2 SWAP1 PUSH2 0x3017 JUMP JUMPDEST PUSH1 0x40 MLOAD DUP1 SWAP2 SUB SWAP1 RETURN JUMPDEST CALLVALUE DUP1 ISZERO PUSH2 0x5AA JUMPI PUSH1 0x0 DUP1 REVERT JUMPDEST POP PUSH2 0x5B3 PUSH2 0x13D0 JUMP JUMPDEST PUSH1 0x40 MLOAD PUSH2 0x5C0 SWAP2 SWAP1 PUSH2 0x2F1A JUMP JUMPDEST PUSH1 0x40 MLOAD DUP1 SWAP2 SUB SWAP1 RETURN JUMPDEST CALLVALUE DUP1 ISZERO PUSH2 0x5D5 JUMPI PUSH1 0x0 DUP1 REVERT JUMPDEST POP PUSH2 0x5F0 PUSH1 0x4 DUP1 CALLDATASIZE SUB DUP2 ADD SWAP1 PUSH2 0x5EB SWAP2 SWAP1 PUSH2 0x2A0F JUMP JUMPDEST PUSH2 0x13FA JUMP JUMPDEST STOP JUMPDEST CALLVALUE DUP1 ISZERO PUSH2 0x5FE JUMPI PUSH1 0x0 DUP1 REVERT JUMPDEST POP PUSH2 0x607 PUSH2 0x159F JUMP JUMPDEST PUSH1 0x40 MLOAD PUSH2 0x614 SWAP2 SWAP1 PUSH2 0x304D JUMP JUMPDEST PUSH1 0x40 MLOAD DUP1 SWAP2 SUB SWAP1 RETURN JUMPDEST CALLVALUE DUP1 ISZERO PUSH2 0x629 JUMPI PUSH1 0x0 DUP1 REVERT JUMPDEST POP PUSH2 0x644 PUSH1 0x4 DUP1 CALLDATASIZE SUB DUP2 ADD SWAP1 PUSH2 0x63F SWAP2 SWAP1 PUSH2 0x2AB4 JUMP JUMPDEST PUSH2 0x1631 JUMP JUMPDEST STOP JUMPDEST CALLVALUE DUP1 ISZERO PUSH2 0x652 JUMPI PUSH1 0x0 DUP1 REVERT JUMPDEST POP PUSH2 0x66D PUSH1 0x4 DUP1 CALLDATASIZE SUB DUP2 ADD SWAP1 PUSH2 0x668 SWAP2 SWAP1 PUSH2 0x298F JUMP JUMPDEST PUSH2 0x1643 JUMP JUMPDEST STOP JUMPDEST PUSH2 0x689 PUSH1 0x4 DUP1 CALLDATASIZE SUB DUP2 ADD SWAP1 PUSH2 0x684 SWAP2 SWAP1 PUSH2 0x290C JUMP JUMPDEST PUSH2 0x174E JUMP JUMPDEST STOP JUMPDEST PUSH2 0x6A5 PUSH1 0x4 DUP1 CALLDATASIZE SUB DUP2 ADD SWAP1 PUSH2 0x6A0 SWAP2 SWAP1 PUSH2 0x2A58 JUMP JUMPDEST PUSH2 0x17C1 JUMP JUMPDEST STOP JUMPDEST CALLVALUE DUP1 ISZERO PUSH2 0x6B3 JUMPI PUSH1 0x0 DUP1 REVERT JUMPDEST POP PUSH2 0x6BC PUSH2 0x1953 JUMP JUMPDEST PUSH1 0x40 MLOAD PUSH2 0x6C9 SWAP2 SWAP1 PUSH2 0x31CA JUMP JUMPDEST PUSH1 0x40 MLOAD DUP1 SWAP2 SUB SWAP1 RETURN JUMPDEST CALLVALUE DUP1 ISZERO PUSH2 0x6DE JUMPI PUSH1 0x0 DUP1 REVERT JUMPDEST POP PUSH2 0x6F9 PUSH1 0x4 DUP1 CALLDATASIZE SUB DUP2 ADD SWAP1 PUSH2 0x6F4 SWAP2 SWAP1 PUSH2 0x2BDE JUMP JUMPDEST PUSH2 0x195E JUMP JUMPDEST PUSH1 0x40 MLOAD PUSH2 0x706 SWAP2 SWAP1 PUSH2 0x304D JUMP JUMPDEST PUSH1 0x40 MLOAD DUP1 SWAP2 SUB SWAP1 RETURN JUMPDEST CALLVALUE DUP1 ISZERO PUSH2 0x71B JUMPI PUSH1 0x0 DUP1 REVERT JUMPDEST POP PUSH2 0x736 PUSH1 0x4 DUP1 CALLDATASIZE SUB DUP2 ADD SWAP1 PUSH2 0x731 SWAP2 SWAP1 PUSH2 0x27DD JUMP JUMPDEST PUSH2 0x19FD JUMP JUMPDEST PUSH1 0x40 MLOAD PUSH2 0x743 SWAP2 SWAP1 PUSH2 0x2FFC JUMP JUMPDEST PUSH1 0x40 MLOAD DUP1 SWAP2 SUB SWAP1 RETURN JUMPDEST CALLVALUE DUP1 ISZERO PUSH2 0x758 JUMPI PUSH1 0x0 DUP1 REVERT JUMPDEST POP PUSH2 0x773 PUSH1 0x4 DUP1 CALLDATASIZE SUB DUP2 ADD SWAP1 PUSH2 0x76E SWAP2 SWAP1 PUSH2 0x280A JUMP JUMPDEST PUSH2 0x1A1D JUMP JUMPDEST PUSH1 0x40 MLOAD PUSH2 0x780 SWAP2 SWAP1 PUSH2 0x2FFC JUMP JUMPDEST PUSH1 0x40 MLOAD DUP1 SWAP2 SUB SWAP1 RETURN JUMPDEST CALLVALUE DUP1 ISZERO PUSH2 0x795 JUMPI PUSH1 0x0 DUP1 REVERT JUMPDEST POP PUSH2 0x7B0 PUSH1 0x4 DUP1 CALLDATASIZE SUB DUP2 ADD SWAP1 PUSH2 0x7AB SWAP2 SWAP1 PUSH2 0x27DD JUMP JUMPDEST PUSH2 0x1AB1 JUMP JUMPDEST STOP JUMPDEST CALLVALUE DUP1 ISZERO PUSH2 0x7BE JUMPI PUSH1 0x0 DUP1 REVERT JUMPDEST POP PUSH2 0x7D9 PUSH1 0x4 DUP1 CALLDATASIZE SUB DUP2 ADD SWAP1 PUSH2 0x7D4 SWAP2 SWAP1 PUSH2 0x284A JUMP JUMPDEST PUSH2 0x1B35 JUMP JUMPDEST STOP JUMPDEST CALLVALUE DUP1 ISZERO PUSH2 0x7E7 JUMPI PUSH1 0x0 DUP1 REVERT JUMPDEST POP PUSH2 0x802 PUSH1 0x4 DUP1 CALLDATASIZE SUB DUP2 ADD SWAP1 PUSH2 0x7FD SWAP2 SWAP1 PUSH2 0x2AB4 JUMP JUMPDEST PUSH2 0x1B7F JUMP JUMPDEST STOP JUMPDEST CALLVALUE DUP1 ISZERO PUSH2 0x810 JUMPI PUSH1 0x0 DUP1 REVERT JUMPDEST POP PUSH2 0x819 PUSH2 0x1B91 JUMP JUMPDEST PUSH1 0x40 MLOAD PUSH2 0x826 SWAP2 SWAP1 PUSH2 0x31AF JUMP JUMPDEST PUSH1 0x40 MLOAD DUP1 SWAP2 SUB SWAP1 RETURN JUMPDEST PUSH1 0x0 PUSH4 0x1FFC9A7 PUSH1 0xE0 SHL DUP3 PUSH28 0xFFFFFFFFFFFFFFFFFFFFFFFFFFFFFFFFFFFFFFFFFFFFFFFFFFFFFFFF NOT AND EQ DUP1 PUSH2 0x88A JUMPI POP PUSH4 0x80AC58CD PUSH1 0xE0 SHL DUP3 PUSH28 0xFFFFFFFFFFFFFFFFFFFFFFFFFFFFFFFFFFFFFFFFFFFFFFFFFFFFFFFF NOT AND EQ JUMPDEST DUP1 PUSH2 0x8BA JUMPI POP PUSH4 0x5B5E139F PUSH1 0xE0 SHL DUP3 PUSH28 0xFFFFFFFFFFFFFFFFFFFFFFFFFFFFFFFFFFFFFFFFFFFFFFFFFFFFFFFF NOT AND EQ JUMPDEST SWAP1 POP SWAP2 SWAP1 POP JUMP JUMPDEST PUSH1 0x60 PUSH1 0x2 DUP1 SLOAD PUSH2 0x8D0 SWAP1 PUSH2 0x34FF JUMP JUMPDEST DUP1 PUSH1 0x1F ADD PUSH1 0x20 DUP1 SWAP2 DIV MUL PUSH1 0x20 ADD PUSH1 0x40 MLOAD SWAP1 DUP2 ADD PUSH1 0x40 MSTORE DUP1 SWAP3 SWAP2 SWAP1 DUP2 DUP2 MSTORE PUSH1 0x20 ADD DUP3 DUP1 SLOAD PUSH2 0x8FC SWAP1 PUSH2 0x34FF JUMP JUMPDEST DUP1 ISZERO PUSH2 0x949 JUMPI DUP1 PUSH1 0x1F LT PUSH2 0x91E JUMPI PUSH2 0x100 DUP1 DUP4 SLOAD DIV MUL DUP4 MSTORE SWAP2 PUSH1 0x20 ADD SWAP2 PUSH2 0x949 JUMP JUMPDEST DUP3 ADD SWAP2 SWAP1 PUSH1 0x0 MSTORE PUSH1 0x20 PUSH1 0x0 KECCAK256 SWAP1 JUMPDEST DUP2 SLOAD DUP2 MSTORE SWAP1 PUSH1 0x1 ADD SWAP1 PUSH1 0x20 ADD DUP1 DUP4 GT PUSH2 0x92C JUMPI DUP3 SWAP1 SUB PUSH1 0x1F AND DUP3 ADD SWAP2 JUMPDEST POP POP POP POP POP SWAP1 POP SWAP1 JUMP JUMPDEST PUSH1 0x0 PUSH2 0x95E DUP3 PUSH2 0x1B97 JUMP JUMPDEST PUSH2 0x994 JUMPI PUSH1 0x40 MLOAD PUSH32 0xCF4700E400000000000000000000000000000000000000000000000000000000 DUP2 MSTORE PUSH1 0x4 ADD PUSH1 0x40 MLOAD DUP1 SWAP2 SUB SWAP1 REVERT JUMPDEST PUSH1 0x6 PUSH1 0x0 DUP4 DUP2 MSTORE PUSH1 0x20 ADD SWAP1 DUP2 MSTORE PUSH1 0x20 ADD PUSH1 0x0 KECCAK256 PUSH1 0x0 ADD PUSH1 0x0 SWAP1 SLOAD SWAP1 PUSH2 0x100 EXP SWAP1 DIV PUSH20 0xFFFFFFFFFFFFFFFFFFFFFFFFFFFFFFFFFFFFFFFF AND SWAP1 POP SWAP2 SWAP1 POP JUMP JUMPDEST PUSH1 0x0 PUSH2 0x9DD DUP3 PUSH2 0x12EB JUMP JUMPDEST SWAP1 POP DUP1 PUSH20 0xFFFFFFFFFFFFFFFFFFFFFFFFFFFFFFFFFFFFFFFF AND PUSH2 0x9FE PUSH2 0x1BF6 JUMP JUMPDEST PUSH20 0xFFFFFFFFFFFFFFFFFFFFFFFFFFFFFFFFFFFFFFFF AND EQ PUSH2 0xA61 JUMPI PUSH2 0xA2A DUP2 PUSH2 0xA25 PUSH2 0x1BF6 JUMP JUMPDEST PUSH2 0x1A1D JUMP JUMPDEST PUSH2 0xA60 JUMPI PUSH1 0x40 MLOAD PUSH32 0xCFB3B94200000000000000000000000000000000000000000000000000000000 DUP2 MSTORE PUSH1 0x4 ADD PUSH1 0x40 MLOAD DUP1 SWAP2 SUB SWAP1 REVERT JUMPDEST JUMPDEST DUP3 PUSH1 0x6 PUSH1 0x0 DUP5 DUP2 MSTORE PUSH1 0x20 ADD SWAP1 DUP2 MSTORE PUSH1 0x20 ADD PUSH1 0x0 KECCAK256 PUSH1 0x0 ADD PUSH1 0x0 PUSH2 0x100 EXP DUP2 SLOAD DUP2 PUSH20 0xFFFFFFFFFFFFFFFFFFFFFFFFFFFFFFFFFFFFFFFF MUL NOT AND SWAP1 DUP4 PUSH20 0xFFFFFFFFFFFFFFFFFFFFFFFFFFFFFFFFFFFFFFFF AND MUL OR SWAP1 SSTORE POP DUP2 DUP4 PUSH20 0xFFFFFFFFFFFFFFFFFFFFFFFFFFFFFFFFFFFFFFFF AND DUP3 PUSH20 0xFFFFFFFFFFFFFFFFFFFFFFFFFFFFFFFFFFFFFFFF AND PUSH32 0x8C5BE1E5EBEC7D5BD14F71427D1E84F3DD0314C0F7B2291E5B200AC8C7C3B925 PUSH1 0x40 MLOAD PUSH1 0x40 MLOAD DUP1 SWAP2 SUB SWAP1 LOG4 POP POP POP JUMP JUMPDEST PUSH1 0x8 PUSH1 0x15 SWAP1 SLOAD SWAP1 PUSH2 0x100 EXP SWAP1 DIV PUSH1 0xFF AND DUP2 JUMP JUMPDEST PUSH1 0x0 PUSH2 0xB33 PUSH2 0x1BFE JUMP JUMPDEST PUSH1 0x1 SLOAD PUSH1 0x0 SLOAD SUB SUB SWAP1 POP SWAP1 JUMP JUMPDEST PUSH1 0x0 PUSH2 0xB4B DUP3 PUSH2 0x1C07 JUMP JUMPDEST SWAP1 POP DUP4 PUSH20 0xFFFFFFFFFFFFFFFFFFFFFFFFFFFFFFFFFFFFFFFF AND DUP2 PUSH20 0xFFFFFFFFFFFFFFFFFFFFFFFFFFFFFFFFFFFFFFFF AND EQ PUSH2 0xBB2 JUMPI PUSH1 0x40 MLOAD PUSH32 0xA114810000000000000000000000000000000000000000000000000000000000 DUP2 MSTORE PUSH1 0x4 ADD PUSH1 0x40 MLOAD DUP1 SWAP2 SUB SWAP1 REVERT JUMPDEST PUSH1 0x0 DUP1 PUSH2 0xBBE DUP5 PUSH2 0x1CD5 JUMP JUMPDEST SWAP2 POP SWAP2 POP PUSH2 0xBD4 DUP2 DUP8 PUSH2 0xBCF PUSH2 0x1BF6 JUMP JUMPDEST PUSH2 0x1CFC JUMP JUMPDEST PUSH2 0xC20 JUMPI PUSH2 0xBE9 DUP7 PUSH2 0xBE4 PUSH2 0x1BF6 JUMP JUMPDEST PUSH2 0x1A1D JUMP JUMPDEST PUSH2 0xC1F JUMPI PUSH1 0x40 MLOAD PUSH32 0x59C896BE00000000000000000000000000000000000000000000000000000000 DUP2 MSTORE PUSH1 0x4 ADD PUSH1 0x40 MLOAD DUP1 SWAP2 SUB SWAP1 REVERT JUMPDEST JUMPDEST PUSH1 0x0 PUSH20 0xFFFFFFFFFFFFFFFFFFFFFFFFFFFFFFFFFFFFFFFF AND DUP6 PUSH20 0xFFFFFFFFFFFFFFFFFFFFFFFFFFFFFFFFFFFFFFFF AND EQ ISZERO PUSH2 0xC87 JUMPI PUSH1 0x40 MLOAD PUSH32 0xEA553B3400000000000000000000000000000000000000000000000000000000 DUP2 MSTORE PUSH1 0x4 ADD PUSH1 0x40 MLOAD DUP1 SWAP2 SUB SWAP1 REVERT JUMPDEST PUSH2 0xC94 DUP7 DUP7 DUP7 PUSH1 0x1 PUSH2 0x1D40 JUMP JUMPDEST DUP1 ISZERO PUSH2 0xC9F JUMPI PUSH1 0x0 DUP3 SSTORE JUMPDEST PUSH1 0x5 PUSH1 0x0 DUP8 PUSH20 0xFFFFFFFFFFFFFFFFFFFFFFFFFFFFFFFFFFFFFFFF AND PUSH20 0xFFFFFFFFFFFFFFFFFFFFFFFFFFFFFFFFFFFFFFFF AND DUP2 MSTORE PUSH1 0x20 ADD SWAP1 DUP2 MSTORE PUSH1 0x20 ADD PUSH1 0x0 KECCAK256 PUSH1 0x0 DUP2 SLOAD PUSH1 0x1 SWAP1 SUB SWAP2 SWAP1 POP DUP2 SWAP1 SSTORE POP PUSH1 0x5 PUSH1 0x0 DUP7 PUSH20 0xFFFFFFFFFFFFFFFFFFFFFFFFFFFFFFFFFFFFFFFF AND PUSH20 0xFFFFFFFFFFFFFFFFFFFFFFFFFFFFFFFFFFFFFFFF AND DUP2 MSTORE PUSH1 0x20 ADD SWAP1 DUP2 MSTORE PUSH1 0x20 ADD PUSH1 0x0 KECCAK256 PUSH1 0x0 DUP2 SLOAD PUSH1 0x1 ADD SWAP2 SWAP1 POP DUP2 SWAP1 SSTORE POP PUSH2 0xD6D DUP6 PUSH2 0xD49 DUP9 DUP9 DUP8 PUSH2 0x1D46 JUMP JUMPDEST PUSH29 0x200000000000000000000000000000000000000000000000000000000 OR PUSH2 0x1D6E JUMP JUMPDEST PUSH1 0x4 PUSH1 0x0 DUP7 DUP2 MSTORE PUSH1 0x20 ADD SWAP1 DUP2 MSTORE PUSH1 0x20 ADD PUSH1 0x0 KECCAK256 DUP2 SWAP1 SSTORE POP PUSH1 0x0 PUSH29 0x200000000000000000000000000000000000000000000000000000000 DUP5 AND EQ ISZERO PUSH2 0xDF5 JUMPI PUSH1 0x0 PUSH1 0x1 DUP6 ADD SWAP1 POP PUSH1 0x0 PUSH1 0x4 PUSH1 0x0 DUP4 DUP2 MSTORE PUSH1 0x20 ADD SWAP1 DUP2 MSTORE PUSH1 0x20 ADD PUSH1 0x0 KECCAK256 SLOAD EQ ISZERO PUSH2 0xDF3 JUMPI PUSH1 0x0 SLOAD DUP2 EQ PUSH2 0xDF2 JUMPI DUP4 PUSH1 0x4 PUSH1 0x0 DUP4 DUP2 MSTORE PUSH1 0x20 ADD SWAP1 DUP2 MSTORE PUSH1 0x20 ADD PUSH1 0x0 KECCAK256 DUP2 SWAP1 SSTORE POP JUMPDEST JUMPDEST POP JUMPDEST DUP4 DUP6 PUSH20 0xFFFFFFFFFFFFFFFFFFFFFFFFFFFFFFFFFFFFFFFF AND DUP8 PUSH20 0xFFFFFFFFFFFFFFFFFFFFFFFFFFFFFFFFFFFFFFFF AND PUSH32 0xDDF252AD1BE2C89B69C2B068FC378DAA952BA7F163C4A11628F55A4DF523B3EF PUSH1 0x40 MLOAD PUSH1 0x40 MLOAD DUP1 SWAP2 SUB SWAP1 LOG4 PUSH2 0xE5D DUP7 DUP7 DUP7 PUSH1 0x1 PUSH2 0x1D99 JUMP JUMPDEST POP POP POP POP POP POP JUMP JUMPDEST PUSH1 0x2 DUP1 PUSH1 0x2 DUP2 GT ISZERO PUSH2 0xE7A JUMPI PUSH2 0xE79 PUSH2 0x362D JUMP JUMPDEST JUMPDEST PUSH1 0x8 PUSH1 0x15 SWAP1 SLOAD SWAP1 PUSH2 0x100 EXP SWAP1 DIV PUSH1 0xFF AND PUSH1 0x2 DUP2 GT ISZERO PUSH2 0xE9C JUMPI PUSH2 0xE9B PUSH2 0x362D JUMP JUMPDEST JUMPDEST EQ PUSH2 0xEDC JUMPI PUSH1 0x40 MLOAD PUSH32 0x8C379A000000000000000000000000000000000000000000000000000000000 DUP2 MSTORE PUSH1 0x4 ADD PUSH2 0xED3 SWAP1 PUSH2 0x316F JUMP JUMPDEST PUSH1 0x40 MLOAD DUP1 SWAP2 SUB SWAP1 REVERT JUMPDEST DUP2 PUSH2 0xFFFF AND PUSH2 0x1E61 PUSH2 0xFFFF AND PUSH2 0xEF0 PUSH2 0xB29 JUMP JUMPDEST LT PUSH2 0xF30 JUMPI PUSH1 0x40 MLOAD PUSH32 0x8C379A000000000000000000000000000000000000000000000000000000000 DUP2 MSTORE PUSH1 0x4 ADD PUSH2 0xF27 SWAP1 PUSH2 0x30EF JUMP JUMPDEST PUSH1 0x40 MLOAD DUP1 SWAP2 SUB SWAP1 REVERT JUMPDEST PUSH2 0x1E61 PUSH2 0xFFFF AND DUP2 PUSH2 0xF40 PUSH2 0xB29 JUMP JUMPDEST PUSH2 0xF4A SWAP2 SWAP1 PUSH2 0x3307 JUMP JUMPDEST GT ISZERO PUSH2 0xF8B JUMPI PUSH1 0x40 MLOAD PUSH32 0x8C379A000000000000000000000000000000000000000000000000000000000 DUP2 MSTORE PUSH1 0x4 ADD PUSH2 0xF82 SWAP1 PUSH2 0x310F JUMP JUMPDEST PUSH1 0x40 MLOAD DUP1 SWAP2 SUB SWAP1 REVERT JUMPDEST PUSH1 0x0 PUSH7 0xB1A2BC2EC50000 DUP5 PUSH2 0xFFFF AND PUSH2 0xFA4 SWAP2 SWAP1 PUSH2 0x338E JUMP JUMPDEST SWAP1 POP DUP1 CALLVALUE LT ISZERO PUSH2 0xFE9 JUMPI PUSH1 0x40 MLOAD PUSH32 0x8C379A000000000000000000000000000000000000000000000000000000000 DUP2 MSTORE PUSH1 0x4 ADD PUSH2 0xFE0 SWAP1 PUSH2 0x314F JUMP JUMPDEST PUSH1 0x40 MLOAD DUP1 SWAP2 SUB SWAP1 REVERT JUMPDEST PUSH2 0xFF7 CALLER DUP6 PUSH2 0xFFFF AND PUSH2 0x1D9F JUMP JUMPDEST PUSH32 0xFFB7C4F70972AFCD047A01A8F7A1DACB3BC21748B5BEEEDD676C53205D728B25 CALLER DUP6 PUSH1 0x40 MLOAD PUSH2 0x1028 SWAP3 SWAP2 SWAP1 PUSH2 0x2FAA JUMP JUMPDEST PUSH1 0x40 MLOAD DUP1 SWAP2 SUB SWAP1 LOG1 POP POP POP POP JUMP JUMPDEST PUSH7 0x58D15E17628000 DUP2 JUMP JUMPDEST PUSH1 0xB SLOAD DUP2 JUMP JUMPDEST PUSH2 0x104F PUSH2 0x1DBD JUMP JUMPDEST DUP1 PUSH1 0x8 PUSH1 0x15 PUSH2 0x100 EXP DUP2 SLOAD DUP2 PUSH1 0xFF MUL NOT AND SWAP1 DUP4 PUSH1 0x2 DUP2 GT ISZERO PUSH2 0x1074 JUMPI PUSH2 0x1073 PUSH2 0x362D JUMP JUMPDEST JUMPDEST MUL OR SWAP1 SSTORE POP POP JUMP JUMPDEST PUSH2 0x1084 PUSH2 0x1DBD JUMP JUMPDEST PUSH2 0x108C PUSH2 0x13D0 JUMP JUMPDEST PUSH20 0xFFFFFFFFFFFFFFFFFFFFFFFFFFFFFFFFFFFFFFFF AND PUSH2 0x8FC SELFBALANCE SWAP1 DUP2 ISZERO MUL SWAP1 PUSH1 0x40 MLOAD PUSH1 0x0 PUSH1 0x40 MLOAD DUP1 DUP4 SUB DUP2 DUP6 DUP9 DUP9 CALL SWAP4 POP POP POP POP ISZERO DUP1 ISZERO PUSH2 0x10D1 JUMPI RETURNDATASIZE PUSH1 0x0 DUP1 RETURNDATACOPY RETURNDATASIZE PUSH1 0x0 REVERT JUMPDEST POP JUMP JUMPDEST PUSH2 0x10EF DUP4 DUP4 DUP4 PUSH1 0x40 MLOAD DUP1 PUSH1 0x20 ADD PUSH1 0x40 MSTORE DUP1 PUSH1 0x0 DUP2 MSTORE POP PUSH2 0x174E JUMP JUMPDEST POP POP POP JUMP JUMPDEST PUSH2 0x10FC PUSH2 0x1DBD JUMP JUMPDEST DUP1 PUSH1 0x9 SWAP1 DUP1 MLOAD SWAP1 PUSH1 0x20 ADD SWAP1 PUSH2 0x1112 SWAP3 SWAP2 SWAP1 PUSH2 0x2476 JUMP JUMPDEST POP POP JUMP JUMPDEST PUSH1 0x0 PUSH1 0x8 PUSH1 0x14 SWAP1 SLOAD SWAP1 PUSH2 0x100 EXP SWAP1 DIV PUSH1 0xFF AND SWAP1 POP SWAP1 JUMP JUMPDEST PUSH1 0x2 DUP1 PUSH1 0x2 DUP2 GT ISZERO PUSH2 0x1142 JUMPI PUSH2 0x1141 PUSH2 0x362D JUMP JUMPDEST JUMPDEST PUSH1 0x8 PUSH1 0x15 SWAP1 SLOAD SWAP1 PUSH2 0x100 EXP SWAP1 DIV PUSH1 0xFF AND PUSH1 0x2 DUP2 GT ISZERO PUSH2 0x1164 JUMPI PUSH2 0x1163 PUSH2 0x362D JUMP JUMPDEST JUMPDEST EQ PUSH2 0x11A4 JUMPI PUSH1 0x40 MLOAD PUSH32 0x8C379A000000000000000000000000000000000000000000000000000000000 DUP2 MSTORE PUSH1 0x4 ADD PUSH2 0x119B SWAP1 PUSH2 0x316F JUMP JUMPDEST PUSH1 0x40 MLOAD DUP1 SWAP2 SUB SWAP1 REVERT JUMPDEST PUSH1 0x0 PUSH2 0x11AF DUP4 PUSH2 0x12FD JUMP JUMPDEST GT PUSH2 0x11EF JUMPI PUSH1 0x40 MLOAD PUSH32 0x8C379A000000000000000000000000000000000000000000000000000000000 DUP2 MSTORE PUSH1 0x4 ADD PUSH2 0x11E6 SWAP1 PUSH2 0x30AF JUMP JUMPDEST PUSH1 0x40 MLOAD DUP1 SWAP2 SUB SWAP1 REVERT JUMPDEST PUSH1 0x0 PUSH1 0x64 PUSH1 0x5F DUP6 PUSH7 0xB1A2BC2EC50000 PUSH2 0x1208 SWAP2 SWAP1 PUSH2 0x338E JUMP JUMPDEST PUSH2 0x1212 SWAP2 SWAP1 PUSH2 0x338E JUMP JUMPDEST PUSH2 0x121C SWAP2 SWAP1 PUSH2 0x335D JUMP JUMPDEST SWAP1 POP PUSH1 0x0 PUSH1 0x64 PUSH1 0x5 DUP7 PUSH7 0xB1A2BC2EC50000 PUSH2 0x1237 SWAP2 SWAP1 PUSH2 0x338E JUMP JUMPDEST PUSH2 0x1241 SWAP2 SWAP1 PUSH2 0x338E JUMP JUMPDEST PUSH2 0x124B SWAP2 SWAP1 PUSH2 0x335D JUMP JUMPDEST SWAP1 POP DUP2 CALLVALUE LT ISZERO PUSH2 0x125A JUMPI PUSH1 0x0 DUP1 REVERT JUMPDEST PUSH2 0x1264 CALLER DUP7 PUSH2 0x1D9F JUMP JUMPDEST PUSH32 0xFFB7C4F70972AFCD047A01A8F7A1DACB3BC21748B5BEEEDD676C53205D728B25 CALLER DUP7 PUSH1 0x40 MLOAD PUSH2 0x1295 SWAP3 SWAP2 SWAP1 PUSH2 0x2FD3 JUMP JUMPDEST PUSH1 0x40 MLOAD DUP1 SWAP2 SUB SWAP1 LOG1 DUP4 PUSH20 0xFFFFFFFFFFFFFFFFFFFFFFFFFFFFFFFFFFFFFFFF AND PUSH2 0x8FC DUP3 SWAP1 DUP2 ISZERO MUL SWAP1 PUSH1 0x40 MLOAD PUSH1 0x0 PUSH1 0x40 MLOAD DUP1 DUP4 SUB DUP2 DUP6 DUP9 DUP9 CALL SWAP4 POP POP POP POP ISZERO DUP1 ISZERO PUSH2 0x12E3 JUMPI RETURNDATASIZE PUSH1 0x0 DUP1 RETURNDATACOPY RETURNDATASIZE PUSH1 0x0 REVERT JUMPDEST POP POP POP POP POP POP JUMP JUMPDEST PUSH1 0x0 PUSH2 0x12F6 DUP3 PUSH2 0x1C07 JUMP JUMPDEST SWAP1 POP SWAP2 SWAP1 POP JUMP JUMPDEST PUSH1 0x0 DUP1 PUSH20 0xFFFFFFFFFFFFFFFFFFFFFFFFFFFFFFFFFFFFFFFF AND DUP3 PUSH20 0xFFFFFFFFFFFFFFFFFFFFFFFFFFFFFFFFFFFFFFFF AND EQ ISZERO PUSH2 0x1365 JUMPI PUSH1 0x40 MLOAD PUSH32 0x8F4EB60400000000000000000000000000000000000000000000000000000000 DUP2 MSTORE PUSH1 0x4 ADD PUSH1 0x40 MLOAD DUP1 SWAP2 SUB SWAP1 REVERT JUMPDEST PUSH8 0xFFFFFFFFFFFFFFFF PUSH1 0x5 PUSH1 0x0 DUP5 PUSH20 0xFFFFFFFFFFFFFFFFFFFFFFFFFFFFFFFFFFFFFFFF AND PUSH20 0xFFFFFFFFFFFFFFFFFFFFFFFFFFFFFFFFFFFFFFFF AND DUP2 MSTORE PUSH1 0x20 ADD SWAP1 DUP2 MSTORE PUSH1 0x20 ADD PUSH1 0x0 KECCAK256 SLOAD AND SWAP1 POP SWAP2 SWAP1 POP JUMP JUMPDEST PUSH2 0x13BE PUSH2 0x1DBD JUMP JUMPDEST PUSH2 0x13C8 PUSH1 0x0 PUSH2 0x1E3B JUMP JUMPDEST JUMP JUMPDEST PUSH1 0xA SLOAD DUP2 JUMP JUMPDEST PUSH1 0x0 PUSH1 0x8 PUSH1 0x0 SWAP1 SLOAD SWAP1 PUSH2 0x100 EXP SWAP1 DIV PUSH20 0xFFFFFFFFFFFFFFFFFFFFFFFFFFFFFFFFFFFFFFFF AND SWAP1 POP SWAP1 JUMP JUMPDEST PUSH1 0x0 CALLER PUSH1 0x40 MLOAD PUSH1 0x20 ADD PUSH2 0x140D SWAP2 SWAP1 PUSH2 0x2EDB JUMP JUMPDEST PUSH1 0x40 MLOAD PUSH1 0x20 DUP2 DUP4 SUB SUB DUP2 MSTORE SWAP1 PUSH1 0x40 MSTORE DUP1 MLOAD SWAP1 PUSH1 0x20 ADD KECCAK256 SWAP1 POP PUSH2 0x1432 DUP3 PUSH1 0xA SLOAD DUP4 PUSH2 0x1F01 JUMP JUMPDEST PUSH2 0x1471 JUMPI PUSH1 0x40 MLOAD PUSH32 0x8C379A000000000000000000000000000000000000000000000000000000000 DUP2 MSTORE PUSH1 0x4 ADD PUSH2 0x1468 SWAP1 PUSH2 0x30CF JUMP JUMPDEST PUSH1 0x40 MLOAD DUP1 SWAP2 SUB SWAP1 REVERT JUMPDEST PUSH1 0xC PUSH1 0x0 CALLER PUSH20 0xFFFFFFFFFFFFFFFFFFFFFFFFFFFFFFFFFFFFFFFF AND PUSH20 0xFFFFFFFFFFFFFFFFFFFFFFFFFFFFFFFFFFFFFFFF AND DUP2 MSTORE PUSH1 0x20 ADD SWAP1 DUP2 MSTORE PUSH1 0x20 ADD PUSH1 0x0 KECCAK256 PUSH1 0x0 SWAP1 SLOAD SWAP1 PUSH2 0x100 EXP SWAP1 DIV PUSH1 0xFF AND ISZERO PUSH2 0x14FE JUMPI PUSH1 0x40 MLOAD PUSH32 0x8C379A000000000000000000000000000000000000000000000000000000000 DUP2 MSTORE PUSH1 0x4 ADD PUSH2 0x14F5 SWAP1 PUSH2 0x318F JUMP JUMPDEST PUSH1 0x40 MLOAD DUP1 SWAP2 SUB SWAP1 REVERT JUMPDEST PUSH2 0x1509 CALLER PUSH1 0x1 PUSH2 0x1D9F JUMP JUMPDEST PUSH1 0x1 PUSH1 0xC PUSH1 0x0 CALLER PUSH20 0xFFFFFFFFFFFFFFFFFFFFFFFFFFFFFFFFFFFFFFFF AND PUSH20 0xFFFFFFFFFFFFFFFFFFFFFFFFFFFFFFFFFFFFFFFF AND DUP2 MSTORE PUSH1 0x20 ADD SWAP1 DUP2 MSTORE PUSH1 0x20 ADD PUSH1 0x0 KECCAK256 PUSH1 0x0 PUSH2 0x100 EXP DUP2 SLOAD DUP2 PUSH1 0xFF MUL NOT AND SWAP1 DUP4 ISZERO ISZERO MUL OR SWAP1 SSTORE POP PUSH32 0xFFB7C4F70972AFCD047A01A8F7A1DACB3BC21748B5BEEEDD676C53205D728B25 CALLER PUSH1 0x1 PUSH1 0x40 MLOAD PUSH2 0x1593 SWAP3 SWAP2 SWAP1 PUSH2 0x2F81 JUMP JUMPDEST PUSH1 0x40 MLOAD DUP1 SWAP2 SUB SWAP1 LOG1 POP POP JUMP JUMPDEST PUSH1 0x60 PUSH1 0x3 DUP1 SLOAD PUSH2 0x15AE SWAP1 PUSH2 0x34FF JUMP JUMPDEST DUP1 PUSH1 0x1F ADD PUSH1 0x20 DUP1 SWAP2 DIV MUL PUSH1 0x20 ADD PUSH1 0x40 MLOAD SWAP1 DUP2 ADD PUSH1 0x40 MSTORE DUP1 SWAP3 SWAP2 SWAP1 DUP2 DUP2 MSTORE PUSH1 0x20 ADD DUP3 DUP1 SLOAD PUSH2 0x15DA SWAP1 PUSH2 0x34FF JUMP JUMPDEST DUP1 ISZERO PUSH2 0x1627 JUMPI DUP1 PUSH1 0x1F LT PUSH2 0x15FC JUMPI PUSH2 0x100 DUP1 DUP4 SLOAD DIV MUL DUP4 MSTORE SWAP2 PUSH1 0x20 ADD SWAP2 PUSH2 0x1627 JUMP JUMPDEST DUP3 ADD SWAP2 SWAP1 PUSH1 0x0 MSTORE PUSH1 0x20 PUSH1 0x0 KECCAK256 SWAP1 JUMPDEST DUP2 SLOAD DUP2 MSTORE SWAP1 PUSH1 0x1 ADD SWAP1 PUSH1 0x20 ADD DUP1 DUP4 GT PUSH2 0x160A JUMPI DUP3 SWAP1 SUB PUSH1 0x1F AND DUP3 ADD SWAP2 JUMPDEST POP POP POP POP POP SWAP1 POP SWAP1 JUMP JUMPDEST PUSH2 0x1639 PUSH2 0x1DBD JUMP JUMPDEST DUP1 PUSH1 0xA DUP2 SWAP1 SSTORE POP POP JUMP JUMPDEST DUP1 PUSH1 0x7 PUSH1 0x0 PUSH2 0x1650 PUSH2 0x1BF6 JUMP JUMPDEST PUSH20 0xFFFFFFFFFFFFFFFFFFFFFFFFFFFFFFFFFFFFFFFF AND PUSH20 0xFFFFFFFFFFFFFFFFFFFFFFFFFFFFFFFFFFFFFFFF AND DUP2 MSTORE PUSH1 0x20 ADD SWAP1 DUP2 MSTORE PUSH1 0x20 ADD PUSH1 0x0 KECCAK256 PUSH1 0x0 DUP5 PUSH20 0xFFFFFFFFFFFFFFFFFFFFFFFFFFFFFFFFFFFFFFFF AND PUSH20 0xFFFFFFFFFFFFFFFFFFFFFFFFFFFFFFFFFFFFFFFF AND DUP2 MSTORE PUSH1 0x20 ADD SWAP1 DUP2 MSTORE PUSH1 0x20 ADD PUSH1 0x0 KECCAK256 PUSH1 0x0 PUSH2 0x100 EXP DUP2 SLOAD DUP2 PUSH1 0xFF MUL NOT AND SWAP1 DUP4 ISZERO ISZERO MUL OR SWAP1 SSTORE POP DUP2 PUSH20 0xFFFFFFFFFFFFFFFFFFFFFFFFFFFFFFFFFFFFFFFF AND PUSH2 0x16FD PUSH2 0x1BF6 JUMP JUMPDEST PUSH20 0xFFFFFFFFFFFFFFFFFFFFFFFFFFFFFFFFFFFFFFFF AND PUSH32 0x17307EAB39AB6107E8899845AD3D59BD9653F200F220920489CA2B5937696C31 DUP4 PUSH1 0x40 MLOAD PUSH2 0x1742 SWAP2 SWAP1 PUSH2 0x2FFC JUMP JUMPDEST PUSH1 0x40 MLOAD DUP1 SWAP2 SUB SWAP1 LOG3 POP POP JUMP JUMPDEST PUSH2 0x1759 DUP5 DUP5 DUP5 PUSH2 0xB40 JUMP JUMPDEST PUSH1 0x0 DUP4 PUSH20 0xFFFFFFFFFFFFFFFFFFFFFFFFFFFFFFFFFFFFFFFF AND EXTCODESIZE EQ PUSH2 0x17BB JUMPI PUSH2 0x1784 DUP5 DUP5 DUP5 DUP5 PUSH2 0x1F18 JUMP JUMPDEST PUSH2 0x17BA JUMPI PUSH1 0x40 MLOAD PUSH32 0xD1A57ED600000000000000000000000000000000000000000000000000000000 DUP2 MSTORE PUSH1 0x4 ADD PUSH1 0x40 MLOAD DUP1 SWAP2 SUB SWAP1 REVERT JUMPDEST JUMPDEST POP POP POP POP JUMP JUMPDEST PUSH1 0x1 DUP1 PUSH1 0x2 DUP2 GT ISZERO PUSH2 0x17D6 JUMPI PUSH2 0x17D5 PUSH2 0x362D JUMP JUMPDEST JUMPDEST PUSH1 0x8 PUSH1 0x15 SWAP1 SLOAD SWAP1 PUSH2 0x100 EXP SWAP1 DIV PUSH1 0xFF AND PUSH1 0x2 DUP2 GT ISZERO PUSH2 0x17F8 JUMPI PUSH2 0x17F7 PUSH2 0x362D JUMP JUMPDEST JUMPDEST EQ PUSH2 0x1838 JUMPI PUSH1 0x40 MLOAD PUSH32 0x8C379A000000000000000000000000000000000000000000000000000000000 DUP2 MSTORE PUSH1 0x4 ADD PUSH2 0x182F SWAP1 PUSH2 0x316F JUMP JUMPDEST PUSH1 0x40 MLOAD DUP1 SWAP2 SUB SWAP1 REVERT JUMPDEST PUSH1 0x0 CALLER PUSH1 0x40 MLOAD PUSH1 0x20 ADD PUSH2 0x184B SWAP2 SWAP1 PUSH2 0x2EDB JUMP JUMPDEST PUSH1 0x40 MLOAD PUSH1 0x20 DUP2 DUP4 SUB SUB DUP2 MSTORE SWAP1 PUSH1 0x40 MSTORE DUP1 MLOAD SWAP1 PUSH1 0x20 ADD KECCAK256 SWAP1 POP PUSH2 0x1870 DUP5 PUSH1 0xB SLOAD DUP4 PUSH2 0x1F01 JUMP JUMPDEST PUSH2 0x18AF JUMPI PUSH1 0x40 MLOAD PUSH32 0x8C379A000000000000000000000000000000000000000000000000000000000 DUP2 MSTORE PUSH1 0x4 ADD PUSH2 0x18A6 SWAP1 PUSH2 0x306F JUMP JUMPDEST PUSH1 0x40 MLOAD DUP1 SWAP2 SUB SWAP1 REVERT JUMPDEST PUSH1 0x0 PUSH7 0x58D15E17628000 DUP5 PUSH2 0x18C4 SWAP2 SWAP1 PUSH2 0x338E JUMP JUMPDEST SWAP1 POP DUP1 CALLVALUE LT ISZERO PUSH2 0x1909 JUMPI PUSH1 0x40 MLOAD PUSH32 0x8C379A000000000000000000000000000000000000000000000000000000000 DUP2 MSTORE PUSH1 0x4 ADD PUSH2 0x1900 SWAP1 PUSH2 0x314F JUMP JUMPDEST PUSH1 0x40 MLOAD DUP1 SWAP2 SUB SWAP1 REVERT JUMPDEST PUSH2 0x1913 CALLER DUP6 PUSH2 0x1D9F JUMP JUMPDEST PUSH32 0xFFB7C4F70972AFCD047A01A8F7A1DACB3BC21748B5BEEEDD676C53205D728B25 CALLER DUP6 PUSH1 0x40 MLOAD PUSH2 0x1944 SWAP3 SWAP2 SWAP1 PUSH2 0x2FD3 JUMP JUMPDEST PUSH1 0x40 MLOAD DUP1 SWAP2 SUB SWAP1 LOG1 POP POP POP POP POP JUMP JUMPDEST PUSH7 0xB1A2BC2EC50000 DUP2 JUMP JUMPDEST PUSH1 0x60 PUSH2 0x1969 DUP3 PUSH2 0x1B97 JUMP JUMPDEST PUSH2 0x199F JUMPI PUSH1 0x40 MLOAD PUSH32 0xA14C4B5000000000000000000000000000000000000000000000000000000000 DUP2 MSTORE PUSH1 0x4 ADD PUSH1 0x40 MLOAD DUP1 SWAP2 SUB SWAP1 REVERT JUMPDEST PUSH1 0x0 PUSH2 0x19A9 PUSH2 0x2078 JUMP JUMPDEST SWAP1 POP PUSH1 0x0 DUP2 MLOAD EQ ISZERO PUSH2 0x19CA JUMPI PUSH1 0x40 MLOAD DUP1 PUSH1 0x20 ADD PUSH1 0x40 MSTORE DUP1 PUSH1 0x0 DUP2 MSTORE POP PUSH2 0x19F5 JUMP JUMPDEST DUP1 PUSH2 0x19D4 DUP5 PUSH2 0x210A JUMP JUMPDEST PUSH1 0x40 MLOAD PUSH1 0x20 ADD PUSH2 0x19E5 SWAP3 SWAP2 SWAP1 PUSH2 0x2EF6 JUMP JUMPDEST PUSH1 0x40 MLOAD PUSH1 0x20 DUP2 DUP4 SUB SUB DUP2 MSTORE SWAP1 PUSH1 0x40 MSTORE JUMPDEST SWAP2 POP POP SWAP2 SWAP1 POP JUMP JUMPDEST PUSH1 0xC PUSH1 0x20 MSTORE DUP1 PUSH1 0x0 MSTORE PUSH1 0x40 PUSH1 0x0 KECCAK256 PUSH1 0x0 SWAP2 POP SLOAD SWAP1 PUSH2 0x100 EXP SWAP1 DIV PUSH1 0xFF AND DUP2 JUMP JUMPDEST PUSH1 0x0 PUSH1 0x7 PUSH1 0x0 DUP5 PUSH20 0xFFFFFFFFFFFFFFFFFFFFFFFFFFFFFFFFFFFFFFFF AND PUSH20 0xFFFFFFFFFFFFFFFFFFFFFFFFFFFFFFFFFFFFFFFF AND DUP2 MSTORE PUSH1 0x20 ADD SWAP1 DUP2 MSTORE PUSH1 0x20 ADD PUSH1 0x0 KECCAK256 PUSH1 0x0 DUP4 PUSH20 0xFFFFFFFFFFFFFFFFFFFFFFFFFFFFFFFFFFFFFFFF AND PUSH20 0xFFFFFFFFFFFFFFFFFFFFFFFFFFFFFFFFFFFFFFFF AND DUP2 MSTORE PUSH1 0x20 ADD SWAP1 DUP2 MSTORE PUSH1 0x20 ADD PUSH1 0x0 KECCAK256 PUSH1 0x0 SWAP1 SLOAD SWAP1 PUSH2 0x100 EXP SWAP1 DIV PUSH1 0xFF AND SWAP1 POP SWAP3 SWAP2 POP POP JUMP JUMPDEST PUSH2 0x1AB9 PUSH2 0x1DBD JUMP JUMPDEST PUSH1 0x0 PUSH20 0xFFFFFFFFFFFFFFFFFFFFFFFFFFFFFFFFFFFFFFFF AND DUP2 PUSH20 0xFFFFFFFFFFFFFFFFFFFFFFFFFFFFFFFFFFFFFFFF AND EQ ISZERO PUSH2 0x1B29 JUMPI PUSH1 0x40 MLOAD PUSH32 0x8C379A000000000000000000000000000000000000000000000000000000000 DUP2 MSTORE PUSH1 0x4 ADD PUSH2 0x1B20 SWAP1 PUSH2 0x308F JUMP JUMPDEST PUSH1 0x40 MLOAD DUP1 SWAP2 SUB SWAP1 REVERT JUMPDEST PUSH2 0x1B32 DUP2 PUSH2 0x1E3B JUMP JUMPDEST POP JUMP JUMPDEST PUSH1 0x0 JUMPDEST DUP2 MLOAD DUP2 LT ISZERO PUSH2 0x1B79 JUMPI PUSH2 0x1B66 DUP5 DUP5 DUP5 DUP5 DUP2 MLOAD DUP2 LT PUSH2 0x1B59 JUMPI PUSH2 0x1B58 PUSH2 0x368B JUMP JUMPDEST JUMPDEST PUSH1 0x20 MUL PUSH1 0x20 ADD ADD MLOAD PUSH2 0x10D4 JUMP JUMPDEST DUP1 DUP1 PUSH2 0x1B71 SWAP1 PUSH2 0x3562 JUMP JUMPDEST SWAP2 POP POP PUSH2 0x1B38 JUMP JUMPDEST POP POP POP POP JUMP JUMPDEST PUSH2 0x1B87 PUSH2 0x1DBD JUMP JUMPDEST DUP1 PUSH1 0xB DUP2 SWAP1 SSTORE POP POP JUMP JUMPDEST PUSH2 0x1E61 DUP2 JUMP JUMPDEST PUSH1 0x0 DUP2 PUSH2 0x1BA2 PUSH2 0x1BFE JUMP JUMPDEST GT ISZERO DUP1 ISZERO PUSH2 0x1BB1 JUMPI POP PUSH1 0x0 SLOAD DUP3 LT JUMPDEST DUP1 ISZERO PUSH2 0x1BEF JUMPI POP PUSH1 0x0 PUSH29 0x100000000000000000000000000000000000000000000000000000000 PUSH1 0x4 PUSH1 0x0 DUP6 DUP2 MSTORE PUSH1 0x20 ADD SWAP1 DUP2 MSTORE PUSH1 0x20 ADD PUSH1 0x0 KECCAK256 SLOAD AND EQ JUMPDEST SWAP1 POP SWAP2 SWAP1 POP JUMP JUMPDEST PUSH1 0x0 CALLER SWAP1 POP SWAP1 JUMP JUMPDEST PUSH1 0x0 PUSH1 0x1 SWAP1 POP SWAP1 JUMP JUMPDEST PUSH1 0x0 DUP1 DUP3 SWAP1 POP DUP1 PUSH2 0x1C16 PUSH2 0x1BFE JUMP JUMPDEST GT PUSH2 0x1C9E JUMPI PUSH1 0x0 SLOAD DUP2 LT ISZERO PUSH2 0x1C9D JUMPI PUSH1 0x0 PUSH1 0x4 PUSH1 0x0 DUP4 DUP2 MSTORE PUSH1 0x20 ADD SWAP1 DUP2 MSTORE PUSH1 0x20 ADD PUSH1 0x0 KECCAK256 SLOAD SWAP1 POP PUSH1 0x0 PUSH29 0x100000000000000000000000000000000000000000000000000000000 DUP3 AND EQ ISZERO PUSH2 0x1C9B JUMPI JUMPDEST PUSH1 0x0 DUP2 EQ ISZERO PUSH2 0x1C91 JUMPI PUSH1 0x4 PUSH1 0x0 DUP4 PUSH1 0x1 SWAP1 SUB SWAP4 POP DUP4 DUP2 MSTORE PUSH1 0x20 ADD SWAP1 DUP2 MSTORE PUSH1 0x20 ADD PUSH1 0x0 KECCAK256 SLOAD SWAP1 POP PUSH2 0x1C66 JUMP JUMPDEST DUP1 SWAP3 POP POP POP PUSH2 0x1CD0 JUMP JUMPDEST POP JUMPDEST JUMPDEST PUSH1 0x40 MLOAD PUSH32 0xDF2D9B4200000000000000000000000000000000000000000000000000000000 DUP2 MSTORE PUSH1 0x4 ADD PUSH1 0x40 MLOAD DUP1 SWAP2 SUB SWAP1 REVERT JUMPDEST SWAP2 SWAP1 POP JUMP JUMPDEST PUSH1 0x0 DUP1 PUSH1 0x0 PUSH1 0x6 PUSH1 0x0 DUP6 DUP2 MSTORE PUSH1 0x20 ADD SWAP1 DUP2 MSTORE PUSH1 0x20 ADD PUSH1 0x0 KECCAK256 SWAP1 POP DUP1 SWAP3 POP DUP3 SLOAD SWAP2 POP POP SWAP2 POP SWAP2 JUMP JUMPDEST PUSH1 0x0 PUSH20 0xFFFFFFFFFFFFFFFFFFFFFFFFFFFFFFFFFFFFFFFF DUP4 AND SWAP3 POP PUSH20 0xFFFFFFFFFFFFFFFFFFFFFFFFFFFFFFFFFFFFFFFF DUP3 AND SWAP2 POP DUP4 DUP3 EQ DUP4 DUP4 EQ OR SWAP1 POP SWAP4 SWAP3 POP POP POP JUMP JUMPDEST POP POP POP POP JUMP JUMPDEST PUSH1 0x0 DUP1 PUSH1 0xE8 DUP4 SWAP1 SHR SWAP1 POP PUSH1 0xE8 PUSH2 0x1D5D DUP7 DUP7 DUP5 PUSH2 0x2163 JUMP JUMPDEST PUSH3 0xFFFFFF AND SWAP1 SHL SWAP2 POP POP SWAP4 SWAP3 POP POP POP JUMP JUMPDEST PUSH1 0x0 PUSH20 0xFFFFFFFFFFFFFFFFFFFFFFFFFFFFFFFFFFFFFFFF DUP4 AND SWAP3 POP DUP2 TIMESTAMP PUSH1 0xA0 SHL OR DUP4 OR SWAP1 POP SWAP3 SWAP2 POP POP JUMP JUMPDEST POP POP POP POP JUMP JUMPDEST PUSH2 0x1DB9 DUP3 DUP3 PUSH1 0x40 MLOAD DUP1 PUSH1 0x20 ADD PUSH1 0x40 MSTORE DUP1 PUSH1 0x0 DUP2 MSTORE POP PUSH2 0x216C JUMP JUMPDEST POP POP JUMP JUMPDEST PUSH2 0x1DC5 PUSH2 0x2209 JUMP JUMPDEST PUSH20 0xFFFFFFFFFFFFFFFFFFFFFFFFFFFFFFFFFFFFFFFF AND PUSH2 0x1DE3 PUSH2 0x13D0 JUMP JUMPDEST PUSH20 0xFFFFFFFFFFFFFFFFFFFFFFFFFFFFFFFFFFFFFFFF AND EQ PUSH2 0x1E39 JUMPI PUSH1 0x40 MLOAD PUSH32 0x8C379A000000000000000000000000000000000000000000000000000000000 DUP2 MSTORE PUSH1 0x4 ADD PUSH2 0x1E30 SWAP1 PUSH2 0x312F JUMP JUMPDEST PUSH1 0x40 MLOAD DUP1 SWAP2 SUB SWAP1 REVERT JUMPDEST JUMP JUMPDEST PUSH1 0x0 PUSH1 0x8 PUSH1 0x0 SWAP1 SLOAD SWAP1 PUSH2 0x100 EXP SWAP1 DIV PUSH20 0xFFFFFFFFFFFFFFFFFFFFFFFFFFFFFFFFFFFFFFFF AND SWAP1 POP DUP2 PUSH1 0x8 PUSH1 0x0 PUSH2 0x100 EXP DUP2 SLOAD DUP2 PUSH20 0xFFFFFFFFFFFFFFFFFFFFFFFFFFFFFFFFFFFFFFFF MUL NOT AND SWAP1 DUP4 PUSH20 0xFFFFFFFFFFFFFFFFFFFFFFFFFFFFFFFFFFFFFFFF AND MUL OR SWAP1 SSTORE POP DUP2 PUSH20 0xFFFFFFFFFFFFFFFFFFFFFFFFFFFFFFFFFFFFFFFF AND DUP2 PUSH20 0xFFFFFFFFFFFFFFFFFFFFFFFFFFFFFFFFFFFFFFFF AND PUSH32 0x8BE0079C531659141344CD1FD0A4F28419497F9722A3DAAFE3B4186F6B6457E0 PUSH1 0x40 MLOAD PUSH1 0x40 MLOAD DUP1 SWAP2 SUB SWAP1 LOG3 POP POP JUMP JUMPDEST PUSH1 0x0 DUP3 PUSH2 0x1F0E DUP6 DUP5 PUSH2 0x2211 JUMP JUMPDEST EQ SWAP1 POP SWAP4 SWAP3 POP POP POP JUMP JUMPDEST PUSH1 0x0 DUP4 PUSH20 0xFFFFFFFFFFFFFFFFFFFFFFFFFFFFFFFFFFFFFFFF AND PUSH4 0x150B7A02 PUSH2 0x1F3E PUSH2 0x1BF6 JUMP JUMPDEST DUP8 DUP7 DUP7 PUSH1 0x40 MLOAD DUP6 PUSH4 0xFFFFFFFF AND PUSH1 0xE0 SHL DUP2 MSTORE PUSH1 0x4 ADD PUSH2 0x1F60 SWAP5 SWAP4 SWAP3 SWAP2 SWAP1 PUSH2 0x2F35 JUMP JUMPDEST PUSH1 0x20 PUSH1 0x40 MLOAD DUP1 DUP4 SUB DUP2 PUSH1 0x0 DUP8 DUP1 EXTCODESIZE ISZERO DUP1 ISZERO PUSH2 0x1F7A JUMPI PUSH1 0x0 DUP1 REVERT JUMPDEST POP GAS CALL SWAP3 POP POP POP DUP1 ISZERO PUSH2 0x1FAB JUMPI POP PUSH1 0x40 MLOAD RETURNDATASIZE PUSH1 0x1F NOT PUSH1 0x1F DUP3 ADD AND DUP3 ADD DUP1 PUSH1 0x40 MSTORE POP DUP2 ADD SWAP1 PUSH2 0x1FA8 SWAP2 SWAP1 PUSH2 0x2B0E JUMP JUMPDEST PUSH1 0x1 JUMPDEST PUSH2 0x2025 JUMPI RETURNDATASIZE DUP1 PUSH1 0x0 DUP2 EQ PUSH2 0x1FDB JUMPI PUSH1 0x40 MLOAD SWAP2 POP PUSH1 0x1F NOT PUSH1 0x3F RETURNDATASIZE ADD AND DUP3 ADD PUSH1 0x40 MSTORE RETURNDATASIZE DUP3 MSTORE RETURNDATASIZE PUSH1 0x0 PUSH1 0x20 DUP5 ADD RETURNDATACOPY PUSH2 0x1FE0 JUMP JUMPDEST PUSH1 0x60 SWAP2 POP JUMPDEST POP PUSH1 0x0 DUP2 MLOAD EQ ISZERO PUSH2 0x201D JUMPI PUSH1 0x40 MLOAD PUSH32 0xD1A57ED600000000000000000000000000000000000000000000000000000000 DUP2 MSTORE PUSH1 0x4 ADD PUSH1 0x40 MLOAD DUP1 SWAP2 SUB SWAP1 REVERT JUMPDEST DUP1 MLOAD DUP2 PUSH1 0x20 ADD REVERT JUMPDEST PUSH4 0x150B7A02 PUSH1 0xE0 SHL PUSH28 0xFFFFFFFFFFFFFFFFFFFFFFFFFFFFFFFFFFFFFFFFFFFFFFFFFFFFFFFF NOT AND DUP2 PUSH28 0xFFFFFFFFFFFFFFFFFFFFFFFFFFFFFFFFFFFFFFFFFFFFFFFFFFFFFFFF NOT AND EQ SWAP2 POP POP SWAP5 SWAP4 POP POP POP POP JUMP JUMPDEST PUSH1 0x60 PUSH1 0x9 DUP1 SLOAD PUSH2 0x2087 SWAP1 PUSH2 0x34FF JUMP JUMPDEST DUP1 PUSH1 0x1F ADD PUSH1 0x20 DUP1 SWAP2 DIV MUL PUSH1 0x20 ADD PUSH1 0x40 MLOAD SWAP1 DUP2 ADD PUSH1 0x40 MSTORE DUP1 SWAP3 SWAP2 SWAP1 DUP2 DUP2 MSTORE PUSH1 0x20 ADD DUP3 DUP1 SLOAD PUSH2 0x20B3 SWAP1 PUSH2 0x34FF JUMP JUMPDEST DUP1 ISZERO PUSH2 0x2100 JUMPI DUP1 PUSH1 0x1F LT PUSH2 0x20D5 JUMPI PUSH2 0x100 DUP1 DUP4 SLOAD DIV MUL DUP4 MSTORE SWAP2 PUSH1 0x20 ADD SWAP2 PUSH2 0x2100 JUMP JUMPDEST DUP3 ADD SWAP2 SWAP1 PUSH1 0x0 MSTORE PUSH1 0x20 PUSH1 0x0 KECCAK256 SWAP1 JUMPDEST DUP2 SLOAD DUP2 MSTORE SWAP1 PUSH1 0x1 ADD SWAP1 PUSH1 0x20 ADD DUP1 DUP4 GT PUSH2 0x20E3 JUMPI DUP3 SWAP1 SUB PUSH1 0x1F AND DUP3 ADD SWAP2 JUMPDEST POP POP POP POP POP SWAP1 POP SWAP1 JUMP JUMPDEST PUSH1 0x60 PUSH1 0xA0 PUSH1 0x40 MLOAD ADD DUP1 PUSH1 0x40 MSTORE PUSH1 0x20 DUP2 SUB SWAP2 POP PUSH1 0x0 DUP3 MSTORE DUP2 DUP4 JUMPDEST PUSH1 0x1 ISZERO PUSH2 0x214E JUMPI PUSH1 0x1 DUP5 SUB SWAP4 POP PUSH1 0xA DUP2 MOD PUSH1 0x30 ADD DUP5 MSTORE8 PUSH1 0xA DUP2 DIV SWAP1 POP DUP1 PUSH2 0x2149 JUMPI PUSH2 0x214E JUMP JUMPDEST PUSH2 0x2123 JUMP JUMPDEST POP DUP3 DUP2 SUB PUSH1 0x20 DUP5 SUB SWAP4 POP DUP1 DUP5 MSTORE POP POP POP SWAP2 SWAP1 POP JUMP JUMPDEST PUSH1 0x0 SWAP4 SWAP3 POP POP POP JUMP JUMPDEST PUSH2 0x2176 DUP4 DUP4 PUSH2 0x2267 JUMP JUMPDEST PUSH1 0x0 DUP4 PUSH20 0xFFFFFFFFFFFFFFFFFFFFFFFFFFFFFFFFFFFFFFFF AND EXTCODESIZE EQ PUSH2 0x2204 JUMPI PUSH1 0x0 DUP1 SLOAD SWAP1 POP PUSH1 0x0 DUP4 DUP3 SUB SWAP1 POP JUMPDEST PUSH2 0x21B6 PUSH1 0x0 DUP7 DUP4 DUP1 PUSH1 0x1 ADD SWAP5 POP DUP7 PUSH2 0x1F18 JUMP JUMPDEST PUSH2 0x21EC JUMPI PUSH1 0x40 MLOAD PUSH32 0xD1A57ED600000000000000000000000000000000000000000000000000000000 DUP2 MSTORE PUSH1 0x4 ADD PUSH1 0x40 MLOAD DUP1 SWAP2 SUB SWAP1 REVERT JUMPDEST DUP2 DUP2 LT PUSH2 0x21A3 JUMPI DUP2 PUSH1 0x0 SLOAD EQ PUSH2 0x2201 JUMPI PUSH1 0x0 DUP1 REVERT JUMPDEST POP POP JUMPDEST POP POP POP JUMP JUMPDEST PUSH1 0x0 CALLER SWAP1 POP SWAP1 JUMP JUMPDEST PUSH1 0x0 DUP1 DUP3 SWAP1 POP PUSH1 0x0 JUMPDEST DUP5 MLOAD DUP2 LT ISZERO PUSH2 0x225C JUMPI PUSH2 0x2247 DUP3 DUP7 DUP4 DUP2 MLOAD DUP2 LT PUSH2 0x223A JUMPI PUSH2 0x2239 PUSH2 0x368B JUMP JUMPDEST JUMPDEST PUSH1 0x20 MUL PUSH1 0x20 ADD ADD MLOAD PUSH2 0x2424 JUMP JUMPDEST SWAP2 POP DUP1 DUP1 PUSH2 0x2254 SWAP1 PUSH2 0x3562 JUMP JUMPDEST SWAP2 POP POP PUSH2 0x221A JUMP JUMPDEST POP DUP1 SWAP2 POP POP SWAP3 SWAP2 POP POP JUMP JUMPDEST PUSH1 0x0 DUP1 SLOAD SWAP1 POP PUSH1 0x0 DUP3 EQ ISZERO PUSH2 0x22A8 JUMPI PUSH1 0x40 MLOAD PUSH32 0xB562E8DD00000000000000000000000000000000000000000000000000000000 DUP2 MSTORE PUSH1 0x4 ADD PUSH1 0x40 MLOAD DUP1 SWAP2 SUB SWAP1 REVERT JUMPDEST PUSH2 0x22B5 PUSH1 0x0 DUP5 DUP4 DUP6 PUSH2 0x1D40 JUMP JUMPDEST PUSH1 0x1 PUSH1 0x40 PUSH1 0x1 SWAP1 SHL OR DUP3 MUL PUSH1 0x5 PUSH1 0x0 DUP6 PUSH20 0xFFFFFFFFFFFFFFFFFFFFFFFFFFFFFFFFFFFFFFFF AND PUSH20 0xFFFFFFFFFFFFFFFFFFFFFFFFFFFFFFFFFFFFFFFF AND DUP2 MSTORE PUSH1 0x20 ADD SWAP1 DUP2 MSTORE PUSH1 0x20 ADD PUSH1 0x0 KECCAK256 PUSH1 0x0 DUP3 DUP3 SLOAD ADD SWAP3 POP POP DUP2 SWAP1 SSTORE POP PUSH2 0x232C DUP4 PUSH2 0x231D PUSH1 0x0 DUP7 PUSH1 0x0 PUSH2 0x1D46 JUMP JUMPDEST PUSH2 0x2326 DUP6 PUSH2 0x244F JUMP JUMPDEST OR PUSH2 0x1D6E JUMP JUMPDEST PUSH1 0x4 PUSH1 0x0 DUP4 DUP2 MSTORE PUSH1 0x20 ADD SWAP1 DUP2 MSTORE PUSH1 0x20 ADD PUSH1 0x0 KECCAK256 DUP2 SWAP1 SSTORE POP PUSH1 0x0 DUP1 DUP4 DUP4 ADD SWAP1 POP PUSH20 0xFFFFFFFFFFFFFFFFFFFFFFFFFFFFFFFFFFFFFFFF DUP6 AND SWAP2 POP DUP3 DUP3 PUSH1 0x0 PUSH32 0xDDF252AD1BE2C89B69C2B068FC378DAA952BA7F163C4A11628F55A4DF523B3EF PUSH1 0x0 DUP1 LOG4 PUSH1 0x1 DUP4 ADD JUMPDEST DUP2 DUP2 EQ PUSH2 0x23CD JUMPI DUP1 DUP4 PUSH1 0x0 PUSH32 0xDDF252AD1BE2C89B69C2B068FC378DAA952BA7F163C4A11628F55A4DF523B3EF PUSH1 0x0 DUP1 LOG4 PUSH1 0x1 DUP2 ADD SWAP1 POP PUSH2 0x2392 JUMP JUMPDEST POP PUSH1 0x0 DUP3 EQ ISZERO PUSH2 0x2409 JUMPI PUSH1 0x40 MLOAD PUSH32 0x2E07630000000000000000000000000000000000000000000000000000000000 DUP2 MSTORE PUSH1 0x4 ADD PUSH1 0x40 MLOAD DUP1 SWAP2 SUB SWAP1 REVERT JUMPDEST DUP1 PUSH1 0x0 DUP2 SWAP1 SSTORE POP POP POP PUSH2 0x241F PUSH1 0x0 DUP5 DUP4 DUP6 PUSH2 0x1D99 JUMP JUMPDEST POP POP POP JUMP JUMPDEST PUSH1 0x0 DUP2 DUP4 LT PUSH2 0x243C JUMPI PUSH2 0x2437 DUP3 DUP5 PUSH2 0x245F JUMP JUMPDEST PUSH2 0x2447 JUMP JUMPDEST PUSH2 0x2446 DUP4 DUP4 PUSH2 0x245F JUMP JUMPDEST JUMPDEST SWAP1 POP SWAP3 SWAP2 POP POP JUMP JUMPDEST PUSH1 0x0 PUSH1 0x1 DUP3 EQ PUSH1 0xE1 SHL SWAP1 POP SWAP2 SWAP1 POP JUMP JUMPDEST PUSH1 0x0 DUP3 PUSH1 0x0 MSTORE DUP2 PUSH1 0x20 MSTORE PUSH1 0x40 PUSH1 0x0 KECCAK256 SWAP1 POP SWAP3 SWAP2 POP POP JUMP JUMPDEST DUP3 DUP1 SLOAD PUSH2 0x2482 SWAP1 PUSH2 0x34FF JUMP JUMPDEST SWAP1 PUSH1 0x0 MSTORE PUSH1 0x20 PUSH1 0x0 KECCAK256 SWAP1 PUSH1 0x1F ADD PUSH1 0x20 SWAP1 DIV DUP2 ADD SWAP3 DUP3 PUSH2 0x24A4 JUMPI PUSH1 0x0 DUP6 SSTORE PUSH2 0x24EB JUMP JUMPDEST DUP3 PUSH1 0x1F LT PUSH2 0x24BD JUMPI DUP1 MLOAD PUSH1 0xFF NOT AND DUP4 DUP1 ADD OR DUP6 SSTORE PUSH2 0x24EB JUMP JUMPDEST DUP3 DUP1 ADD PUSH1 0x1 ADD DUP6 SSTORE DUP3 ISZERO PUSH2 0x24EB JUMPI SWAP2 DUP3 ADD JUMPDEST DUP3 DUP2 GT ISZERO PUSH2 0x24EA JUMPI DUP3 MLOAD DUP3 SSTORE SWAP2 PUSH1 0x20 ADD SWAP2 SWAP1 PUSH1 0x1 ADD SWAP1 PUSH2 0x24CF JUMP JUMPDEST JUMPDEST POP SWAP1 POP PUSH2 0x24F8 SWAP2 SWAP1 PUSH2 0x24FC JUMP JUMPDEST POP SWAP1 JUMP JUMPDEST JUMPDEST DUP1 DUP3 GT ISZERO PUSH2 0x2515 JUMPI PUSH1 0x0 DUP2 PUSH1 0x0 SWAP1 SSTORE POP PUSH1 0x1 ADD PUSH2 0x24FD JUMP JUMPDEST POP SWAP1 JUMP JUMPDEST PUSH1 0x0 PUSH2 0x252C PUSH2 0x2527 DUP5 PUSH2 0x320A JUMP JUMPDEST PUSH2 0x31E5 JUMP JUMPDEST SWAP1 POP DUP1 DUP4 DUP3 MSTORE PUSH1 0x20 DUP3 ADD SWAP1 POP DUP3 DUP6 PUSH1 0x20 DUP7 MUL DUP3 ADD GT ISZERO PUSH2 0x254F JUMPI PUSH2 0x254E PUSH2 0x36EE JUMP JUMPDEST JUMPDEST PUSH1 0x0 JUMPDEST DUP6 DUP2 LT ISZERO PUSH2 0x257F JUMPI DUP2 PUSH2 0x2565 DUP9 DUP3 PUSH2 0x2703 JUMP JUMPDEST DUP5 MSTORE PUSH1 0x20 DUP5 ADD SWAP4 POP PUSH1 0x20 DUP4 ADD SWAP3 POP POP PUSH1 0x1 DUP2 ADD SWAP1 POP PUSH2 0x2552 JUMP JUMPDEST POP POP POP SWAP4 SWAP3 POP POP POP JUMP JUMPDEST PUSH1 0x0 PUSH2 0x259C PUSH2 0x2597 DUP5 PUSH2 0x3236 JUMP JUMPDEST PUSH2 0x31E5 JUMP JUMPDEST SWAP1 POP DUP1 DUP4 DUP3 MSTORE PUSH1 0x20 DUP3 ADD SWAP1 POP DUP3 DUP6 PUSH1 0x20 DUP7 MUL DUP3 ADD GT ISZERO PUSH2 0x25BF JUMPI PUSH2 0x25BE PUSH2 0x36EE JUMP JUMPDEST JUMPDEST PUSH1 0x0 JUMPDEST DUP6 DUP2 LT ISZERO PUSH2 0x25EF JUMPI DUP2 PUSH2 0x25D5 DUP9 DUP3 PUSH2 0x27C8 JUMP JUMPDEST DUP5 MSTORE PUSH1 0x20 DUP5 ADD SWAP4 POP PUSH1 0x20 DUP4 ADD SWAP3 POP POP PUSH1 0x1 DUP2 ADD SWAP1 POP PUSH2 0x25C2 JUMP JUMPDEST POP POP POP SWAP4 SWAP3 POP POP POP JUMP JUMPDEST PUSH1 0x0 PUSH2 0x260C PUSH2 0x2607 DUP5 PUSH2 0x3262 JUMP JUMPDEST PUSH2 0x31E5 JUMP JUMPDEST SWAP1 POP DUP3 DUP2 MSTORE PUSH1 0x20 DUP2 ADD DUP5 DUP5 DUP5 ADD GT ISZERO PUSH2 0x2628 JUMPI PUSH2 0x2627 PUSH2 0x36F3 JUMP JUMPDEST JUMPDEST PUSH2 0x2633 DUP5 DUP3 DUP6 PUSH2 0x34BD JUMP JUMPDEST POP SWAP4 SWAP3 POP POP POP JUMP JUMPDEST PUSH1 0x0 PUSH2 0x264E PUSH2 0x2649 DUP5 PUSH2 0x3293 JUMP JUMPDEST PUSH2 0x31E5 JUMP JUMPDEST SWAP1 POP DUP3 DUP2 MSTORE PUSH1 0x20 DUP2 ADD DUP5 DUP5 DUP5 ADD GT ISZERO PUSH2 0x266A JUMPI PUSH2 0x2669 PUSH2 0x36F3 JUMP JUMPDEST JUMPDEST PUSH2 0x2675 DUP5 DUP3 DUP6 PUSH2 0x34BD JUMP JUMPDEST POP SWAP4 SWAP3 POP POP POP JUMP JUMPDEST PUSH1 0x0 DUP2 CALLDATALOAD SWAP1 POP PUSH2 0x268C DUP2 PUSH2 0x391A JUMP JUMPDEST SWAP3 SWAP2 POP POP JUMP JUMPDEST PUSH1 0x0 DUP3 PUSH1 0x1F DUP4 ADD SLT PUSH2 0x26A7 JUMPI PUSH2 0x26A6 PUSH2 0x36E9 JUMP JUMPDEST JUMPDEST DUP2 CALLDATALOAD PUSH2 0x26B7 DUP5 DUP3 PUSH1 0x20 DUP7 ADD PUSH2 0x2519 JUMP JUMPDEST SWAP2 POP POP SWAP3 SWAP2 POP POP JUMP JUMPDEST PUSH1 0x0 DUP3 PUSH1 0x1F DUP4 ADD SLT PUSH2 0x26D5 JUMPI PUSH2 0x26D4 PUSH2 0x36E9 JUMP JUMPDEST JUMPDEST DUP2 CALLDATALOAD PUSH2 0x26E5 DUP5 DUP3 PUSH1 0x20 DUP7 ADD PUSH2 0x2589 JUMP JUMPDEST SWAP2 POP POP SWAP3 SWAP2 POP POP JUMP JUMPDEST PUSH1 0x0 DUP2 CALLDATALOAD SWAP1 POP PUSH2 0x26FD DUP2 PUSH2 0x3931 JUMP JUMPDEST SWAP3 SWAP2 POP POP JUMP JUMPDEST PUSH1 0x0 DUP2 CALLDATALOAD SWAP1 POP PUSH2 0x2712 DUP2 PUSH2 0x3948 JUMP JUMPDEST SWAP3 SWAP2 POP POP JUMP JUMPDEST PUSH1 0x0 DUP2 CALLDATALOAD SWAP1 POP PUSH2 0x2727 DUP2 PUSH2 0x395F JUMP JUMPDEST SWAP3 SWAP2 POP POP JUMP JUMPDEST PUSH1 0x0 DUP2 MLOAD SWAP1 POP PUSH2 0x273C DUP2 PUSH2 0x395F JUMP JUMPDEST SWAP3 SWAP2 POP POP JUMP JUMPDEST PUSH1 0x0 DUP3 PUSH1 0x1F DUP4 ADD SLT PUSH2 0x2757 JUMPI PUSH2 0x2756 PUSH2 0x36E9 JUMP JUMPDEST JUMPDEST DUP2 CALLDATALOAD PUSH2 0x2767 DUP5 DUP3 PUSH1 0x20 DUP7 ADD PUSH2 0x25F9 JUMP JUMPDEST SWAP2 POP POP SWAP3 SWAP2 POP POP JUMP JUMPDEST PUSH1 0x0 DUP2 CALLDATALOAD SWAP1 POP PUSH2 0x277F DUP2 PUSH2 0x3976 JUMP JUMPDEST SWAP3 SWAP2 POP POP JUMP JUMPDEST PUSH1 0x0 DUP3 PUSH1 0x1F DUP4 ADD SLT PUSH2 0x279A JUMPI PUSH2 0x2799 PUSH2 0x36E9 JUMP JUMPDEST JUMPDEST DUP2 CALLDATALOAD PUSH2 0x27AA DUP5 DUP3 PUSH1 0x20 DUP7 ADD PUSH2 0x263B JUMP JUMPDEST SWAP2 POP POP SWAP3 SWAP2 POP POP JUMP JUMPDEST PUSH1 0x0 DUP2 CALLDATALOAD SWAP1 POP PUSH2 0x27C2 DUP2 PUSH2 0x3986 JUMP JUMPDEST SWAP3 SWAP2 POP POP JUMP JUMPDEST PUSH1 0x0 DUP2 CALLDATALOAD SWAP1 POP PUSH2 0x27D7 DUP2 PUSH2 0x399D JUMP JUMPDEST SWAP3 SWAP2 POP POP JUMP JUMPDEST PUSH1 0x0 PUSH1 0x20 DUP3 DUP5 SUB SLT ISZERO PUSH2 0x27F3 JUMPI PUSH2 0x27F2 PUSH2 0x36FD JUMP JUMPDEST JUMPDEST PUSH1 0x0 PUSH2 0x2801 DUP5 DUP3 DUP6 ADD PUSH2 0x267D JUMP JUMPDEST SWAP2 POP POP SWAP3 SWAP2 POP POP JUMP JUMPDEST PUSH1 0x0 DUP1 PUSH1 0x40 DUP4 DUP6 SUB SLT ISZERO PUSH2 0x2821 JUMPI PUSH2 0x2820 PUSH2 0x36FD JUMP JUMPDEST JUMPDEST PUSH1 0x0 PUSH2 0x282F DUP6 DUP3 DUP7 ADD PUSH2 0x267D JUMP JUMPDEST SWAP3 POP POP PUSH1 0x20 PUSH2 0x2840 DUP6 DUP3 DUP7 ADD PUSH2 0x267D JUMP JUMPDEST SWAP2 POP POP SWAP3 POP SWAP3 SWAP1 POP JUMP JUMPDEST PUSH1 0x0 DUP1 PUSH1 0x0 PUSH1 0x60 DUP5 DUP7 SUB SLT ISZERO PUSH2 0x2863 JUMPI PUSH2 0x2862 PUSH2 0x36FD JUMP JUMPDEST JUMPDEST PUSH1 0x0 PUSH2 0x2871 DUP7 DUP3 DUP8 ADD PUSH2 0x267D JUMP JUMPDEST SWAP4 POP POP PUSH1 0x20 PUSH2 0x2882 DUP7 DUP3 DUP8 ADD PUSH2 0x267D JUMP JUMPDEST SWAP3 POP POP PUSH1 0x40 DUP5 ADD CALLDATALOAD PUSH8 0xFFFFFFFFFFFFFFFF DUP2 GT ISZERO PUSH2 0x28A3 JUMPI PUSH2 0x28A2 PUSH2 0x36F8 JUMP JUMPDEST JUMPDEST PUSH2 0x28AF DUP7 DUP3 DUP8 ADD PUSH2 0x26C0 JUMP JUMPDEST SWAP2 POP POP SWAP3 POP SWAP3 POP SWAP3 JUMP JUMPDEST PUSH1 0x0 DUP1 PUSH1 0x0 PUSH1 0x60 DUP5 DUP7 SUB SLT ISZERO PUSH2 0x28D2 JUMPI PUSH2 0x28D1 PUSH2 0x36FD JUMP JUMPDEST JUMPDEST PUSH1 0x0 PUSH2 0x28E0 DUP7 DUP3 DUP8 ADD PUSH2 0x267D JUMP JUMPDEST SWAP4 POP POP PUSH1 0x20 PUSH2 0x28F1 DUP7 DUP3 DUP8 ADD PUSH2 0x267D JUMP JUMPDEST SWAP3 POP POP PUSH1 0x40 PUSH2 0x2902 DUP7 DUP3 DUP8 ADD PUSH2 0x27C8 JUMP JUMPDEST SWAP2 POP POP SWAP3 POP SWAP3 POP SWAP3 JUMP JUMPDEST PUSH1 0x0 DUP1 PUSH1 0x0 DUP1 PUSH1 0x80 DUP6 DUP8 SUB SLT ISZERO PUSH2 0x2926 JUMPI PUSH2 0x2925 PUSH2 0x36FD JUMP JUMPDEST JUMPDEST PUSH1 0x0 PUSH2 0x2934 DUP8 DUP3 DUP9 ADD PUSH2 0x267D JUMP JUMPDEST SWAP5 POP POP PUSH1 0x20 PUSH2 0x2945 DUP8 DUP3 DUP9 ADD PUSH2 0x267D JUMP JUMPDEST SWAP4 POP POP PUSH1 0x40 PUSH2 0x2956 DUP8 DUP3 DUP9 ADD PUSH2 0x27C8 JUMP JUMPDEST SWAP3 POP POP PUSH1 0x60 DUP6 ADD CALLDATALOAD PUSH8 0xFFFFFFFFFFFFFFFF DUP2 GT ISZERO PUSH2 0x2977 JUMPI PUSH2 0x2976 PUSH2 0x36F8 JUMP JUMPDEST JUMPDEST PUSH2 0x2983 DUP8 DUP3 DUP9 ADD PUSH2 0x2742 JUMP JUMPDEST SWAP2 POP POP SWAP3 SWAP6 SWAP2 SWAP5 POP SWAP3 POP JUMP JUMPDEST PUSH1 0x0 DUP1 PUSH1 0x40 DUP4 DUP6 SUB SLT ISZERO PUSH2 0x29A6 JUMPI PUSH2 0x29A5 PUSH2 0x36FD JUMP JUMPDEST JUMPDEST PUSH1 0x0 PUSH2 0x29B4 DUP6 DUP3 DUP7 ADD PUSH2 0x267D JUMP JUMPDEST SWAP3 POP POP PUSH1 0x20 PUSH2 0x29C5 DUP6 DUP3 DUP7 ADD PUSH2 0x26EE JUMP JUMPDEST SWAP2 POP POP SWAP3 POP SWAP3 SWAP1 POP JUMP JUMPDEST PUSH1 0x0 DUP1 PUSH1 0x40 DUP4 DUP6 SUB SLT ISZERO PUSH2 0x29E6 JUMPI PUSH2 0x29E5 PUSH2 0x36FD JUMP JUMPDEST JUMPDEST PUSH1 0x0 PUSH2 0x29F4 DUP6 DUP3 DUP7 ADD PUSH2 0x267D JUMP JUMPDEST SWAP3 POP POP PUSH1 0x20 PUSH2 0x2A05 DUP6 DUP3 DUP7 ADD PUSH2 0x27C8 JUMP JUMPDEST SWAP2 POP POP SWAP3 POP SWAP3 SWAP1 POP JUMP JUMPDEST PUSH1 0x0 PUSH1 0x20 DUP3 DUP5 SUB SLT ISZERO PUSH2 0x2A25 JUMPI PUSH2 0x2A24 PUSH2 0x36FD JUMP JUMPDEST JUMPDEST PUSH1 0x0 DUP3 ADD CALLDATALOAD PUSH8 0xFFFFFFFFFFFFFFFF DUP2 GT ISZERO PUSH2 0x2A43 JUMPI PUSH2 0x2A42 PUSH2 0x36F8 JUMP JUMPDEST JUMPDEST PUSH2 0x2A4F DUP5 DUP3 DUP6 ADD PUSH2 0x2692 JUMP JUMPDEST SWAP2 POP POP SWAP3 SWAP2 POP POP JUMP JUMPDEST PUSH1 0x0 DUP1 PUSH1 0x40 DUP4 DUP6 SUB SLT ISZERO PUSH2 0x2A6F JUMPI PUSH2 0x2A6E PUSH2 0x36FD JUMP JUMPDEST JUMPDEST PUSH1 0x0 DUP4 ADD CALLDATALOAD PUSH8 0xFFFFFFFFFFFFFFFF DUP2 GT ISZERO PUSH2 0x2A8D JUMPI PUSH2 0x2A8C PUSH2 0x36F8 JUMP JUMPDEST JUMPDEST PUSH2 0x2A99 DUP6 DUP3 DUP7 ADD PUSH2 0x2692 JUMP JUMPDEST SWAP3 POP POP PUSH1 0x20 PUSH2 0x2AAA DUP6 DUP3 DUP7 ADD PUSH2 0x27C8 JUMP JUMPDEST SWAP2 POP POP SWAP3 POP SWAP3 SWAP1 POP JUMP JUMPDEST PUSH1 0x0 PUSH1 0x20 DUP3 DUP5 SUB SLT ISZERO PUSH2 0x2ACA JUMPI PUSH2 0x2AC9 PUSH2 0x36FD JUMP JUMPDEST JUMPDEST PUSH1 0x0 PUSH2 0x2AD8 DUP5 DUP3 DUP6 ADD PUSH2 0x2703 JUMP JUMPDEST SWAP2 POP POP SWAP3 SWAP2 POP POP JUMP JUMPDEST PUSH1 0x0 PUSH1 0x20 DUP3 DUP5 SUB SLT ISZERO PUSH2 0x2AF7 JUMPI PUSH2 0x2AF6 PUSH2 0x36FD JUMP JUMPDEST JUMPDEST PUSH1 0x0 PUSH2 0x2B05 DUP5 DUP3 DUP6 ADD PUSH2 0x2718 JUMP JUMPDEST SWAP2 POP POP SWAP3 SWAP2 POP POP JUMP JUMPDEST PUSH1 0x0 PUSH1 0x20 DUP3 DUP5 SUB SLT ISZERO PUSH2 0x2B24 JUMPI PUSH2 0x2B23 PUSH2 0x36FD JUMP JUMPDEST JUMPDEST PUSH1 0x0 PUSH2 0x2B32 DUP5 DUP3 DUP6 ADD PUSH2 0x272D JUMP JUMPDEST SWAP2 POP POP SWAP3 SWAP2 POP POP JUMP JUMPDEST PUSH1 0x0 PUSH1 0x20 DUP3 DUP5 SUB SLT ISZERO PUSH2 0x2B51 JUMPI PUSH2 0x2B50 PUSH2 0x36FD JUMP JUMPDEST JUMPDEST PUSH1 0x0 PUSH2 0x2B5F DUP5 DUP3 DUP6 ADD PUSH2 0x2770 JUMP JUMPDEST SWAP2 POP POP SWAP3 SWAP2 POP POP JUMP JUMPDEST PUSH1 0x0 PUSH1 0x20 DUP3 DUP5 SUB SLT ISZERO PUSH2 0x2B7E JUMPI PUSH2 0x2B7D PUSH2 0x36FD JUMP JUMPDEST JUMPDEST PUSH1 0x0 DUP3 ADD CALLDATALOAD PUSH8 0xFFFFFFFFFFFFFFFF DUP2 GT ISZERO PUSH2 0x2B9C JUMPI PUSH2 0x2B9B PUSH2 0x36F8 JUMP JUMPDEST JUMPDEST PUSH2 0x2BA8 DUP5 DUP3 DUP6 ADD PUSH2 0x2785 JUMP JUMPDEST SWAP2 POP POP SWAP3 SWAP2 POP POP JUMP JUMPDEST PUSH1 0x0 PUSH1 0x20 DUP3 DUP5 SUB SLT ISZERO PUSH2 0x2BC7 JUMPI PUSH2 0x2BC6 PUSH2 0x36FD JUMP JUMPDEST JUMPDEST PUSH1 0x0 PUSH2 0x2BD5 DUP5 DUP3 DUP6 ADD PUSH2 0x27B3 JUMP JUMPDEST SWAP2 POP POP SWAP3 SWAP2 POP POP JUMP JUMPDEST PUSH1 0x0 PUSH1 0x20 DUP3 DUP5 SUB SLT ISZERO PUSH2 0x2BF4 JUMPI PUSH2 0x2BF3 PUSH2 0x36FD JUMP JUMPDEST JUMPDEST PUSH1 0x0 PUSH2 0x2C02 DUP5 DUP3 DUP6 ADD PUSH2 0x27C8 JUMP JUMPDEST SWAP2 POP POP SWAP3 SWAP2 POP POP JUMP JUMPDEST PUSH1 0x0 DUP1 PUSH1 0x40 DUP4 DUP6 SUB SLT ISZERO PUSH2 0x2C22 JUMPI PUSH2 0x2C21 PUSH2 0x36FD JUMP JUMPDEST JUMPDEST PUSH1 0x0 PUSH2 0x2C30 DUP6 DUP3 DUP7 ADD PUSH2 0x27C8 JUMP JUMPDEST SWAP3 POP POP PUSH1 0x20 PUSH2 0x2C41 DUP6 DUP3 DUP7 ADD PUSH2 0x267D JUMP JUMPDEST SWAP2 POP POP SWAP3 POP SWAP3 SWAP1 POP JUMP JUMPDEST PUSH2 0x2C54 DUP2 PUSH2 0x33E8 JUMP JUMPDEST DUP3 MSTORE POP POP JUMP JUMPDEST PUSH2 0x2C6B PUSH2 0x2C66 DUP3 PUSH2 0x33E8 JUMP JUMPDEST PUSH2 0x35AB JUMP JUMPDEST DUP3 MSTORE POP POP JUMP JUMPDEST PUSH2 0x2C7A DUP2 PUSH2 0x33FA JUMP JUMPDEST DUP3 MSTORE POP POP JUMP JUMPDEST PUSH2 0x2C89 DUP2 PUSH2 0x3406 JUMP JUMPDEST DUP3 MSTORE POP POP JUMP JUMPDEST PUSH1 0x0 PUSH2 0x2C9A DUP3 PUSH2 0x32C4 JUMP JUMPDEST PUSH2 0x2CA4 DUP2 DUP6 PUSH2 0x32DA JUMP JUMPDEST SWAP4 POP PUSH2 0x2CB4 DUP2 DUP6 PUSH1 0x20 DUP7 ADD PUSH2 0x34CC JUMP JUMPDEST PUSH2 0x2CBD DUP2 PUSH2 0x3702 JUMP JUMPDEST DUP5 ADD SWAP2 POP POP SWAP3 SWAP2 POP POP JUMP JUMPDEST PUSH2 0x2CD1 DUP2 PUSH2 0x3487 JUMP JUMPDEST DUP3 MSTORE POP POP JUMP JUMPDEST PUSH2 0x2CE0 DUP2 PUSH2 0x3499 JUMP JUMPDEST DUP3 MSTORE POP POP JUMP JUMPDEST PUSH1 0x0 PUSH2 0x2CF1 DUP3 PUSH2 0x32CF JUMP JUMPDEST PUSH2 0x2CFB DUP2 DUP6 PUSH2 0x32EB JUMP JUMPDEST SWAP4 POP PUSH2 0x2D0B DUP2 DUP6 PUSH1 0x20 DUP7 ADD PUSH2 0x34CC JUMP JUMPDEST PUSH2 0x2D14 DUP2 PUSH2 0x3702 JUMP JUMPDEST DUP5 ADD SWAP2 POP POP SWAP3 SWAP2 POP POP JUMP JUMPDEST PUSH1 0x0 PUSH2 0x2D2A DUP3 PUSH2 0x32CF JUMP JUMPDEST PUSH2 0x2D34 DUP2 DUP6 PUSH2 0x32FC JUMP JUMPDEST SWAP4 POP PUSH2 0x2D44 DUP2 DUP6 PUSH1 0x20 DUP7 ADD PUSH2 0x34CC JUMP JUMPDEST DUP1 DUP5 ADD SWAP2 POP POP SWAP3 SWAP2 POP POP JUMP JUMPDEST PUSH1 0x0 PUSH2 0x2D5D PUSH1 0x10 DUP4 PUSH2 0x32EB JUMP JUMPDEST SWAP2 POP PUSH2 0x2D68 DUP3 PUSH2 0x3720 JUMP JUMPDEST PUSH1 0x20 DUP3 ADD SWAP1 POP SWAP2 SWAP1 POP JUMP JUMPDEST PUSH1 0x0 PUSH2 0x2D80 PUSH1 0x26 DUP4 PUSH2 0x32EB JUMP JUMPDEST SWAP2 POP PUSH2 0x2D8B DUP3 PUSH2 0x3749 JUMP JUMPDEST PUSH1 0x40 DUP3 ADD SWAP1 POP SWAP2 SWAP1 POP JUMP JUMPDEST PUSH1 0x0 PUSH2 0x2DA3 PUSH1 0x24 DUP4 PUSH2 0x32EB JUMP JUMPDEST SWAP2 POP PUSH2 0x2DAE DUP3 PUSH2 0x3798 JUMP JUMPDEST PUSH1 0x40 DUP3 ADD SWAP1 POP SWAP2 SWAP1 POP JUMP JUMPDEST PUSH1 0x0 PUSH2 0x2DC6 PUSH1 0xE DUP4 PUSH2 0x32EB JUMP JUMPDEST SWAP2 POP PUSH2 0x2DD1 DUP3 PUSH2 0x37E7 JUMP JUMPDEST PUSH1 0x20 DUP3 ADD SWAP1 POP SWAP2 SWAP1 POP JUMP JUMPDEST PUSH1 0x0 PUSH2 0x2DE9 PUSH1 0x14 DUP4 PUSH2 0x32EB JUMP JUMPDEST SWAP2 POP PUSH2 0x2DF4 DUP3 PUSH2 0x3810 JUMP JUMPDEST PUSH1 0x20 DUP3 ADD SWAP1 POP SWAP2 SWAP1 POP JUMP JUMPDEST PUSH1 0x0 PUSH2 0x2E0C PUSH1 0x17 DUP4 PUSH2 0x32EB JUMP JUMPDEST SWAP2 POP PUSH2 0x2E17 DUP3 PUSH2 0x3839 JUMP JUMPDEST PUSH1 0x20 DUP3 ADD SWAP1 POP SWAP2 SWAP1 POP JUMP JUMPDEST PUSH1 0x0 PUSH2 0x2E2F PUSH1 0x20 DUP4 PUSH2 0x32EB JUMP JUMPDEST SWAP2 POP PUSH2 0x2E3A DUP3 PUSH2 0x3862 JUMP JUMPDEST PUSH1 0x20 DUP3 ADD SWAP1 POP SWAP2 SWAP1 POP JUMP JUMPDEST PUSH1 0x0 PUSH2 0x2E52 PUSH1 0x12 DUP4 PUSH2 0x32EB JUMP JUMPDEST SWAP2 POP PUSH2 0x2E5D DUP3 PUSH2 0x388B JUMP JUMPDEST PUSH1 0x20 DUP3 ADD SWAP1 POP SWAP2 SWAP1 POP JUMP JUMPDEST PUSH1 0x0 PUSH2 0x2E75 PUSH1 0x16 DUP4 PUSH2 0x32EB JUMP JUMPDEST SWAP2 POP PUSH2 0x2E80 DUP3 PUSH2 0x38B4 JUMP JUMPDEST PUSH1 0x20 DUP3 ADD SWAP1 POP SWAP2 SWAP1 POP JUMP JUMPDEST PUSH1 0x0 PUSH2 0x2E98 PUSH1 0xF DUP4 PUSH2 0x32EB JUMP JUMPDEST SWAP2 POP PUSH2 0x2EA3 DUP3 PUSH2 0x38DD JUMP JUMPDEST PUSH1 0x20 DUP3 ADD SWAP1 POP SWAP2 SWAP1 POP JUMP JUMPDEST PUSH2 0x2EB7 DUP2 PUSH2 0x344F JUMP JUMPDEST DUP3 MSTORE POP POP JUMP JUMPDEST PUSH2 0x2EC6 DUP2 PUSH2 0x34AB JUMP JUMPDEST DUP3 MSTORE POP POP JUMP JUMPDEST PUSH2 0x2ED5 DUP2 PUSH2 0x347D JUMP JUMPDEST DUP3 MSTORE POP POP JUMP JUMPDEST PUSH1 0x0 PUSH2 0x2EE7 DUP3 DUP5 PUSH2 0x2C5A JUMP JUMPDEST PUSH1 0x14 DUP3 ADD SWAP2 POP DUP2 SWAP1 POP SWAP3 SWAP2 POP POP JUMP JUMPDEST PUSH1 0x0 PUSH2 0x2F02 DUP3 DUP6 PUSH2 0x2D1F JUMP JUMPDEST SWAP2 POP PUSH2 0x2F0E DUP3 DUP5 PUSH2 0x2D1F JUMP JUMPDEST SWAP2 POP DUP2 SWAP1 POP SWAP4 SWAP3 POP POP POP JUMP JUMPDEST PUSH1 0x0 PUSH1 0x20 DUP3 ADD SWAP1 POP PUSH2 0x2F2F PUSH1 0x0 DUP4 ADD DUP5 PUSH2 0x2C4B JUMP JUMPDEST SWAP3 SWAP2 POP POP JUMP JUMPDEST PUSH1 0x0 PUSH1 0x80 DUP3 ADD SWAP1 POP PUSH2 0x2F4A PUSH1 0x0 DUP4 ADD DUP8 PUSH2 0x2C4B JUMP JUMPDEST PUSH2 0x2F57 PUSH1 0x20 DUP4 ADD DUP7 PUSH2 0x2C4B JUMP JUMPDEST PUSH2 0x2F64 PUSH1 0x40 DUP4 ADD DUP6 PUSH2 0x2ECC JUMP JUMPDEST DUP2 DUP2 SUB PUSH1 0x60 DUP4 ADD MSTORE PUSH2 0x2F76 DUP2 DUP5 PUSH2 0x2C8F JUMP JUMPDEST SWAP1 POP SWAP6 SWAP5 POP POP POP POP POP JUMP JUMPDEST PUSH1 0x0 PUSH1 0x40 DUP3 ADD SWAP1 POP PUSH2 0x2F96 PUSH1 0x0 DUP4 ADD DUP6 PUSH2 0x2C4B JUMP JUMPDEST PUSH2 0x2FA3 PUSH1 0x20 DUP4 ADD DUP5 PUSH2 0x2CD7 JUMP JUMPDEST SWAP4 SWAP3 POP POP POP JUMP JUMPDEST PUSH1 0x0 PUSH1 0x40 DUP3 ADD SWAP1 POP PUSH2 0x2FBF PUSH1 0x0 DUP4 ADD DUP6 PUSH2 0x2C4B JUMP JUMPDEST PUSH2 0x2FCC PUSH1 0x20 DUP4 ADD DUP5 PUSH2 0x2EBD JUMP JUMPDEST SWAP4 SWAP3 POP POP POP JUMP JUMPDEST PUSH1 0x0 PUSH1 0x40 DUP3 ADD SWAP1 POP PUSH2 0x2FE8 PUSH1 0x0 DUP4 ADD DUP6 PUSH2 0x2C4B JUMP JUMPDEST PUSH2 0x2FF5 PUSH1 0x20 DUP4 ADD DUP5 PUSH2 0x2ECC JUMP JUMPDEST SWAP4 SWAP3 POP POP POP JUMP JUMPDEST PUSH1 0x0 PUSH1 0x20 DUP3 ADD SWAP1 POP PUSH2 0x3011 PUSH1 0x0 DUP4 ADD DUP5 PUSH2 0x2C71 JUMP JUMPDEST SWAP3 SWAP2 POP POP JUMP JUMPDEST PUSH1 0x0 PUSH1 0x20 DUP3 ADD SWAP1 POP PUSH2 0x302C PUSH1 0x0 DUP4 ADD DUP5 PUSH2 0x2C80 JUMP JUMPDEST SWAP3 SWAP2 POP POP JUMP JUMPDEST PUSH1 0x0 PUSH1 0x20 DUP3 ADD SWAP1 POP PUSH2 0x3047 PUSH1 0x0 DUP4 ADD DUP5 PUSH2 0x2CC8 JUMP JUMPDEST SWAP3 SWAP2 POP POP JUMP JUMPDEST PUSH1 0x0 PUSH1 0x20 DUP3 ADD SWAP1 POP DUP2 DUP2 SUB PUSH1 0x0 DUP4 ADD MSTORE PUSH2 0x3067 DUP2 DUP5 PUSH2 0x2CE6 JUMP JUMPDEST SWAP1 POP SWAP3 SWAP2 POP POP JUMP JUMPDEST PUSH1 0x0 PUSH1 0x20 DUP3 ADD SWAP1 POP DUP2 DUP2 SUB PUSH1 0x0 DUP4 ADD MSTORE PUSH2 0x3088 DUP2 PUSH2 0x2D50 JUMP JUMPDEST SWAP1 POP SWAP2 SWAP1 POP JUMP JUMPDEST PUSH1 0x0 PUSH1 0x20 DUP3 ADD SWAP1 POP DUP2 DUP2 SUB PUSH1 0x0 DUP4 ADD MSTORE PUSH2 0x30A8 DUP2 PUSH2 0x2D73 JUMP JUMPDEST SWAP1 POP SWAP2 SWAP1 POP JUMP JUMPDEST PUSH1 0x0 PUSH1 0x20 DUP3 ADD SWAP1 POP DUP2 DUP2 SUB PUSH1 0x0 DUP4 ADD MSTORE PUSH2 0x30C8 DUP2 PUSH2 0x2D96 JUMP JUMPDEST SWAP1 POP SWAP2 SWAP1 POP JUMP JUMPDEST PUSH1 0x0 PUSH1 0x20 DUP3 ADD SWAP1 POP DUP2 DUP2 SUB PUSH1 0x0 DUP4 ADD MSTORE PUSH2 0x30E8 DUP2 PUSH2 0x2DB9 JUMP JUMPDEST SWAP1 POP SWAP2 SWAP1 POP JUMP JUMPDEST PUSH1 0x0 PUSH1 0x20 DUP3 ADD SWAP1 POP DUP2 DUP2 SUB PUSH1 0x0 DUP4 ADD MSTORE PUSH2 0x3108 DUP2 PUSH2 0x2DDC JUMP JUMPDEST SWAP1 POP SWAP2 SWAP1 POP JUMP JUMPDEST PUSH1 0x0 PUSH1 0x20 DUP3 ADD SWAP1 POP DUP2 DUP2 SUB PUSH1 0x0 DUP4 ADD MSTORE PUSH2 0x3128 DUP2 PUSH2 0x2DFF JUMP JUMPDEST SWAP1 POP SWAP2 SWAP1 POP JUMP JUMPDEST PUSH1 0x0 PUSH1 0x20 DUP3 ADD SWAP1 POP DUP2 DUP2 SUB PUSH1 0x0 DUP4 ADD MSTORE PUSH2 0x3148 DUP2 PUSH2 0x2E22 JUMP JUMPDEST SWAP1 POP SWAP2 SWAP1 POP JUMP JUMPDEST PUSH1 0x0 PUSH1 0x20 DUP3 ADD SWAP1 POP DUP2 DUP2 SUB PUSH1 0x0 DUP4 ADD MSTORE PUSH2 0x3168 DUP2 PUSH2 0x2E45 JUMP JUMPDEST SWAP1 POP SWAP2 SWAP1 POP JUMP JUMPDEST PUSH1 0x0 PUSH1 0x20 DUP3 ADD SWAP1 POP DUP2 DUP2 SUB PUSH1 0x0 DUP4 ADD MSTORE PUSH2 0x3188 DUP2 PUSH2 0x2E68 JUMP JUMPDEST SWAP1 POP SWAP2 SWAP1 POP JUMP JUMPDEST PUSH1 0x0 PUSH1 0x20 DUP3 ADD SWAP1 POP DUP2 DUP2 SUB PUSH1 0x0 DUP4 ADD MSTORE PUSH2 0x31A8 DUP2 PUSH2 0x2E8B JUMP JUMPDEST SWAP1 POP SWAP2 SWAP1 POP JUMP JUMPDEST PUSH1 0x0 PUSH1 0x20 DUP3 ADD SWAP1 POP PUSH2 0x31C4 PUSH1 0x0 DUP4 ADD DUP5 PUSH2 0x2EAE JUMP JUMPDEST SWAP3 SWAP2 POP POP JUMP JUMPDEST PUSH1 0x0 PUSH1 0x20 DUP3 ADD SWAP1 POP PUSH2 0x31DF PUSH1 0x0 DUP4 ADD DUP5 PUSH2 0x2ECC JUMP JUMPDEST SWAP3 SWAP2 POP POP JUMP JUMPDEST PUSH1 0x0 PUSH2 0x31EF PUSH2 0x3200 JUMP JUMPDEST SWAP1 POP PUSH2 0x31FB DUP3 DUP3 PUSH2 0x3531 JUMP JUMPDEST SWAP2 SWAP1 POP JUMP JUMPDEST PUSH1 0x0 PUSH1 0x40 MLOAD SWAP1 POP SWAP1 JUMP JUMPDEST PUSH1 0x0 PUSH8 0xFFFFFFFFFFFFFFFF DUP3 GT ISZERO PUSH2 0x3225 JUMPI PUSH2 0x3224 PUSH2 0x36BA JUMP JUMPDEST JUMPDEST PUSH1 0x20 DUP3 MUL SWAP1 POP PUSH1 0x20 DUP2 ADD SWAP1 POP SWAP2 SWAP1 POP JUMP JUMPDEST PUSH1 0x0 PUSH8 0xFFFFFFFFFFFFFFFF DUP3 GT ISZERO PUSH2 0x3251 JUMPI PUSH2 0x3250 PUSH2 0x36BA JUMP JUMPDEST JUMPDEST PUSH1 0x20 DUP3 MUL SWAP1 POP PUSH1 0x20 DUP2 ADD SWAP1 POP SWAP2 SWAP1 POP JUMP JUMPDEST PUSH1 0x0 PUSH8 0xFFFFFFFFFFFFFFFF DUP3 GT ISZERO PUSH2 0x327D JUMPI PUSH2 0x327C PUSH2 0x36BA JUMP JUMPDEST JUMPDEST PUSH2 0x3286 DUP3 PUSH2 0x3702 JUMP JUMPDEST SWAP1 POP PUSH1 0x20 DUP2 ADD SWAP1 POP SWAP2 SWAP1 POP JUMP JUMPDEST PUSH1 0x0 PUSH8 0xFFFFFFFFFFFFFFFF DUP3 GT ISZERO PUSH2 0x32AE JUMPI PUSH2 0x32AD PUSH2 0x36BA JUMP JUMPDEST JUMPDEST PUSH2 0x32B7 DUP3 PUSH2 0x3702 JUMP JUMPDEST SWAP1 POP PUSH1 0x20 DUP2 ADD SWAP1 POP SWAP2 SWAP1 POP JUMP JUMPDEST PUSH1 0x0 DUP2 MLOAD SWAP1 POP SWAP2 SWAP1 POP JUMP JUMPDEST PUSH1 0x0 DUP2 MLOAD SWAP1 POP SWAP2 SWAP1 POP JUMP JUMPDEST PUSH1 0x0 DUP3 DUP3 MSTORE PUSH1 0x20 DUP3 ADD SWAP1 POP SWAP3 SWAP2 POP POP JUMP JUMPDEST PUSH1 0x0 DUP3 DUP3 MSTORE PUSH1 0x20 DUP3 ADD SWAP1 POP SWAP3 SWAP2 POP POP JUMP JUMPDEST PUSH1 0x0 DUP2 SWAP1 POP SWAP3 SWAP2 POP POP JUMP JUMPDEST PUSH1 0x0 PUSH2 0x3312 DUP3 PUSH2 0x347D JUMP JUMPDEST SWAP2 POP PUSH2 0x331D DUP4 PUSH2 0x347D JUMP JUMPDEST SWAP3 POP DUP3 PUSH32 0xFFFFFFFFFFFFFFFFFFFFFFFFFFFFFFFFFFFFFFFFFFFFFFFFFFFFFFFFFFFFFFFF SUB DUP3 GT ISZERO PUSH2 0x3352 JUMPI PUSH2 0x3351 PUSH2 0x35CF JUMP JUMPDEST JUMPDEST DUP3 DUP3 ADD SWAP1 POP SWAP3 SWAP2 POP POP JUMP JUMPDEST PUSH1 0x0 PUSH2 0x3368 DUP3 PUSH2 0x347D JUMP JUMPDEST SWAP2 POP PUSH2 0x3373 DUP4 PUSH2 0x347D JUMP JUMPDEST SWAP3 POP DUP3 PUSH2 0x3383 JUMPI PUSH2 0x3382 PUSH2 0x35FE JUMP JUMPDEST JUMPDEST DUP3 DUP3 DIV SWAP1 POP SWAP3 SWAP2 POP POP JUMP JUMPDEST PUSH1 0x0 PUSH2 0x3399 DUP3 PUSH2 0x347D JUMP JUMPDEST SWAP2 POP PUSH2 0x33A4 DUP4 PUSH2 0x347D JUMP JUMPDEST SWAP3 POP DUP2 PUSH32 0xFFFFFFFFFFFFFFFFFFFFFFFFFFFFFFFFFFFFFFFFFFFFFFFFFFFFFFFFFFFFFFFF DIV DUP4 GT DUP3 ISZERO ISZERO AND ISZERO PUSH2 0x33DD JUMPI PUSH2 0x33DC PUSH2 0x35CF JUMP JUMPDEST JUMPDEST DUP3 DUP3 MUL SWAP1 POP SWAP3 SWAP2 POP POP JUMP JUMPDEST PUSH1 0x0 PUSH2 0x33F3 DUP3 PUSH2 0x345D JUMP JUMPDEST SWAP1 POP SWAP2 SWAP1 POP JUMP JUMPDEST PUSH1 0x0 DUP2 ISZERO ISZERO SWAP1 POP SWAP2 SWAP1 POP JUMP JUMPDEST PUSH1 0x0 DUP2 SWAP1 POP SWAP2 SWAP1 POP JUMP JUMPDEST PUSH1 0x0 PUSH32 0xFFFFFFFF00000000000000000000000000000000000000000000000000000000 DUP3 AND SWAP1 POP SWAP2 SWAP1 POP JUMP JUMPDEST PUSH1 0x0 DUP2 SWAP1 POP PUSH2 0x344A DUP3 PUSH2 0x3906 JUMP JUMPDEST SWAP2 SWAP1 POP JUMP JUMPDEST PUSH1 0x0 PUSH2 0xFFFF DUP3 AND SWAP1 POP SWAP2 SWAP1 POP JUMP JUMPDEST PUSH1 0x0 PUSH20 0xFFFFFFFFFFFFFFFFFFFFFFFFFFFFFFFFFFFFFFFF DUP3 AND SWAP1 POP SWAP2 SWAP1 POP JUMP JUMPDEST PUSH1 0x0 DUP2 SWAP1 POP SWAP2 SWAP1 POP JUMP JUMPDEST PUSH1 0x0 PUSH2 0x3492 DUP3 PUSH2 0x343C JUMP JUMPDEST SWAP1 POP SWAP2 SWAP1 POP JUMP JUMPDEST PUSH1 0x0 PUSH2 0x34A4 DUP3 PUSH2 0x347D JUMP JUMPDEST SWAP1 POP SWAP2 SWAP1 POP JUMP JUMPDEST PUSH1 0x0 PUSH2 0x34B6 DUP3 PUSH2 0x344F JUMP JUMPDEST SWAP1 POP SWAP2 SWAP1 POP JUMP JUMPDEST DUP3 DUP2 DUP4 CALLDATACOPY PUSH1 0x0 DUP4 DUP4 ADD MSTORE POP POP POP JUMP JUMPDEST PUSH1 0x0 JUMPDEST DUP4 DUP2 LT ISZERO PUSH2 0x34EA JUMPI DUP1 DUP3 ADD MLOAD DUP2 DUP5 ADD MSTORE PUSH1 0x20 DUP2 ADD SWAP1 POP PUSH2 0x34CF JUMP JUMPDEST DUP4 DUP2 GT ISZERO PUSH2 0x34F9 JUMPI PUSH1 0x0 DUP5 DUP5 ADD MSTORE JUMPDEST POP POP POP POP JUMP JUMPDEST PUSH1 0x0 PUSH1 0x2 DUP3 DIV SWAP1 POP PUSH1 0x1 DUP3 AND DUP1 PUSH2 0x3517 JUMPI PUSH1 0x7F DUP3 AND SWAP2 POP JUMPDEST PUSH1 0x20 DUP3 LT DUP2 EQ ISZERO PUSH2 0x352B JUMPI PUSH2 0x352A PUSH2 0x365C JUMP JUMPDEST JUMPDEST POP SWAP2 SWAP1 POP JUMP JUMPDEST PUSH2 0x353A DUP3 PUSH2 0x3702 JUMP JUMPDEST DUP2 ADD DUP2 DUP2 LT PUSH8 0xFFFFFFFFFFFFFFFF DUP3 GT OR ISZERO PUSH2 0x3559 JUMPI PUSH2 0x3558 PUSH2 0x36BA JUMP JUMPDEST JUMPDEST DUP1 PUSH1 0x40 MSTORE POP POP POP JUMP JUMPDEST PUSH1 0x0 PUSH2 0x356D DUP3 PUSH2 0x347D JUMP JUMPDEST SWAP2 POP PUSH32 0xFFFFFFFFFFFFFFFFFFFFFFFFFFFFFFFFFFFFFFFFFFFFFFFFFFFFFFFFFFFFFFFF DUP3 EQ ISZERO PUSH2 0x35A0 JUMPI PUSH2 0x359F PUSH2 0x35CF JUMP JUMPDEST JUMPDEST PUSH1 0x1 DUP3 ADD SWAP1 POP SWAP2 SWAP1 POP JUMP JUMPDEST PUSH1 0x0 PUSH2 0x35B6 DUP3 PUSH2 0x35BD JUMP JUMPDEST SWAP1 POP SWAP2 SWAP1 POP JUMP JUMPDEST PUSH1 0x0 PUSH2 0x35C8 DUP3 PUSH2 0x3713 JUMP JUMPDEST SWAP1 POP SWAP2 SWAP1 POP JUMP JUMPDEST PUSH32 0x4E487B7100000000000000000000000000000000000000000000000000000000 PUSH1 0x0 MSTORE PUSH1 0x11 PUSH1 0x4 MSTORE PUSH1 0x24 PUSH1 0x0 REVERT JUMPDEST PUSH32 0x4E487B7100000000000000000000000000000000000000000000000000000000 PUSH1 0x0 MSTORE PUSH1 0x12 PUSH1 0x4 MSTORE PUSH1 0x24 PUSH1 0x0 REVERT JUMPDEST PUSH32 0x4E487B7100000000000000000000000000000000000000000000000000000000 PUSH1 0x0 MSTORE PUSH1 0x21 PUSH1 0x4 MSTORE PUSH1 0x24 PUSH1 0x0 REVERT JUMPDEST PUSH32 0x4E487B7100000000000000000000000000000000000000000000000000000000 PUSH1 0x0 MSTORE PUSH1 0x22 PUSH1 0x4 MSTORE PUSH1 0x24 PUSH1 0x0 REVERT JUMPDEST PUSH32 0x4E487B7100000000000000000000000000000000000000000000000000000000 PUSH1 0x0 MSTORE PUSH1 0x32 PUSH1 0x4 MSTORE PUSH1 0x24 PUSH1 0x0 REVERT JUMPDEST PUSH32 0x4E487B7100000000000000000000000000000000000000000000000000000000 PUSH1 0x0 MSTORE PUSH1 0x41 PUSH1 0x4 MSTORE PUSH1 0x24 PUSH1 0x0 REVERT JUMPDEST PUSH1 0x0 DUP1 REVERT JUMPDEST PUSH1 0x0 DUP1 REVERT JUMPDEST PUSH1 0x0 DUP1 REVERT JUMPDEST PUSH1 0x0 DUP1 REVERT JUMPDEST PUSH1 0x0 DUP1 REVERT JUMPDEST PUSH1 0x0 PUSH1 0x1F NOT PUSH1 0x1F DUP4 ADD AND SWAP1 POP SWAP2 SWAP1 POP JUMP JUMPDEST PUSH1 0x0 DUP2 PUSH1 0x60 SHL SWAP1 POP SWAP2 SWAP1 POP JUMP JUMPDEST PUSH32 0x4E6F7420696E2057686974656C69737400000000000000000000000000000000 PUSH1 0x0 DUP3 ADD MSTORE POP JUMP JUMPDEST PUSH32 0x4F776E61626C653A206E6577206F776E657220697320746865207A65726F2061 PUSH1 0x0 DUP3 ADD MSTORE PUSH32 0x6464726573730000000000000000000000000000000000000000000000000000 PUSH1 0x20 DUP3 ADD MSTORE POP JUMP JUMPDEST PUSH32 0x5468697320726566657272616C20686173206E6F7420686F6C6420556E6A6920 PUSH1 0x0 DUP3 ADD MSTORE PUSH32 0x7965742100000000000000000000000000000000000000000000000000000000 PUSH1 0x20 DUP3 ADD MSTORE POP JUMP JUMPDEST PUSH32 0x4E6F7420696E2041697264726F70000000000000000000000000000000000000 PUSH1 0x0 DUP3 ADD MSTORE POP JUMP JUMPDEST PUSH32 0x4E465420416C726561647920736F6C64206F7574000000000000000000000000 PUSH1 0x0 DUP3 ADD MSTORE POP JUMP JUMPDEST PUSH32 0x43616E6E6F74206D696E74206F76657220737570706C79000000000000000000 PUSH1 0x0 DUP3 ADD MSTORE POP JUMP JUMPDEST PUSH32 0x4F776E61626C653A2063616C6C6572206973206E6F7420746865206F776E6572 PUSH1 0x0 DUP3 ADD MSTORE POP JUMP JUMPDEST PUSH32 0x496E73756666696369656E742076616C75650000000000000000000000000000 PUSH1 0x0 DUP3 ADD MSTORE POP JUMP JUMPDEST PUSH32 0x4E6F7420636F7272656374206D696E7420706861736500000000000000000000 PUSH1 0x0 DUP3 ADD MSTORE POP JUMP JUMPDEST PUSH32 0x416C726561647920436C61696D65640000000000000000000000000000000000 PUSH1 0x0 DUP3 ADD MSTORE POP JUMP JUMPDEST PUSH1 0x3 DUP2 LT PUSH2 0x3917 JUMPI PUSH2 0x3916 PUSH2 0x362D JUMP JUMPDEST JUMPDEST POP JUMP JUMPDEST PUSH2 0x3923 DUP2 PUSH2 0x33E8 JUMP JUMPDEST DUP2 EQ PUSH2 0x392E JUMPI PUSH1 0x0 DUP1 REVERT JUMPDEST POP JUMP JUMPDEST PUSH2 0x393A DUP2 PUSH2 0x33FA JUMP JUMPDEST DUP2 EQ PUSH2 0x3945 JUMPI PUSH1 0x0 DUP1 REVERT JUMPDEST POP JUMP JUMPDEST PUSH2 0x3951 DUP2 PUSH2 0x3406 JUMP JUMPDEST DUP2 EQ PUSH2 0x395C JUMPI PUSH1 0x0 DUP1 REVERT JUMPDEST POP JUMP JUMPDEST PUSH2 0x3968 DUP2 PUSH2 0x3410 JUMP JUMPDEST DUP2 EQ PUSH2 0x3973 JUMPI PUSH1 0x0 DUP1 REVERT JUMPDEST POP JUMP JUMPDEST PUSH1 0x3 DUP2 LT PUSH2 0x3983 JUMPI PUSH1 0x0 DUP1 REVERT JUMPDEST POP JUMP JUMPDEST PUSH2 0x398F DUP2 PUSH2 0x344F JUMP JUMPDEST DUP2 EQ PUSH2 0x399A JUMPI PUSH1 0x0 DUP1 REVERT JUMPDEST POP JUMP JUMPDEST PUSH2 0x39A6 DUP2 PUSH2 0x347D JUMP JUMPDEST DUP2 EQ PUSH2 0x39B1 JUMPI PUSH1 0x0 DUP1 REVERT JUMPDEST POP JUMP INVALID LOG2 PUSH5 0x6970667358 0x22 SLT KECCAK256 0xD3 SLOAD MSTORE8 0xAA DUP8 STATICCALL DUP3 0xFC MOD AND PUSH12 0x58C53C5B6A0199A7C4C181DF SELFDESTRUCT 0xAC 0x4E INVALID 0x2C 0xE5 LOG4 PUSH5 0x6B64736F6C PUSH4 0x43000807 STOP CALLER "
		},
		"gasEstimates": {
			"creation": {
				"codeDepositCost": "2965200",
				"executionCost": "infinite",
				"totalCost": "infinite"
			},
			"external": {
				"": "265",
				"AIRDROP_ROOT()": "2519",
				"MINT_PRICE_PUBLIC()": "396",
				"MINT_PRICE_WHITELIST()": "375",
				"TOTAL_COLLECTION_SIZE()": "467",
				"WHITELIST_ROOT()": "2497",
				"airDrop(bytes32[])": "infinite",
				"airdropClaimed(address)": "2956",
				"approve(address,uint256)": "infinite",
				"balanceOf(address)": "2931",
				"bulkTransfer(address,address,uint256[])": "infinite",
				"getApproved(uint256)": "7412",
				"isApprovedForAll(address,address)": "infinite",
				"mint(uint16)": "infinite",
				"mintPhase()": "2656",
				"mintRef(uint256,address)": "infinite",
				"name()": "infinite",
				"owner()": "2634",
				"ownerOf(uint256)": "infinite",
				"paused()": "2618",
				"renounceOwnership()": "30466",
				"safeTransferFrom(address,address,uint256)": "infinite",
				"safeTransferFrom(address,address,uint256,bytes)": "infinite",
				"setAirdropRoot(bytes32)": "24873",
				"setApprovalForAll(address,bool)": "infinite",
				"setBaseURI(string)": "infinite",
				"setMintPhase(uint8)": "27054",
				"setWhitelistRoot(bytes32)": "24894",
				"supportsInterface(bytes4)": "768",
				"symbol()": "infinite",
				"tokenURI(uint256)": "infinite",
				"totalSupply()": "4652",
				"transferFrom(address,address,uint256)": "infinite",
				"transferOwnership(address)": "30813",
				"whiteListMint(bytes32[],uint256)": "infinite",
				"withdraw()": "infinite"
			},
			"internal": {
				"_baseURI()": "infinite",
				"_startTokenId()": "23"
			}
		},
		"methodIdentifiers": {
			"AIRDROP_ROOT()": "88b4b7d6",
			"MINT_PRICE_PUBLIC()": "c3151fed",
			"MINT_PRICE_WHITELIST()": "27fda1a1",
			"TOTAL_COLLECTION_SIZE()": "f5fb0123",
			"WHITELIST_ROOT()": "2a1d6190",
			"airDrop(bytes32[])": "8f5534be",
			"airdropClaimed(address)": "d1b6dd30",
			"approve(address,uint256)": "095ea7b3",
			"balanceOf(address)": "70a08231",
			"bulkTransfer(address,address,uint256[])": "f365dda8",
			"getApproved(uint256)": "081812fc",
			"isApprovedForAll(address,address)": "e985e9c5",
			"mint(uint16)": "23cf0a22",
			"mintPhase()": "17881cbf",
			"mintRef(uint256,address)": "614211e9",
			"name()": "06fdde03",
			"owner()": "8da5cb5b",
			"ownerOf(uint256)": "6352211e",
			"paused()": "5c975abb",
			"renounceOwnership()": "715018a6",
			"safeTransferFrom(address,address,uint256)": "42842e0e",
			"safeTransferFrom(address,address,uint256,bytes)": "b88d4fde",
			"setAirdropRoot(bytes32)": "9d9e7a99",
			"setApprovalForAll(address,bool)": "a22cb465",
			"setBaseURI(string)": "55f804b3",
			"setMintPhase(uint8)": "31c07bbf",
			"setWhitelistRoot(bytes32)": "f5aa406d",
			"supportsInterface(bytes4)": "01ffc9a7",
			"symbol()": "95d89b41",
			"tokenURI(uint256)": "c87b56dd",
			"totalSupply()": "18160ddd",
			"transferFrom(address,address,uint256)": "23b872dd",
			"transferOwnership(address)": "f2fde38b",
			"whiteListMint(bytes32[],uint256)": "c30bf318",
			"withdraw()": "3ccfd60b"
		}
	},
	"abi": [
		{
			"inputs": [],
			"stateMutability": "nonpayable",
			"type": "constructor"
		},
		{
			"inputs": [],
			"name": "ApprovalCallerNotOwnerNorApproved",
			"type": "error"
		},
		{
			"inputs": [],
			"name": "ApprovalQueryForNonexistentToken",
			"type": "error"
		},
		{
			"inputs": [],
			"name": "BalanceQueryForZeroAddress",
			"type": "error"
		},
		{
			"inputs": [],
			"name": "MintERC2309QuantityExceedsLimit",
			"type": "error"
		},
		{
			"inputs": [],
			"name": "MintToZeroAddress",
			"type": "error"
		},
		{
			"inputs": [],
			"name": "MintZeroQuantity",
			"type": "error"
		},
		{
			"inputs": [],
			"name": "NotImplemented",
			"type": "error"
		},
		{
			"inputs": [],
			"name": "OwnerQueryForNonexistentToken",
			"type": "error"
		},
		{
			"inputs": [],
			"name": "OwnershipNotInitializedForExtraData",
			"type": "error"
		},
		{
			"inputs": [],
			"name": "TransferCallerNotOwnerNorApproved",
			"type": "error"
		},
		{
			"inputs": [],
			"name": "TransferFromIncorrectOwner",
			"type": "error"
		},
		{
			"inputs": [],
			"name": "TransferToNonERC721ReceiverImplementer",
			"type": "error"
		},
		{
			"inputs": [],
			"name": "TransferToZeroAddress",
			"type": "error"
		},
		{
			"inputs": [],
			"name": "URIQueryForNonexistentToken",
			"type": "error"
		},
		{
			"anonymous": false,
			"inputs": [
				{
					"indexed": true,
					"internalType": "address",
					"name": "owner",
					"type": "address"
				},
				{
					"indexed": true,
					"internalType": "address",
					"name": "approved",
					"type": "address"
				},
				{
					"indexed": true,
					"internalType": "uint256",
					"name": "tokenId",
					"type": "uint256"
				}
			],
			"name": "Approval",
			"type": "event"
		},
		{
			"anonymous": false,
			"inputs": [
				{
					"indexed": true,
					"internalType": "address",
					"name": "owner",
					"type": "address"
				},
				{
					"indexed": true,
					"internalType": "address",
					"name": "operator",
					"type": "address"
				},
				{
					"indexed": false,
					"internalType": "bool",
					"name": "approved",
					"type": "bool"
				}
			],
			"name": "ApprovalForAll",
			"type": "event"
		},
		{
			"anonymous": false,
			"inputs": [
				{
					"indexed": true,
					"internalType": "uint256",
					"name": "fromTokenId",
					"type": "uint256"
				},
				{
					"indexed": false,
					"internalType": "uint256",
					"name": "toTokenId",
					"type": "uint256"
				},
				{
					"indexed": true,
					"internalType": "address",
					"name": "from",
					"type": "address"
				},
				{
					"indexed": true,
					"internalType": "address",
					"name": "to",
					"type": "address"
				}
			],
			"name": "ConsecutiveTransfer",
			"type": "event"
		},
		{
			"anonymous": false,
			"inputs": [
				{
					"indexed": true,
					"internalType": "address",
					"name": "previousOwner",
					"type": "address"
				},
				{
					"indexed": true,
					"internalType": "address",
					"name": "newOwner",
					"type": "address"
				}
			],
			"name": "OwnershipTransferred",
			"type": "event"
		},
		{
			"anonymous": false,
			"inputs": [
				{
					"indexed": false,
					"internalType": "address",
					"name": "account",
					"type": "address"
				}
			],
			"name": "Paused",
			"type": "event"
		},
		{
			"anonymous": false,
			"inputs": [
				{
					"indexed": true,
					"internalType": "address",
					"name": "from",
					"type": "address"
				},
				{
					"indexed": true,
					"internalType": "address",
					"name": "to",
					"type": "address"
				},
				{
					"indexed": true,
					"internalType": "uint256",
					"name": "tokenId",
					"type": "uint256"
				}
			],
			"name": "Transfer",
			"type": "event"
		},
		{
			"anonymous": false,
			"inputs": [
				{
					"indexed": false,
					"internalType": "address",
					"name": "to",
					"type": "address"
				},
				{
					"indexed": false,
					"internalType": "uint256",
					"name": "quantity",
					"type": "uint256"
				}
			],
			"name": "UnjiMinted",
			"type": "event"
		},
		{
			"anonymous": false,
			"inputs": [
				{
					"indexed": false,
					"internalType": "address",
					"name": "account",
					"type": "address"
				}
			],
			"name": "Unpaused",
			"type": "event"
		},
		{
			"stateMutability": "payable",
			"type": "fallback"
		},
		{
			"inputs": [],
			"name": "AIRDROP_ROOT",
			"outputs": [
				{
					"internalType": "bytes32",
					"name": "",
					"type": "bytes32"
				}
			],
			"stateMutability": "view",
			"type": "function"
		},
		{
			"inputs": [],
			"name": "MINT_PRICE_PUBLIC",
			"outputs": [
				{
					"internalType": "uint256",
					"name": "",
					"type": "uint256"
				}
			],
			"stateMutability": "view",
			"type": "function"
		},
		{
			"inputs": [],
			"name": "MINT_PRICE_WHITELIST",
			"outputs": [
				{
					"internalType": "uint256",
					"name": "",
					"type": "uint256"
				}
			],
			"stateMutability": "view",
			"type": "function"
		},
		{
			"inputs": [],
			"name": "TOTAL_COLLECTION_SIZE",
			"outputs": [
				{
					"internalType": "uint16",
					"name": "",
					"type": "uint16"
				}
			],
			"stateMutability": "view",
			"type": "function"
		},
		{
			"inputs": [],
			"name": "WHITELIST_ROOT",
			"outputs": [
				{
					"internalType": "bytes32",
					"name": "",
					"type": "bytes32"
				}
			],
			"stateMutability": "view",
			"type": "function"
		},
		{
			"inputs": [
				{
					"internalType": "bytes32[]",
					"name": "proof",
					"type": "bytes32[]"
				}
			],
			"name": "airDrop",
			"outputs": [],
			"stateMutability": "nonpayable",
			"type": "function"
		},
		{
			"inputs": [
				{
					"internalType": "address",
					"name": "",
					"type": "address"
				}
			],
			"name": "airdropClaimed",
			"outputs": [
				{
					"internalType": "bool",
					"name": "",
					"type": "bool"
				}
			],
			"stateMutability": "view",
			"type": "function"
		},
		{
			"inputs": [
				{
					"internalType": "address",
					"name": "to",
					"type": "address"
				},
				{
					"internalType": "uint256",
					"name": "tokenId",
					"type": "uint256"
				}
			],
			"name": "approve",
			"outputs": [],
			"stateMutability": "payable",
			"type": "function"
		},
		{
			"inputs": [
				{
					"internalType": "address",
					"name": "owner",
					"type": "address"
				}
			],
			"name": "balanceOf",
			"outputs": [
				{
					"internalType": "uint256",
					"name": "",
					"type": "uint256"
				}
			],
			"stateMutability": "view",
			"type": "function"
		},
		{
			"inputs": [
				{
					"internalType": "address",
					"name": "from",
					"type": "address"
				},
				{
					"internalType": "address",
					"name": "to",
					"type": "address"
				},
				{
					"internalType": "uint256[]",
					"name": "tokenIds",
					"type": "uint256[]"
				}
			],
			"name": "bulkTransfer",
			"outputs": [],
			"stateMutability": "nonpayable",
			"type": "function"
		},
		{
			"inputs": [
				{
					"internalType": "uint256",
					"name": "tokenId",
					"type": "uint256"
				}
			],
			"name": "getApproved",
			"outputs": [
				{
					"internalType": "address",
					"name": "",
					"type": "address"
				}
			],
			"stateMutability": "view",
			"type": "function"
		},
		{
			"inputs": [
				{
					"internalType": "address",
					"name": "owner",
					"type": "address"
				},
				{
					"internalType": "address",
					"name": "operator",
					"type": "address"
				}
			],
			"name": "isApprovedForAll",
			"outputs": [
				{
					"internalType": "bool",
					"name": "",
					"type": "bool"
				}
			],
			"stateMutability": "view",
			"type": "function"
		},
		{
			"inputs": [
				{
					"internalType": "uint16",
					"name": "quantity",
					"type": "uint16"
				}
			],
			"name": "mint",
			"outputs": [],
			"stateMutability": "payable",
			"type": "function"
		},
		{
			"inputs": [],
			"name": "mintPhase",
			"outputs": [
				{
					"internalType": "enum CryptoUnji.MintPhase",
					"name": "",
					"type": "uint8"
				}
			],
			"stateMutability": "view",
			"type": "function"
		},
		{
			"inputs": [
				{
					"internalType": "uint256",
					"name": "quantity",
					"type": "uint256"
				},
				{
					"internalType": "address",
					"name": "refAddress",
					"type": "address"
				}
			],
			"name": "mintRef",
			"outputs": [],
			"stateMutability": "payable",
			"type": "function"
		},
		{
			"inputs": [],
			"name": "name",
			"outputs": [
				{
					"internalType": "string",
					"name": "",
					"type": "string"
				}
			],
			"stateMutability": "view",
			"type": "function"
		},
		{
			"inputs": [],
			"name": "owner",
			"outputs": [
				{
					"internalType": "address",
					"name": "",
					"type": "address"
				}
			],
			"stateMutability": "view",
			"type": "function"
		},
		{
			"inputs": [
				{
					"internalType": "uint256",
					"name": "tokenId",
					"type": "uint256"
				}
			],
			"name": "ownerOf",
			"outputs": [
				{
					"internalType": "address",
					"name": "",
					"type": "address"
				}
			],
			"stateMutability": "view",
			"type": "function"
		},
		{
			"inputs": [],
			"name": "paused",
			"outputs": [
				{
					"internalType": "bool",
					"name": "",
					"type": "bool"
				}
			],
			"stateMutability": "view",
			"type": "function"
		},
		{
			"inputs": [],
			"name": "renounceOwnership",
			"outputs": [],
			"stateMutability": "nonpayable",
			"type": "function"
		},
		{
			"inputs": [
				{
					"internalType": "address",
					"name": "from",
					"type": "address"
				},
				{
					"internalType": "address",
					"name": "to",
					"type": "address"
				},
				{
					"internalType": "uint256",
					"name": "tokenId",
					"type": "uint256"
				}
			],
			"name": "safeTransferFrom",
			"outputs": [],
			"stateMutability": "payable",
			"type": "function"
		},
		{
			"inputs": [
				{
					"internalType": "address",
					"name": "from",
					"type": "address"
				},
				{
					"internalType": "address",
					"name": "to",
					"type": "address"
				},
				{
					"internalType": "uint256",
					"name": "tokenId",
					"type": "uint256"
				},
				{
					"internalType": "bytes",
					"name": "_data",
					"type": "bytes"
				}
			],
			"name": "safeTransferFrom",
			"outputs": [],
			"stateMutability": "payable",
			"type": "function"
		},
		{
			"inputs": [
				{
					"internalType": "bytes32",
					"name": "newRoot",
					"type": "bytes32"
				}
			],
			"name": "setAirdropRoot",
			"outputs": [],
			"stateMutability": "nonpayable",
			"type": "function"
		},
		{
			"inputs": [
				{
					"internalType": "address",
					"name": "operator",
					"type": "address"
				},
				{
					"internalType": "bool",
					"name": "approved",
					"type": "bool"
				}
			],
			"name": "setApprovalForAll",
			"outputs": [],
			"stateMutability": "nonpayable",
			"type": "function"
		},
		{
			"inputs": [
				{
					"internalType": "string",
					"name": "_baseTokenURI",
					"type": "string"
				}
			],
			"name": "setBaseURI",
			"outputs": [],
			"stateMutability": "nonpayable",
			"type": "function"
		},
		{
			"inputs": [
				{
					"internalType": "enum CryptoUnji.MintPhase",
					"name": "_mintPhase",
					"type": "uint8"
				}
			],
			"name": "setMintPhase",
			"outputs": [],
			"stateMutability": "nonpayable",
			"type": "function"
		},
		{
			"inputs": [
				{
					"internalType": "bytes32",
					"name": "newRoot",
					"type": "bytes32"
				}
			],
			"name": "setWhitelistRoot",
			"outputs": [],
			"stateMutability": "nonpayable",
			"type": "function"
		},
		{
			"inputs": [
				{
					"internalType": "bytes4",
					"name": "interfaceId",
					"type": "bytes4"
				}
			],
			"name": "supportsInterface",
			"outputs": [
				{
					"internalType": "bool",
					"name": "",
					"type": "bool"
				}
			],
			"stateMutability": "view",
			"type": "function"
		},
		{
			"inputs": [],
			"name": "symbol",
			"outputs": [
				{
					"internalType": "string",
					"name": "",
					"type": "string"
				}
			],
			"stateMutability": "view",
			"type": "function"
		},
		{
			"inputs": [
				{
					"internalType": "uint256",
					"name": "tokenId",
					"type": "uint256"
				}
			],
			"name": "tokenURI",
			"outputs": [
				{
					"internalType": "string",
					"name": "",
					"type": "string"
				}
			],
			"stateMutability": "view",
			"type": "function"
		},
		{
			"inputs": [],
			"name": "totalSupply",
			"outputs": [
				{
					"internalType": "uint256",
					"name": "",
					"type": "uint256"
				}
			],
			"stateMutability": "view",
			"type": "function"
		},
		{
			"inputs": [
				{
					"internalType": "address",
					"name": "from",
					"type": "address"
				},
				{
					"internalType": "address",
					"name": "to",
					"type": "address"
				},
				{
					"internalType": "uint256",
					"name": "tokenId",
					"type": "uint256"
				}
			],
			"name": "transferFrom",
			"outputs": [],
			"stateMutability": "payable",
			"type": "function"
		},
		{
			"inputs": [
				{
					"internalType": "address",
					"name": "newOwner",
					"type": "address"
				}
			],
			"name": "transferOwnership",
			"outputs": [],
			"stateMutability": "nonpayable",
			"type": "function"
		},
		{
			"inputs": [
				{
					"internalType": "bytes32[]",
					"name": "proof",
					"type": "bytes32[]"
				},
				{
					"internalType": "uint256",
					"name": "quantity",
					"type": "uint256"
				}
			],
			"name": "whiteListMint",
			"outputs": [],
			"stateMutability": "payable",
			"type": "function"
		},
		{
			"inputs": [],
			"name": "withdraw",
			"outputs": [],
			"stateMutability": "nonpayable",
			"type": "function"
		},
		{
			"stateMutability": "payable",
			"type": "receive"
		}
	]
}